{
  "_format": "hh-sol-artifact-1",
  "contractName": "AndyChill",
  "sourceName": "contracts/AndyChill.sol",
  "abi": [
    {
      "inputs": [],
      "stateMutability": "nonpayable",
      "type": "constructor"
    },
    {
      "anonymous": false,
      "inputs": [
        {
          "indexed": true,
          "internalType": "address",
          "name": "account",
          "type": "address"
        },
        {
          "indexed": true,
          "internalType": "address",
          "name": "operator",
          "type": "address"
        },
        {
          "indexed": false,
          "internalType": "bool",
          "name": "approved",
          "type": "bool"
        }
      ],
      "name": "ApprovalForAll",
      "type": "event"
    },
    {
      "anonymous": false,
      "inputs": [
        {
          "indexed": true,
          "internalType": "address",
          "name": "previousOwner",
          "type": "address"
        },
        {
          "indexed": true,
          "internalType": "address",
          "name": "newOwner",
          "type": "address"
        }
      ],
      "name": "OwnershipTransferred",
      "type": "event"
    },
    {
      "anonymous": false,
      "inputs": [
        {
          "indexed": false,
          "internalType": "address",
          "name": "account",
          "type": "address"
        }
      ],
      "name": "Paused",
      "type": "event"
    },
    {
      "anonymous": false,
      "inputs": [
        {
          "indexed": true,
          "internalType": "address",
          "name": "operator",
          "type": "address"
        },
        {
          "indexed": true,
          "internalType": "address",
          "name": "from",
          "type": "address"
        },
        {
          "indexed": true,
          "internalType": "address",
          "name": "to",
          "type": "address"
        },
        {
          "indexed": false,
          "internalType": "uint256[]",
          "name": "ids",
          "type": "uint256[]"
        },
        {
          "indexed": false,
          "internalType": "uint256[]",
          "name": "values",
          "type": "uint256[]"
        }
      ],
      "name": "TransferBatch",
      "type": "event"
    },
    {
      "anonymous": false,
      "inputs": [
        {
          "indexed": true,
          "internalType": "address",
          "name": "operator",
          "type": "address"
        },
        {
          "indexed": true,
          "internalType": "address",
          "name": "from",
          "type": "address"
        },
        {
          "indexed": true,
          "internalType": "address",
          "name": "to",
          "type": "address"
        },
        {
          "indexed": false,
          "internalType": "uint256",
          "name": "id",
          "type": "uint256"
        },
        {
          "indexed": false,
          "internalType": "uint256",
          "name": "value",
          "type": "uint256"
        }
      ],
      "name": "TransferSingle",
      "type": "event"
    },
    {
      "anonymous": false,
      "inputs": [
        {
          "indexed": false,
          "internalType": "string",
          "name": "value",
          "type": "string"
        },
        {
          "indexed": true,
          "internalType": "uint256",
          "name": "id",
          "type": "uint256"
        }
      ],
      "name": "URI",
      "type": "event"
    },
    {
      "anonymous": false,
      "inputs": [
        {
          "indexed": false,
          "internalType": "address",
          "name": "account",
          "type": "address"
        }
      ],
      "name": "Unpaused",
      "type": "event"
    },
    {
      "inputs": [
        {
          "internalType": "address",
          "name": "account",
          "type": "address"
        },
        {
          "internalType": "uint256",
          "name": "id",
          "type": "uint256"
        }
      ],
      "name": "balanceOf",
      "outputs": [
        {
          "internalType": "uint256",
          "name": "",
          "type": "uint256"
        }
      ],
      "stateMutability": "view",
      "type": "function"
    },
    {
      "inputs": [
        {
          "internalType": "address[]",
          "name": "accounts",
          "type": "address[]"
        },
        {
          "internalType": "uint256[]",
          "name": "ids",
          "type": "uint256[]"
        }
      ],
      "name": "balanceOfBatch",
      "outputs": [
        {
          "internalType": "uint256[]",
          "name": "",
          "type": "uint256[]"
        }
      ],
      "stateMutability": "view",
      "type": "function"
    },
    {
      "inputs": [
        {
          "internalType": "address",
          "name": "",
          "type": "address"
        }
      ],
      "name": "balances",
      "outputs": [
        {
          "internalType": "uint256",
          "name": "",
          "type": "uint256"
        }
      ],
      "stateMutability": "view",
      "type": "function"
    },
    {
      "inputs": [
        {
          "internalType": "address",
          "name": "account",
          "type": "address"
        },
        {
          "internalType": "uint256",
          "name": "id",
          "type": "uint256"
        },
        {
          "internalType": "uint256",
          "name": "value",
          "type": "uint256"
        }
      ],
      "name": "burn",
      "outputs": [],
      "stateMutability": "nonpayable",
      "type": "function"
    },
    {
      "inputs": [
        {
          "internalType": "address",
          "name": "account",
          "type": "address"
        },
        {
          "internalType": "uint256[]",
          "name": "ids",
          "type": "uint256[]"
        },
        {
          "internalType": "uint256[]",
          "name": "values",
          "type": "uint256[]"
        }
      ],
      "name": "burnBatch",
      "outputs": [],
      "stateMutability": "nonpayable",
      "type": "function"
    },
    {
      "inputs": [],
      "name": "currentItems",
      "outputs": [
        {
          "internalType": "uint256",
          "name": "",
          "type": "uint256"
        }
      ],
      "stateMutability": "view",
      "type": "function"
    },
    {
      "inputs": [
        {
          "internalType": "uint256",
          "name": "id",
          "type": "uint256"
        }
      ],
      "name": "exists",
      "outputs": [
        {
          "internalType": "bool",
          "name": "",
          "type": "bool"
        }
      ],
      "stateMutability": "view",
      "type": "function"
    },
    {
      "inputs": [
        {
          "internalType": "address",
          "name": "account",
          "type": "address"
        },
        {
          "internalType": "address",
          "name": "operator",
          "type": "address"
        }
      ],
      "name": "isApprovedForAll",
      "outputs": [
        {
          "internalType": "bool",
          "name": "",
          "type": "bool"
        }
      ],
      "stateMutability": "view",
      "type": "function"
    },
    {
      "inputs": [
        {
          "internalType": "uint256",
          "name": "id",
          "type": "uint256"
        },
        {
          "internalType": "uint256",
          "name": "amount",
          "type": "uint256"
        },
        {
          "internalType": "bytes",
          "name": "data",
          "type": "bytes"
        }
      ],
      "name": "mint",
      "outputs": [],
      "stateMutability": "payable",
      "type": "function"
    },
    {
      "inputs": [],
      "name": "owner",
      "outputs": [
        {
          "internalType": "address",
          "name": "",
          "type": "address"
        }
      ],
      "stateMutability": "view",
      "type": "function"
    },
    {
      "inputs": [],
      "name": "pause",
      "outputs": [],
      "stateMutability": "nonpayable",
      "type": "function"
    },
    {
      "inputs": [],
      "name": "paused",
      "outputs": [
        {
          "internalType": "bool",
          "name": "",
          "type": "bool"
        }
      ],
      "stateMutability": "view",
      "type": "function"
    },
    {
      "inputs": [],
      "name": "renounceOwnership",
      "outputs": [],
      "stateMutability": "nonpayable",
      "type": "function"
    },
    {
      "inputs": [
        {
          "internalType": "address",
          "name": "from",
          "type": "address"
        },
        {
          "internalType": "address",
          "name": "to",
          "type": "address"
        },
        {
          "internalType": "uint256[]",
          "name": "ids",
          "type": "uint256[]"
        },
        {
          "internalType": "uint256[]",
          "name": "amounts",
          "type": "uint256[]"
        },
        {
          "internalType": "bytes",
          "name": "data",
          "type": "bytes"
        }
      ],
      "name": "safeBatchTransferFrom",
      "outputs": [],
      "stateMutability": "nonpayable",
      "type": "function"
    },
    {
      "inputs": [
        {
          "internalType": "address",
          "name": "from",
          "type": "address"
        },
        {
          "internalType": "address",
          "name": "to",
          "type": "address"
        },
        {
          "internalType": "uint256",
          "name": "id",
          "type": "uint256"
        },
        {
          "internalType": "uint256",
          "name": "amount",
          "type": "uint256"
        },
        {
          "internalType": "bytes",
          "name": "data",
          "type": "bytes"
        }
      ],
      "name": "safeTransferFrom",
      "outputs": [],
      "stateMutability": "nonpayable",
      "type": "function"
    },
    {
      "inputs": [
        {
          "internalType": "address",
          "name": "operator",
          "type": "address"
        },
        {
          "internalType": "bool",
          "name": "approved",
          "type": "bool"
        }
      ],
      "name": "setApprovalForAll",
      "outputs": [],
      "stateMutability": "nonpayable",
      "type": "function"
    },
    {
      "inputs": [
        {
          "internalType": "uint256",
          "name": "newLimit",
          "type": "uint256"
        }
      ],
      "name": "setCurrentItems",
      "outputs": [],
      "stateMutability": "nonpayable",
      "type": "function"
    },
    {
      "inputs": [
        {
          "internalType": "string",
          "name": "newuri",
          "type": "string"
        }
      ],
      "name": "setURI",
      "outputs": [],
      "stateMutability": "nonpayable",
      "type": "function"
    },
    {
      "inputs": [
        {
          "internalType": "bytes4",
          "name": "interfaceId",
          "type": "bytes4"
        }
      ],
      "name": "supportsInterface",
      "outputs": [
        {
          "internalType": "bool",
          "name": "",
          "type": "bool"
        }
      ],
      "stateMutability": "view",
      "type": "function"
    },
    {
      "inputs": [
        {
          "internalType": "uint256",
          "name": "id",
          "type": "uint256"
        }
      ],
      "name": "totalSupply",
      "outputs": [
        {
          "internalType": "uint256",
          "name": "",
          "type": "uint256"
        }
      ],
      "stateMutability": "view",
      "type": "function"
    },
    {
      "inputs": [
        {
          "internalType": "address",
          "name": "newOwner",
          "type": "address"
        }
      ],
      "name": "transferOwnership",
      "outputs": [],
      "stateMutability": "nonpayable",
      "type": "function"
    },
    {
      "inputs": [],
      "name": "unpause",
      "outputs": [],
      "stateMutability": "nonpayable",
      "type": "function"
    },
    {
      "inputs": [
        {
          "internalType": "uint256",
          "name": "",
          "type": "uint256"
        }
      ],
      "name": "uri",
      "outputs": [
        {
          "internalType": "string",
          "name": "",
          "type": "string"
        }
      ],
      "stateMutability": "view",
      "type": "function"
    },
    {
      "inputs": [],
      "name": "withdrawl",
      "outputs": [],
      "stateMutability": "nonpayable",
      "type": "function"
    }
  ],
  "bytecode": "0x608060405260016005553480156200001657600080fd5b506040518060600160405280602e8152602001620041ba602e913962000042816200008460201b60201c565b506200006362000057620000a060201b60201c565b620000a860201b60201c565b6000600360146101000a81548160ff02191690831515021790555062000283565b80600290805190602001906200009c9291906200016e565b5050565b600033905090565b6000600360009054906101000a900473ffffffffffffffffffffffffffffffffffffffff16905081600360006101000a81548173ffffffffffffffffffffffffffffffffffffffff021916908373ffffffffffffffffffffffffffffffffffffffff1602179055508173ffffffffffffffffffffffffffffffffffffffff168173ffffffffffffffffffffffffffffffffffffffff167f8be0079c531659141344cd1fd0a4f28419497f9722a3daafe3b4186f6b6457e060405160405180910390a35050565b8280546200017c906200024d565b90600052602060002090601f016020900481019282620001a05760008555620001ec565b82601f10620001bb57805160ff1916838001178555620001ec565b82800160010185558215620001ec579182015b82811115620001eb578251825591602001919060010190620001ce565b5b509050620001fb9190620001ff565b5090565b5b808211156200021a57600081600090555060010162000200565b5090565b7f4e487b7100000000000000000000000000000000000000000000000000000000600052602260045260246000fd5b600060028204905060018216806200026657607f821691505b602082108114156200027d576200027c6200021e565b5b50919050565b613f2780620002936000396000f3fe60806040526004361061014a5760003560e01c80636a1a0ea8116100b6578063bd85b0391161006f578063bd85b03914610458578063e17de1aa14610495578063e985e9c5146104c0578063f242432a146104fd578063f2fde38b14610526578063f5298aca1461054f5761014a565b80636a1a0ea8146103845780636b20c454146103ad578063715018a6146103d65780638456cb59146103ed5780638da5cb5b14610404578063a22cb4651461042f5761014a565b80632eb2c2d6116101085780632eb2c2d6146102885780633aedfb8b146102b15780633f4ba83a146102c85780634e1273f4146102df5780634f558e791461031c5780635c975abb146103595761014a565b8062fdd58e1461014f57806301ffc9a71461018c57806302fe5305146101c957806308dc9f42146101f25780630e89341c1461020e57806327e235e31461024b575b600080fd5b34801561015b57600080fd5b5061017660048036038101906101719190612710565b610578565b604051610183919061275f565b60405180910390f35b34801561019857600080fd5b506101b360048036038101906101ae91906127d2565b610641565b6040516101c0919061281a565b60405180910390f35b3480156101d557600080fd5b506101f060048036038101906101eb919061297b565b610723565b005b61020c60048036038101906102079190612a65565b610737565b005b34801561021a57600080fd5b5061023560048036038101906102309190612ad4565b610804565b6040516102429190612b89565b60405180910390f35b34801561025757600080fd5b50610272600480360381019061026d9190612bab565b610898565b60405161027f919061275f565b60405180910390f35b34801561029457600080fd5b506102af60048036038101906102aa9190612ca0565b6108b0565b005b3480156102bd57600080fd5b506102c6610951565b005b3480156102d457600080fd5b506102dd61095b565b005b3480156102eb57600080fd5b5061030660048036038101906103019190612e32565b61096d565b6040516103139190612f68565b60405180910390f35b34801561032857600080fd5b50610343600480360381019061033e9190612ad4565b610a86565b604051610350919061281a565b60405180910390f35b34801561036557600080fd5b5061036e610a9a565b60405161037b919061281a565b60405180910390f35b34801561039057600080fd5b506103ab60048036038101906103a69190612ad4565b610ab1565b005b3480156103b957600080fd5b506103d460048036038101906103cf9190612f8a565b610ac3565b005b3480156103e257600080fd5b506103eb610b60565b005b3480156103f957600080fd5b50610402610b74565b005b34801561041057600080fd5b50610419610b86565b6040516104269190613024565b60405180910390f35b34801561043b57600080fd5b506104566004803603810190610451919061306b565b610bb0565b005b34801561046457600080fd5b5061047f600480360381019061047a9190612ad4565b610bc6565b60405161048c919061275f565b60405180910390f35b3480156104a157600080fd5b506104aa610be3565b6040516104b7919061275f565b60405180910390f35b3480156104cc57600080fd5b506104e760048036038101906104e291906130ab565b610be9565b6040516104f4919061281a565b60405180910390f35b34801561050957600080fd5b50610524600480360381019061051f91906130eb565b610c7d565b005b34801561053257600080fd5b5061054d60048036038101906105489190612bab565b610d1e565b005b34801561055b57600080fd5b5061057660048036038101906105719190613182565b610da2565b005b60008073ffffffffffffffffffffffffffffffffffffffff168373ffffffffffffffffffffffffffffffffffffffff1614156105e9576040517f08c379a00000000000000000000000000000000000000000000000000000000081526004016105e090613247565b60405180910390fd5b60008083815260200190815260200160002060008473ffffffffffffffffffffffffffffffffffffffff1673ffffffffffffffffffffffffffffffffffffffff16815260200190815260200160002054905092915050565b60007fd9b67a26000000000000000000000000000000000000000000000000000000007bffffffffffffffffffffffffffffffffffffffffffffffffffffffff1916827bffffffffffffffffffffffffffffffffffffffffffffffffffffffff1916148061070c57507f0e89341c000000000000000000000000000000000000000000000000000000007bffffffffffffffffffffffffffffffffffffffffffffffffffffffff1916827bffffffffffffffffffffffffffffffffffffffffffffffffffffffff1916145b8061071c575061071b82610e3f565b5b9050919050565b61072b610ea9565b61073481610f27565b50565b60055483108015610749575060003410155b801561079457506002600660003373ffffffffffffffffffffffffffffffffffffffff1673ffffffffffffffffffffffffffffffffffffffff16815260200190815260200160002054105b61079d57600080fd5b81600660003373ffffffffffffffffffffffffffffffffffffffff1673ffffffffffffffffffffffffffffffffffffffff16815260200190815260200160002060008282546107ec9190613296565b925050819055506107ff33848484610f41565b505050565b6060600280546108139061331b565b80601f016020809104026020016040519081016040528092919081815260200182805461083f9061331b565b801561088c5780601f106108615761010080835404028352916020019161088c565b820191906000526020600020905b81548152906001019060200180831161086f57829003601f168201915b50505050509050919050565b60066020528060005260406000206000915090505481565b6108b86110f2565b73ffffffffffffffffffffffffffffffffffffffff168573ffffffffffffffffffffffffffffffffffffffff1614806108fe57506108fd856108f86110f2565b610be9565b5b61093d576040517f08c379a0000000000000000000000000000000000000000000000000000000008152600401610934906133bf565b60405180910390fd5b61094a85858585856110fa565b5050505050565b610959610ea9565b565b610963610ea9565b61096b61141c565b565b606081518351146109b3576040517f08c379a00000000000000000000000000000000000000000000000000000000081526004016109aa90613451565b60405180910390fd5b6000835167ffffffffffffffff8111156109d0576109cf612850565b5b6040519080825280602002602001820160405280156109fe5781602001602082028036833780820191505090505b50905060005b8451811015610a7b57610a4b858281518110610a2357610a22613471565b5b6020026020010151858381518110610a3e57610a3d613471565b5b6020026020010151610578565b828281518110610a5e57610a5d613471565b5b60200260200101818152505080610a74906134a0565b9050610a04565b508091505092915050565b600080610a9283610bc6565b119050919050565b6000600360149054906101000a900460ff16905090565b610ab9610ea9565b8060058190555050565b610acb6110f2565b73ffffffffffffffffffffffffffffffffffffffff168373ffffffffffffffffffffffffffffffffffffffff161480610b115750610b1083610b0b6110f2565b610be9565b5b610b50576040517f08c379a0000000000000000000000000000000000000000000000000000000008152600401610b47906133bf565b60405180910390fd5b610b5b83838361147f565b505050565b610b68610ea9565b610b72600061174e565b565b610b7c610ea9565b610b84611814565b565b6000600360009054906101000a900473ffffffffffffffffffffffffffffffffffffffff16905090565b610bc2610bbb6110f2565b8383611877565b5050565b600060046000838152602001908152602001600020549050919050565b60055481565b6000600160008473ffffffffffffffffffffffffffffffffffffffff1673ffffffffffffffffffffffffffffffffffffffff16815260200190815260200160002060008373ffffffffffffffffffffffffffffffffffffffff1673ffffffffffffffffffffffffffffffffffffffff16815260200190815260200160002060009054906101000a900460ff16905092915050565b610c856110f2565b73ffffffffffffffffffffffffffffffffffffffff168573ffffffffffffffffffffffffffffffffffffffff161480610ccb5750610cca85610cc56110f2565b610be9565b5b610d0a576040517f08c379a0000000000000000000000000000000000000000000000000000000008152600401610d01906133bf565b60405180910390fd5b610d1785858585856119e4565b5050505050565b610d26610ea9565b600073ffffffffffffffffffffffffffffffffffffffff168173ffffffffffffffffffffffffffffffffffffffff161415610d96576040517f08c379a0000000000000000000000000000000000000000000000000000000008152600401610d8d9061355b565b60405180910390fd5b610d9f8161174e565b50565b610daa6110f2565b73ffffffffffffffffffffffffffffffffffffffff168373ffffffffffffffffffffffffffffffffffffffff161480610df05750610def83610dea6110f2565b610be9565b5b610e2f576040517f08c379a0000000000000000000000000000000000000000000000000000000008152600401610e26906133bf565b60405180910390fd5b610e3a838383611c80565b505050565b60007f01ffc9a7000000000000000000000000000000000000000000000000000000007bffffffffffffffffffffffffffffffffffffffffffffffffffffffff1916827bffffffffffffffffffffffffffffffffffffffffffffffffffffffff1916149050919050565b610eb16110f2565b73ffffffffffffffffffffffffffffffffffffffff16610ecf610b86565b73ffffffffffffffffffffffffffffffffffffffff1614610f25576040517f08c379a0000000000000000000000000000000000000000000000000000000008152600401610f1c906135c7565b60405180910390fd5b565b8060029080519060200190610f3d9291906125c5565b5050565b600073ffffffffffffffffffffffffffffffffffffffff168473ffffffffffffffffffffffffffffffffffffffff161415610fb1576040517f08c379a0000000000000000000000000000000000000000000000000000000008152600401610fa890613659565b60405180910390fd5b6000610fbb6110f2565b90506000610fc885611ec7565b90506000610fd585611ec7565b9050610fe683600089858589611f41565b8460008088815260200190815260200160002060008973ffffffffffffffffffffffffffffffffffffffff1673ffffffffffffffffffffffffffffffffffffffff16815260200190815260200160002060008282546110459190613296565b925050819055508673ffffffffffffffffffffffffffffffffffffffff16600073ffffffffffffffffffffffffffffffffffffffff168473ffffffffffffffffffffffffffffffffffffffff167fc3d58168c5ae7397731d063d5bbf3d657854427343f4c083240f7aacaa2d0f6289896040516110c3929190613679565b60405180910390a46110da83600089858589611f5f565b6110e983600089898989611f67565b50505050505050565b600033905090565b815183511461113e576040517f08c379a000000000000000000000000000000000000000000000000000000000815260040161113590613714565b60405180910390fd5b600073ffffffffffffffffffffffffffffffffffffffff168473ffffffffffffffffffffffffffffffffffffffff1614156111ae576040517f08c379a00000000000000000000000000000000000000000000000000000000081526004016111a5906137a6565b60405180910390fd5b60006111b86110f2565b90506111c8818787878787611f41565b60005b84518110156113795760008582815181106111e9576111e8613471565b5b60200260200101519050600085838151811061120857611207613471565b5b60200260200101519050600080600084815260200190815260200160002060008b73ffffffffffffffffffffffffffffffffffffffff1673ffffffffffffffffffffffffffffffffffffffff168152602001908152602001600020549050818110156112a9576040517f08c379a00000000000000000000000000000000000000000000000000000000081526004016112a090613838565b60405180910390fd5b81810360008085815260200190815260200160002060008c73ffffffffffffffffffffffffffffffffffffffff1673ffffffffffffffffffffffffffffffffffffffff168152602001908152602001600020819055508160008085815260200190815260200160002060008b73ffffffffffffffffffffffffffffffffffffffff1673ffffffffffffffffffffffffffffffffffffffff168152602001908152602001600020600082825461135e9190613296565b9250508190555050505080611372906134a0565b90506111cb565b508473ffffffffffffffffffffffffffffffffffffffff168673ffffffffffffffffffffffffffffffffffffffff168273ffffffffffffffffffffffffffffffffffffffff167f4a39dc06d4c0dbc64b70af90fd698a233a518aa5d07e595d983b8c0526c8f7fb87876040516113f0929190613858565b60405180910390a4611406818787878787611f5f565b61141481878787878761214e565b505050505050565b611424612335565b6000600360146101000a81548160ff0219169083151502179055507f5db9ee0a495bf2e6ff9c91a7834c1ba4fdd244a5e8aa4e537bd38aeae4b073aa6114686110f2565b6040516114759190613024565b60405180910390a1565b600073ffffffffffffffffffffffffffffffffffffffff168373ffffffffffffffffffffffffffffffffffffffff1614156114ef576040517f08c379a00000000000000000000000000000000000000000000000000000000081526004016114e690613901565b60405180910390fd5b8051825114611533576040517f08c379a000000000000000000000000000000000000000000000000000000000815260040161152a90613714565b60405180910390fd5b600061153d6110f2565b905061155d81856000868660405180602001604052806000815250611f41565b60005b83518110156116aa57600084828151811061157e5761157d613471565b5b60200260200101519050600084838151811061159d5761159c613471565b5b60200260200101519050600080600084815260200190815260200160002060008973ffffffffffffffffffffffffffffffffffffffff1673ffffffffffffffffffffffffffffffffffffffff1681526020019081526020016000205490508181101561163e576040517f08c379a000000000000000000000000000000000000000000000000000000000815260040161163590613993565b60405180910390fd5b81810360008085815260200190815260200160002060008a73ffffffffffffffffffffffffffffffffffffffff1673ffffffffffffffffffffffffffffffffffffffff1681526020019081526020016000208190555050505080806116a2906134a0565b915050611560565b50600073ffffffffffffffffffffffffffffffffffffffff168473ffffffffffffffffffffffffffffffffffffffff168273ffffffffffffffffffffffffffffffffffffffff167f4a39dc06d4c0dbc64b70af90fd698a233a518aa5d07e595d983b8c0526c8f7fb8686604051611722929190613858565b60405180910390a461174881856000868660405180602001604052806000815250611f5f565b50505050565b6000600360009054906101000a900473ffffffffffffffffffffffffffffffffffffffff16905081600360006101000a81548173ffffffffffffffffffffffffffffffffffffffff021916908373ffffffffffffffffffffffffffffffffffffffff1602179055508173ffffffffffffffffffffffffffffffffffffffff168173ffffffffffffffffffffffffffffffffffffffff167f8be0079c531659141344cd1fd0a4f28419497f9722a3daafe3b4186f6b6457e060405160405180910390a35050565b61181c61237e565b6001600360146101000a81548160ff0219169083151502179055507f62e78cea01bee320cd4e420270b5ea74000d11b0c9f74754ebdbfc544b05a2586118606110f2565b60405161186d9190613024565b60405180910390a1565b8173ffffffffffffffffffffffffffffffffffffffff168373ffffffffffffffffffffffffffffffffffffffff1614156118e6576040517f08c379a00000000000000000000000000000000000000000000000000000000081526004016118dd90613a25565b60405180910390fd5b80600160008573ffffffffffffffffffffffffffffffffffffffff1673ffffffffffffffffffffffffffffffffffffffff16815260200190815260200160002060008473ffffffffffffffffffffffffffffffffffffffff1673ffffffffffffffffffffffffffffffffffffffff16815260200190815260200160002060006101000a81548160ff0219169083151502179055508173ffffffffffffffffffffffffffffffffffffffff168373ffffffffffffffffffffffffffffffffffffffff167f17307eab39ab6107e8899845ad3d59bd9653f200f220920489ca2b5937696c31836040516119d7919061281a565b60405180910390a3505050565b600073ffffffffffffffffffffffffffffffffffffffff168473ffffffffffffffffffffffffffffffffffffffff161415611a54576040517f08c379a0000000000000000000000000000000000000000000000000000000008152600401611a4b906137a6565b60405180910390fd5b6000611a5e6110f2565b90506000611a6b85611ec7565b90506000611a7885611ec7565b9050611a88838989858589611f41565b600080600088815260200190815260200160002060008a73ffffffffffffffffffffffffffffffffffffffff1673ffffffffffffffffffffffffffffffffffffffff16815260200190815260200160002054905085811015611b1f576040517f08c379a0000000000000000000000000000000000000000000000000000000008152600401611b1690613838565b60405180910390fd5b85810360008089815260200190815260200160002060008b73ffffffffffffffffffffffffffffffffffffffff1673ffffffffffffffffffffffffffffffffffffffff168152602001908152602001600020819055508560008089815260200190815260200160002060008a73ffffffffffffffffffffffffffffffffffffffff1673ffffffffffffffffffffffffffffffffffffffff1681526020019081526020016000206000828254611bd49190613296565b925050819055508773ffffffffffffffffffffffffffffffffffffffff168973ffffffffffffffffffffffffffffffffffffffff168573ffffffffffffffffffffffffffffffffffffffff167fc3d58168c5ae7397731d063d5bbf3d657854427343f4c083240f7aacaa2d0f628a8a604051611c51929190613679565b60405180910390a4611c67848a8a86868a611f5f565b611c75848a8a8a8a8a611f67565b505050505050505050565b600073ffffffffffffffffffffffffffffffffffffffff168373ffffffffffffffffffffffffffffffffffffffff161415611cf0576040517f08c379a0000000000000000000000000000000000000000000000000000000008152600401611ce790613901565b60405180910390fd5b6000611cfa6110f2565b90506000611d0784611ec7565b90506000611d1484611ec7565b9050611d3483876000858560405180602001604052806000815250611f41565b600080600087815260200190815260200160002060008873ffffffffffffffffffffffffffffffffffffffff1673ffffffffffffffffffffffffffffffffffffffff16815260200190815260200160002054905084811015611dcb576040517f08c379a0000000000000000000000000000000000000000000000000000000008152600401611dc290613993565b60405180910390fd5b84810360008088815260200190815260200160002060008973ffffffffffffffffffffffffffffffffffffffff1673ffffffffffffffffffffffffffffffffffffffff16815260200190815260200160002081905550600073ffffffffffffffffffffffffffffffffffffffff168773ffffffffffffffffffffffffffffffffffffffff168573ffffffffffffffffffffffffffffffffffffffff167fc3d58168c5ae7397731d063d5bbf3d657854427343f4c083240f7aacaa2d0f628989604051611e98929190613679565b60405180910390a4611ebe84886000868660405180602001604052806000815250611f5f565b50505050505050565b60606000600167ffffffffffffffff811115611ee657611ee5612850565b5b604051908082528060200260200182016040528015611f145781602001602082028036833780820191505090505b5090508281600081518110611f2c57611f2b613471565b5b60200260200101818152505080915050919050565b611f4961237e565b611f578686868686866123c8565b505050505050565b505050505050565b611f868473ffffffffffffffffffffffffffffffffffffffff1661259a565b15612146578373ffffffffffffffffffffffffffffffffffffffff1663f23a6e6187878686866040518663ffffffff1660e01b8152600401611fcc959493929190613a9a565b602060405180830381600087803b158015611fe657600080fd5b505af192505050801561201757506040513d601f19601f820116820180604052508101906120149190613b09565b60015b6120bd57612023613b43565b806308c379a014156120805750612038613b65565b806120435750612082565b806040517f08c379a00000000000000000000000000000000000000000000000000000000081526004016120779190612b89565b60405180910390fd5b505b6040517f08c379a00000000000000000000000000000000000000000000000000000000081526004016120b490613c6d565b60405180910390fd5b63f23a6e6160e01b7bffffffffffffffffffffffffffffffffffffffffffffffffffffffff1916817bffffffffffffffffffffffffffffffffffffffffffffffffffffffff191614612144576040517f08c379a000000000000000000000000000000000000000000000000000000000815260040161213b90613cff565b60405180910390fd5b505b505050505050565b61216d8473ffffffffffffffffffffffffffffffffffffffff1661259a565b1561232d578373ffffffffffffffffffffffffffffffffffffffff1663bc197c8187878686866040518663ffffffff1660e01b81526004016121b3959493929190613d1f565b602060405180830381600087803b1580156121cd57600080fd5b505af19250505080156121fe57506040513d601f19601f820116820180604052508101906121fb9190613b09565b60015b6122a45761220a613b43565b806308c379a01415612267575061221f613b65565b8061222a5750612269565b806040517f08c379a000000000000000000000000000000000000000000000000000000000815260040161225e9190612b89565b60405180910390fd5b505b6040517f08c379a000000000000000000000000000000000000000000000000000000000815260040161229b90613c6d565b60405180910390fd5b63bc197c8160e01b7bffffffffffffffffffffffffffffffffffffffffffffffffffffffff1916817bffffffffffffffffffffffffffffffffffffffffffffffffffffffff19161461232b576040517f08c379a000000000000000000000000000000000000000000000000000000000815260040161232290613cff565b60405180910390fd5b505b505050505050565b61233d610a9a565b61237c576040517f08c379a000000000000000000000000000000000000000000000000000000000815260040161237390613dd3565b60405180910390fd5b565b612386610a9a565b156123c6576040517f08c379a00000000000000000000000000000000000000000000000000000000081526004016123bd90613e3f565b60405180910390fd5b565b6123d68686868686866125bd565b600073ffffffffffffffffffffffffffffffffffffffff168573ffffffffffffffffffffffffffffffffffffffff1614156124885760005b83518110156124865782818151811061242a57612429613471565b5b60200260200101516004600086848151811061244957612448613471565b5b60200260200101518152602001908152602001600020600082825461246e9190613296565b925050819055508061247f906134a0565b905061240e565b505b600073ffffffffffffffffffffffffffffffffffffffff168473ffffffffffffffffffffffffffffffffffffffff1614156125925760005b83518110156125905760008482815181106124de576124dd613471565b5b6020026020010151905060008483815181106124fd576124fc613471565b5b6020026020010151905060006004600084815260200190815260200160002054905081811015612562576040517f08c379a000000000000000000000000000000000000000000000000000000000815260040161255990613ed1565b60405180910390fd5b818103600460008581526020019081526020016000208190555050505080612589906134a0565b90506124c0565b505b505050505050565b6000808273ffffffffffffffffffffffffffffffffffffffff163b119050919050565b505050505050565b8280546125d19061331b565b90600052602060002090601f0160209004810192826125f3576000855561263a565b82601f1061260c57805160ff191683800117855561263a565b8280016001018555821561263a579182015b8281111561263957825182559160200191906001019061261e565b5b509050612647919061264b565b5090565b5b8082111561266457600081600090555060010161264c565b5090565b6000604051905090565b600080fd5b600080fd5b600073ffffffffffffffffffffffffffffffffffffffff82169050919050565b60006126a78261267c565b9050919050565b6126b78161269c565b81146126c257600080fd5b50565b6000813590506126d4816126ae565b92915050565b6000819050919050565b6126ed816126da565b81146126f857600080fd5b50565b60008135905061270a816126e4565b92915050565b6000806040838503121561272757612726612672565b5b6000612735858286016126c5565b9250506020612746858286016126fb565b9150509250929050565b612759816126da565b82525050565b60006020820190506127746000830184612750565b92915050565b60007fffffffff0000000000000000000000000000000000000000000000000000000082169050919050565b6127af8161277a565b81146127ba57600080fd5b50565b6000813590506127cc816127a6565b92915050565b6000602082840312156127e8576127e7612672565b5b60006127f6848285016127bd565b91505092915050565b60008115159050919050565b612814816127ff565b82525050565b600060208201905061282f600083018461280b565b92915050565b600080fd5b600080fd5b6000601f19601f8301169050919050565b7f4e487b7100000000000000000000000000000000000000000000000000000000600052604160045260246000fd5b6128888261283f565b810181811067ffffffffffffffff821117156128a7576128a6612850565b5b80604052505050565b60006128ba612668565b90506128c6828261287f565b919050565b600067ffffffffffffffff8211156128e6576128e5612850565b5b6128ef8261283f565b9050602081019050919050565b82818337600083830152505050565b600061291e612919846128cb565b6128b0565b90508281526020810184848401111561293a5761293961283a565b5b6129458482856128fc565b509392505050565b600082601f83011261296257612961612835565b5b813561297284826020860161290b565b91505092915050565b60006020828403121561299157612990612672565b5b600082013567ffffffffffffffff8111156129af576129ae612677565b5b6129bb8482850161294d565b91505092915050565b600067ffffffffffffffff8211156129df576129de612850565b5b6129e88261283f565b9050602081019050919050565b6000612a08612a03846129c4565b6128b0565b905082815260208101848484011115612a2457612a2361283a565b5b612a2f8482856128fc565b509392505050565b600082601f830112612a4c57612a4b612835565b5b8135612a5c8482602086016129f5565b91505092915050565b600080600060608486031215612a7e57612a7d612672565b5b6000612a8c868287016126fb565b9350506020612a9d868287016126fb565b925050604084013567ffffffffffffffff811115612abe57612abd612677565b5b612aca86828701612a37565b9150509250925092565b600060208284031215612aea57612ae9612672565b5b6000612af8848285016126fb565b91505092915050565b600081519050919050565b600082825260208201905092915050565b60005b83811015612b3b578082015181840152602081019050612b20565b83811115612b4a576000848401525b50505050565b6000612b5b82612b01565b612b658185612b0c565b9350612b75818560208601612b1d565b612b7e8161283f565b840191505092915050565b60006020820190508181036000830152612ba38184612b50565b905092915050565b600060208284031215612bc157612bc0612672565b5b6000612bcf848285016126c5565b91505092915050565b600067ffffffffffffffff821115612bf357612bf2612850565b5b602082029050602081019050919050565b600080fd5b6000612c1c612c1784612bd8565b6128b0565b90508083825260208201905060208402830185811115612c3f57612c3e612c04565b5b835b81811015612c685780612c5488826126fb565b845260208401935050602081019050612c41565b5050509392505050565b600082601f830112612c8757612c86612835565b5b8135612c97848260208601612c09565b91505092915050565b600080600080600060a08688031215612cbc57612cbb612672565b5b6000612cca888289016126c5565b9550506020612cdb888289016126c5565b945050604086013567ffffffffffffffff811115612cfc57612cfb612677565b5b612d0888828901612c72565b935050606086013567ffffffffffffffff811115612d2957612d28612677565b5b612d3588828901612c72565b925050608086013567ffffffffffffffff811115612d5657612d55612677565b5b612d6288828901612a37565b9150509295509295909350565b600067ffffffffffffffff821115612d8a57612d89612850565b5b602082029050602081019050919050565b6000612dae612da984612d6f565b6128b0565b90508083825260208201905060208402830185811115612dd157612dd0612c04565b5b835b81811015612dfa5780612de688826126c5565b845260208401935050602081019050612dd3565b5050509392505050565b600082601f830112612e1957612e18612835565b5b8135612e29848260208601612d9b565b91505092915050565b60008060408385031215612e4957612e48612672565b5b600083013567ffffffffffffffff811115612e6757612e66612677565b5b612e7385828601612e04565b925050602083013567ffffffffffffffff811115612e9457612e93612677565b5b612ea085828601612c72565b9150509250929050565b600081519050919050565b600082825260208201905092915050565b6000819050602082019050919050565b612edf816126da565b82525050565b6000612ef18383612ed6565b60208301905092915050565b6000602082019050919050565b6000612f1582612eaa565b612f1f8185612eb5565b9350612f2a83612ec6565b8060005b83811015612f5b578151612f428882612ee5565b9750612f4d83612efd565b925050600181019050612f2e565b5085935050505092915050565b60006020820190508181036000830152612f828184612f0a565b905092915050565b600080600060608486031215612fa357612fa2612672565b5b6000612fb1868287016126c5565b935050602084013567ffffffffffffffff811115612fd257612fd1612677565b5b612fde86828701612c72565b925050604084013567ffffffffffffffff811115612fff57612ffe612677565b5b61300b86828701612c72565b9150509250925092565b61301e8161269c565b82525050565b60006020820190506130396000830184613015565b92915050565b613048816127ff565b811461305357600080fd5b50565b6000813590506130658161303f565b92915050565b6000806040838503121561308257613081612672565b5b6000613090858286016126c5565b92505060206130a185828601613056565b9150509250929050565b600080604083850312156130c2576130c1612672565b5b60006130d0858286016126c5565b92505060206130e1858286016126c5565b9150509250929050565b600080600080600060a0868803121561310757613106612672565b5b6000613115888289016126c5565b9550506020613126888289016126c5565b9450506040613137888289016126fb565b9350506060613148888289016126fb565b925050608086013567ffffffffffffffff81111561316957613168612677565b5b61317588828901612a37565b9150509295509295909350565b60008060006060848603121561319b5761319a612672565b5b60006131a9868287016126c5565b93505060206131ba868287016126fb565b92505060406131cb868287016126fb565b9150509250925092565b7f455243313135353a2061646472657373207a65726f206973206e6f742061207660008201527f616c6964206f776e657200000000000000000000000000000000000000000000602082015250565b6000613231602a83612b0c565b915061323c826131d5565b604082019050919050565b6000602082019050818103600083015261326081613224565b9050919050565b7f4e487b7100000000000000000000000000000000000000000000000000000000600052601160045260246000fd5b60006132a1826126da565b91506132ac836126da565b9250827fffffffffffffffffffffffffffffffffffffffffffffffffffffffffffffffff038211156132e1576132e0613267565b5b828201905092915050565b7f4e487b7100000000000000000000000000000000000000000000000000000000600052602260045260246000fd5b6000600282049050600182168061333357607f821691505b60208210811415613347576133466132ec565b5b50919050565b7f455243313135353a2063616c6c6572206973206e6f7420746f6b656e206f776e60008201527f6572206f7220617070726f766564000000000000000000000000000000000000602082015250565b60006133a9602e83612b0c565b91506133b48261334d565b604082019050919050565b600060208201905081810360008301526133d88161339c565b9050919050565b7f455243313135353a206163636f756e747320616e6420696473206c656e67746860008201527f206d69736d617463680000000000000000000000000000000000000000000000602082015250565b600061343b602983612b0c565b9150613446826133df565b604082019050919050565b6000602082019050818103600083015261346a8161342e565b9050919050565b7f4e487b7100000000000000000000000000000000000000000000000000000000600052603260045260246000fd5b60006134ab826126da565b91507fffffffffffffffffffffffffffffffffffffffffffffffffffffffffffffffff8214156134de576134dd613267565b5b600182019050919050565b7f4f776e61626c653a206e6577206f776e657220697320746865207a65726f206160008201527f6464726573730000000000000000000000000000000000000000000000000000602082015250565b6000613545602683612b0c565b9150613550826134e9565b604082019050919050565b6000602082019050818103600083015261357481613538565b9050919050565b7f4f776e61626c653a2063616c6c6572206973206e6f7420746865206f776e6572600082015250565b60006135b1602083612b0c565b91506135bc8261357b565b602082019050919050565b600060208201905081810360008301526135e0816135a4565b9050919050565b7f455243313135353a206d696e7420746f20746865207a65726f2061646472657360008201527f7300000000000000000000000000000000000000000000000000000000000000602082015250565b6000613643602183612b0c565b915061364e826135e7565b604082019050919050565b6000602082019050818103600083015261367281613636565b9050919050565b600060408201905061368e6000830185612750565b61369b6020830184612750565b9392505050565b7f455243313135353a2069647320616e6420616d6f756e7473206c656e6774682060008201527f6d69736d61746368000000000000000000000000000000000000000000000000602082015250565b60006136fe602883612b0c565b9150613709826136a2565b604082019050919050565b6000602082019050818103600083015261372d816136f1565b9050919050565b7f455243313135353a207472616e7366657220746f20746865207a65726f20616460008201527f6472657373000000000000000000000000000000000000000000000000000000602082015250565b6000613790602583612b0c565b915061379b82613734565b604082019050919050565b600060208201905081810360008301526137bf81613783565b9050919050565b7f455243313135353a20696e73756666696369656e742062616c616e636520666f60008201527f72207472616e7366657200000000000000000000000000000000000000000000602082015250565b6000613822602a83612b0c565b915061382d826137c6565b604082019050919050565b6000602082019050818103600083015261385181613815565b9050919050565b600060408201905081810360008301526138728185612f0a565b905081810360208301526138868184612f0a565b90509392505050565b7f455243313135353a206275726e2066726f6d20746865207a65726f206164647260008201527f6573730000000000000000000000000000000000000000000000000000000000602082015250565b60006138eb602383612b0c565b91506138f68261388f565b604082019050919050565b6000602082019050818103600083015261391a816138de565b9050919050565b7f455243313135353a206275726e20616d6f756e7420657863656564732062616c60008201527f616e636500000000000000000000000000000000000000000000000000000000602082015250565b600061397d602483612b0c565b915061398882613921565b604082019050919050565b600060208201905081810360008301526139ac81613970565b9050919050565b7f455243313135353a2073657474696e6720617070726f76616c2073746174757360008201527f20666f722073656c660000000000000000000000000000000000000000000000602082015250565b6000613a0f602983612b0c565b9150613a1a826139b3565b604082019050919050565b60006020820190508181036000830152613a3e81613a02565b9050919050565b600081519050919050565b600082825260208201905092915050565b6000613a6c82613a45565b613a768185613a50565b9350613a86818560208601612b1d565b613a8f8161283f565b840191505092915050565b600060a082019050613aaf6000830188613015565b613abc6020830187613015565b613ac96040830186612750565b613ad66060830185612750565b8181036080830152613ae88184613a61565b90509695505050505050565b600081519050613b03816127a6565b92915050565b600060208284031215613b1f57613b1e612672565b5b6000613b2d84828501613af4565b91505092915050565b60008160e01c9050919050565b600060033d1115613b625760046000803e613b5f600051613b36565b90505b90565b600060443d1015613b7557613bf8565b613b7d612668565b60043d036004823e80513d602482011167ffffffffffffffff82111715613ba5575050613bf8565b808201805167ffffffffffffffff811115613bc35750505050613bf8565b80602083010160043d038501811115613be0575050505050613bf8565b613bef8260200185018661287f565b82955050505050505b90565b7f455243313135353a207472616e7366657220746f206e6f6e2d4552433131353560008201527f526563656976657220696d706c656d656e746572000000000000000000000000602082015250565b6000613c57603483612b0c565b9150613c6282613bfb565b604082019050919050565b60006020820190508181036000830152613c8681613c4a565b9050919050565b7f455243313135353a204552433131353552656365697665722072656a6563746560008201527f6420746f6b656e73000000000000000000000000000000000000000000000000602082015250565b6000613ce9602883612b0c565b9150613cf482613c8d565b604082019050919050565b60006020820190508181036000830152613d1881613cdc565b9050919050565b600060a082019050613d346000830188613015565b613d416020830187613015565b8181036040830152613d538186612f0a565b90508181036060830152613d678185612f0a565b90508181036080830152613d7b8184613a61565b90509695505050505050565b7f5061757361626c653a206e6f7420706175736564000000000000000000000000600082015250565b6000613dbd601483612b0c565b9150613dc882613d87565b602082019050919050565b60006020820190508181036000830152613dec81613db0565b9050919050565b7f5061757361626c653a2070617573656400000000000000000000000000000000600082015250565b6000613e29601083612b0c565b9150613e3482613df3565b602082019050919050565b60006020820190508181036000830152613e5881613e1c565b9050919050565b7f455243313135353a206275726e20616d6f756e74206578636565647320746f7460008201527f616c537570706c79000000000000000000000000000000000000000000000000602082015250565b6000613ebb602883612b0c565b9150613ec682613e5f565b604082019050919050565b60006020820190508181036000830152613eea81613eae565b905091905056fea2646970667358221220ea3111977eed4167d2785018960744618d3448a1d324345b86c86912a5c3549264736f6c63430008090033516d56547859325874334b6a6e72766f444373587065783168446650784561705747446371686e53314a536a3832",
  "linkReferences": {},
  "deployedLinkReferences": {}
}