{
  "_format": "hh-sol-artifact-1",
  "contractName": "AndyChill",
  "sourceName": "contracts/AndyChill.sol",
  "abi": [
    {
      "inputs": [],
      "stateMutability": "nonpayable",
      "type": "constructor"
    },
    {
      "anonymous": false,
      "inputs": [
        {
          "indexed": true,
          "internalType": "address",
          "name": "account",
          "type": "address"
        },
        {
          "indexed": true,
          "internalType": "address",
          "name": "operator",
          "type": "address"
        },
        {
          "indexed": false,
          "internalType": "bool",
          "name": "approved",
          "type": "bool"
        }
      ],
      "name": "ApprovalForAll",
      "type": "event"
    },
    {
      "anonymous": false,
      "inputs": [
        {
          "indexed": false,
          "internalType": "address",
          "name": "_reciver",
          "type": "address"
        },
        {
          "indexed": false,
          "internalType": "uint256",
          "name": "_amounts",
          "type": "uint256"
        }
      ],
      "name": "MintComplete",
      "type": "event"
    },
    {
      "anonymous": false,
      "inputs": [
        {
          "indexed": true,
          "internalType": "address",
          "name": "previousOwner",
          "type": "address"
        },
        {
          "indexed": true,
          "internalType": "address",
          "name": "newOwner",
          "type": "address"
        }
      ],
      "name": "OwnershipTransferred",
      "type": "event"
    },
    {
      "anonymous": false,
      "inputs": [
        {
          "indexed": true,
          "internalType": "address",
          "name": "operator",
          "type": "address"
        },
        {
          "indexed": true,
          "internalType": "address",
          "name": "from",
          "type": "address"
        },
        {
          "indexed": true,
          "internalType": "address",
          "name": "to",
          "type": "address"
        },
        {
          "indexed": false,
          "internalType": "uint256[]",
          "name": "ids",
          "type": "uint256[]"
        },
        {
          "indexed": false,
          "internalType": "uint256[]",
          "name": "values",
          "type": "uint256[]"
        }
      ],
      "name": "TransferBatch",
      "type": "event"
    },
    {
      "anonymous": false,
      "inputs": [
        {
          "indexed": true,
          "internalType": "address",
          "name": "operator",
          "type": "address"
        },
        {
          "indexed": true,
          "internalType": "address",
          "name": "from",
          "type": "address"
        },
        {
          "indexed": true,
          "internalType": "address",
          "name": "to",
          "type": "address"
        },
        {
          "indexed": false,
          "internalType": "uint256",
          "name": "id",
          "type": "uint256"
        },
        {
          "indexed": false,
          "internalType": "uint256",
          "name": "value",
          "type": "uint256"
        }
      ],
      "name": "TransferSingle",
      "type": "event"
    },
    {
      "anonymous": false,
      "inputs": [
        {
          "indexed": false,
          "internalType": "string",
          "name": "value",
          "type": "string"
        },
        {
          "indexed": true,
          "internalType": "uint256",
          "name": "id",
          "type": "uint256"
        }
      ],
      "name": "URI",
      "type": "event"
    },
    {
      "inputs": [
        {
          "internalType": "address",
          "name": "account",
          "type": "address"
        },
        {
          "internalType": "uint256",
          "name": "id",
          "type": "uint256"
        }
      ],
      "name": "balanceOf",
      "outputs": [
        {
          "internalType": "uint256",
          "name": "",
          "type": "uint256"
        }
      ],
      "stateMutability": "view",
      "type": "function"
    },
    {
      "inputs": [
        {
          "internalType": "address[]",
          "name": "accounts",
          "type": "address[]"
        },
        {
          "internalType": "uint256[]",
          "name": "ids",
          "type": "uint256[]"
        }
      ],
      "name": "balanceOfBatch",
      "outputs": [
        {
          "internalType": "uint256[]",
          "name": "",
          "type": "uint256[]"
        }
      ],
      "stateMutability": "view",
      "type": "function"
    },
    {
      "inputs": [
        {
          "internalType": "address",
          "name": "",
          "type": "address"
        }
      ],
      "name": "balances",
      "outputs": [
        {
          "internalType": "uint256",
          "name": "",
          "type": "uint256"
        }
      ],
      "stateMutability": "view",
      "type": "function"
    },
    {
      "inputs": [
        {
          "internalType": "address",
          "name": "account",
          "type": "address"
        },
        {
          "internalType": "uint256",
          "name": "id",
          "type": "uint256"
        },
        {
          "internalType": "uint256",
          "name": "value",
          "type": "uint256"
        }
      ],
      "name": "burn",
      "outputs": [],
      "stateMutability": "nonpayable",
      "type": "function"
    },
    {
      "inputs": [
        {
          "internalType": "address",
          "name": "account",
          "type": "address"
        },
        {
          "internalType": "uint256[]",
          "name": "ids",
          "type": "uint256[]"
        },
        {
          "internalType": "uint256[]",
          "name": "values",
          "type": "uint256[]"
        }
      ],
      "name": "burnBatch",
      "outputs": [],
      "stateMutability": "nonpayable",
      "type": "function"
    },
    {
      "inputs": [
        {
          "internalType": "uint256",
          "name": "id",
          "type": "uint256"
        }
      ],
      "name": "exists",
      "outputs": [
        {
          "internalType": "bool",
          "name": "",
          "type": "bool"
        }
      ],
      "stateMutability": "view",
      "type": "function"
    },
    {
      "inputs": [
        {
          "internalType": "address",
          "name": "account",
          "type": "address"
        },
        {
          "internalType": "address",
          "name": "operator",
          "type": "address"
        }
      ],
      "name": "isApprovedForAll",
      "outputs": [
        {
          "internalType": "bool",
          "name": "",
          "type": "bool"
        }
      ],
      "stateMutability": "view",
      "type": "function"
    },
    {
      "inputs": [
        {
          "internalType": "uint256",
          "name": "_id",
          "type": "uint256"
        },
        {
          "internalType": "uint256",
          "name": "_amount",
          "type": "uint256"
        }
      ],
      "name": "mint",
      "outputs": [],
      "stateMutability": "nonpayable",
      "type": "function"
    },
    {
      "inputs": [],
      "name": "name",
      "outputs": [
        {
          "internalType": "string",
          "name": "",
          "type": "string"
        }
      ],
      "stateMutability": "view",
      "type": "function"
    },
    {
      "inputs": [],
      "name": "owner",
      "outputs": [
        {
          "internalType": "address",
          "name": "",
          "type": "address"
        }
      ],
      "stateMutability": "view",
      "type": "function"
    },
    {
      "inputs": [],
      "name": "renounceOwnership",
      "outputs": [],
      "stateMutability": "nonpayable",
      "type": "function"
    },
    {
      "inputs": [
        {
          "internalType": "address",
          "name": "from",
          "type": "address"
        },
        {
          "internalType": "address",
          "name": "to",
          "type": "address"
        },
        {
          "internalType": "uint256[]",
          "name": "ids",
          "type": "uint256[]"
        },
        {
          "internalType": "uint256[]",
          "name": "amounts",
          "type": "uint256[]"
        },
        {
          "internalType": "bytes",
          "name": "data",
          "type": "bytes"
        }
      ],
      "name": "safeBatchTransferFrom",
      "outputs": [],
      "stateMutability": "nonpayable",
      "type": "function"
    },
    {
      "inputs": [
        {
          "internalType": "address",
          "name": "from",
          "type": "address"
        },
        {
          "internalType": "address",
          "name": "to",
          "type": "address"
        },
        {
          "internalType": "uint256",
          "name": "id",
          "type": "uint256"
        },
        {
          "internalType": "uint256",
          "name": "amount",
          "type": "uint256"
        },
        {
          "internalType": "bytes",
          "name": "data",
          "type": "bytes"
        }
      ],
      "name": "safeTransferFrom",
      "outputs": [],
      "stateMutability": "nonpayable",
      "type": "function"
    },
    {
      "inputs": [
        {
          "internalType": "address",
          "name": "operator",
          "type": "address"
        },
        {
          "internalType": "bool",
          "name": "approved",
          "type": "bool"
        }
      ],
      "name": "setApprovalForAll",
      "outputs": [],
      "stateMutability": "nonpayable",
      "type": "function"
    },
    {
      "inputs": [
        {
          "internalType": "string",
          "name": "_newuri",
          "type": "string"
        }
      ],
      "name": "setURI",
      "outputs": [],
      "stateMutability": "nonpayable",
      "type": "function"
    },
    {
      "inputs": [
        {
          "internalType": "bytes4",
          "name": "interfaceId",
          "type": "bytes4"
        }
      ],
      "name": "supportsInterface",
      "outputs": [
        {
          "internalType": "bool",
          "name": "",
          "type": "bool"
        }
      ],
      "stateMutability": "view",
      "type": "function"
    },
    {
      "inputs": [],
      "name": "symbol",
      "outputs": [
        {
          "internalType": "string",
          "name": "",
          "type": "string"
        }
      ],
      "stateMutability": "view",
      "type": "function"
    },
    {
      "inputs": [],
      "name": "tokenID",
      "outputs": [
        {
          "internalType": "uint256",
          "name": "",
          "type": "uint256"
        }
      ],
      "stateMutability": "view",
      "type": "function"
    },
    {
      "inputs": [
        {
          "internalType": "uint256",
          "name": "id",
          "type": "uint256"
        }
      ],
      "name": "totalSupply",
      "outputs": [
        {
          "internalType": "uint256",
          "name": "",
          "type": "uint256"
        }
      ],
      "stateMutability": "view",
      "type": "function"
    },
    {
      "inputs": [
        {
          "internalType": "address",
          "name": "newOwner",
          "type": "address"
        }
      ],
      "name": "transferOwnership",
      "outputs": [],
      "stateMutability": "nonpayable",
      "type": "function"
    },
    {
      "inputs": [
        {
          "internalType": "uint256",
          "name": "",
          "type": "uint256"
        }
      ],
      "name": "uri",
      "outputs": [
        {
          "internalType": "string",
          "name": "",
          "type": "string"
        }
      ],
      "stateMutability": "view",
      "type": "function"
    }
  ],
  "bytecode": "0x608060405260006005556040518060400160405280600a81526020017f416e6479204368696c6c000000000000000000000000000000000000000000008152506007908051906020019062000056929190620001ef565b506040518060400160405280600581526020017f4368696c6c00000000000000000000000000000000000000000000000000000081525060089080519060200190620000a4929190620001ef565b50348015620000b257600080fd5b5060405180608001604052806050815260200162003f4760509139620000de816200010560201b60201c565b50620000ff620000f36200012160201b60201c565b6200012960201b60201c565b62000304565b80600290805190602001906200011d929190620001ef565b5050565b600033905090565b6000600360009054906101000a900473ffffffffffffffffffffffffffffffffffffffff16905081600360006101000a81548173ffffffffffffffffffffffffffffffffffffffff021916908373ffffffffffffffffffffffffffffffffffffffff1602179055508173ffffffffffffffffffffffffffffffffffffffff168173ffffffffffffffffffffffffffffffffffffffff167f8be0079c531659141344cd1fd0a4f28419497f9722a3daafe3b4186f6b6457e060405160405180910390a35050565b828054620001fd90620002ce565b90600052602060002090601f0160209004810192826200022157600085556200026d565b82601f106200023c57805160ff19168380011785556200026d565b828001600101855582156200026d579182015b828111156200026c5782518255916020019190600101906200024f565b5b5090506200027c919062000280565b5090565b5b808211156200029b57600081600090555060010162000281565b5090565b7f4e487b7100000000000000000000000000000000000000000000000000000000600052602260045260246000fd5b60006002820490506001821680620002e757607f821691505b60208210811415620002fe57620002fd6200029f565b5b50919050565b613c3380620003146000396000f3fe608060405234801561001057600080fd5b50600436106101365760003560e01c80636b20c454116100b8578063a5c42ef11161007c578063a5c42ef11461034b578063bd85b03914610369578063e985e9c514610399578063f242432a146103c9578063f2fde38b146103e5578063f5298aca1461040157610136565b80636b20c454146102cd578063715018a6146102e95780638da5cb5b146102f357806395d89b4114610311578063a22cb4651461032f57610136565b80631b2ef1ca116100ff5780631b2ef1ca1461020557806327e235e3146102215780632eb2c2d6146102515780634e1273f41461026d5780634f558e791461029d57610136565b8062fdd58e1461013b57806301ffc9a71461016b57806302fe53051461019b57806306fdde03146101b75780630e89341c146101d5575b600080fd5b610155600480360381019061015091906124fa565b61041d565b6040516101629190612549565b60405180910390f35b610185600480360381019061018091906125bc565b6104e6565b6040516101929190612604565b60405180910390f35b6101b560048036038101906101b09190612765565b6105c8565b005b6101bf6105dc565b6040516101cc9190612836565b60405180910390f35b6101ef60048036038101906101ea9190612858565b61066a565b6040516101fc9190612836565b60405180910390f35b61021f600480360381019061021a9190612885565b6106fe565b005b61023b600480360381019061023691906128c5565b6107ac565b6040516102489190612549565b60405180910390f35b61026b60048036038101906102669190612a5b565b6107c4565b005b61028760048036038101906102829190612bed565b610865565b6040516102949190612d23565b60405180910390f35b6102b760048036038101906102b29190612858565b61097e565b6040516102c49190612604565b60405180910390f35b6102e760048036038101906102e29190612d45565b610992565b005b6102f1610a2f565b005b6102fb610a43565b6040516103089190612ddf565b60405180910390f35b610319610a6d565b6040516103269190612836565b60405180910390f35b61034960048036038101906103449190612e26565b610afb565b005b610353610b11565b6040516103609190612549565b60405180910390f35b610383600480360381019061037e9190612858565b610b17565b6040516103909190612549565b60405180910390f35b6103b360048036038101906103ae9190612e66565b610b34565b6040516103c09190612604565b60405180910390f35b6103e360048036038101906103de9190612ea6565b610bc8565b005b6103ff60048036038101906103fa91906128c5565b610c69565b005b61041b60048036038101906104169190612f3d565b610ced565b005b60008073ffffffffffffffffffffffffffffffffffffffff168373ffffffffffffffffffffffffffffffffffffffff16141561048e576040517f08c379a000000000000000000000000000000000000000000000000000000000815260040161048590613002565b60405180910390fd5b60008083815260200190815260200160002060008473ffffffffffffffffffffffffffffffffffffffff1673ffffffffffffffffffffffffffffffffffffffff16815260200190815260200160002054905092915050565b60007fd9b67a26000000000000000000000000000000000000000000000000000000007bffffffffffffffffffffffffffffffffffffffffffffffffffffffff1916827bffffffffffffffffffffffffffffffffffffffffffffffffffffffff191614806105b157507f0e89341c000000000000000000000000000000000000000000000000000000007bffffffffffffffffffffffffffffffffffffffffffffffffffffffff1916827bffffffffffffffffffffffffffffffffffffffffffffffffffffffff1916145b806105c157506105c082610d8a565b5b9050919050565b6105d0610df4565b6105d981610e72565b50565b600780546105e990613051565b80601f016020809104026020016040519081016040528092919081815260200182805461061590613051565b80156106625780601f1061063757610100808354040283529160200191610662565b820191906000526020600020905b81548152906001019060200180831161064557829003601f168201915b505050505081565b60606002805461067990613051565b80601f01602080910402602001604051908101604052809291908181526020018280546106a590613051565b80156106f25780601f106106c7576101008083540402835291602001916106f2565b820191906000526020600020905b8154815290600101906020018083116106d557829003601f168201915b50505050509050919050565b80600660003373ffffffffffffffffffffffffffffffffffffffff1673ffffffffffffffffffffffffffffffffffffffff168152602001908152602001600020600082825461074d91906130b2565b9250508190555061076f33838360405180602001604052806000815250610e8c565b7fd2c37266a89416ebf9f94f9664a865774a6f20d0133db56f05e857348dd44ed533826040516107a0929190613108565b60405180910390a15050565b60066020528060005260406000206000915090505481565b6107cc61103d565b73ffffffffffffffffffffffffffffffffffffffff168573ffffffffffffffffffffffffffffffffffffffff16148061081257506108118561080c61103d565b610b34565b5b610851576040517f08c379a0000000000000000000000000000000000000000000000000000000008152600401610848906131a3565b60405180910390fd5b61085e8585858585611045565b5050505050565b606081518351146108ab576040517f08c379a00000000000000000000000000000000000000000000000000000000081526004016108a290613235565b60405180910390fd5b6000835167ffffffffffffffff8111156108c8576108c761263a565b5b6040519080825280602002602001820160405280156108f65781602001602082028036833780820191505090505b50905060005b84518110156109735761094385828151811061091b5761091a613255565b5b602002602001015185838151811061093657610935613255565b5b602002602001015161041d565b82828151811061095657610955613255565b5b6020026020010181815250508061096c90613284565b90506108fc565b508091505092915050565b60008061098a83610b17565b119050919050565b61099a61103d565b73ffffffffffffffffffffffffffffffffffffffff168373ffffffffffffffffffffffffffffffffffffffff1614806109e057506109df836109da61103d565b610b34565b5b610a1f576040517f08c379a0000000000000000000000000000000000000000000000000000000008152600401610a16906131a3565b60405180910390fd5b610a2a838383611367565b505050565b610a37610df4565b610a416000611636565b565b6000600360009054906101000a900473ffffffffffffffffffffffffffffffffffffffff16905090565b60088054610a7a90613051565b80601f0160208091040260200160405190810160405280929190818152602001828054610aa690613051565b8015610af35780601f10610ac857610100808354040283529160200191610af3565b820191906000526020600020905b815481529060010190602001808311610ad657829003601f168201915b505050505081565b610b0d610b0661103d565b83836116fc565b5050565b60055481565b600060046000838152602001908152602001600020549050919050565b6000600160008473ffffffffffffffffffffffffffffffffffffffff1673ffffffffffffffffffffffffffffffffffffffff16815260200190815260200160002060008373ffffffffffffffffffffffffffffffffffffffff1673ffffffffffffffffffffffffffffffffffffffff16815260200190815260200160002060009054906101000a900460ff16905092915050565b610bd061103d565b73ffffffffffffffffffffffffffffffffffffffff168573ffffffffffffffffffffffffffffffffffffffff161480610c165750610c1585610c1061103d565b610b34565b5b610c55576040517f08c379a0000000000000000000000000000000000000000000000000000000008152600401610c4c906131a3565b60405180910390fd5b610c628585858585611869565b5050505050565b610c71610df4565b600073ffffffffffffffffffffffffffffffffffffffff168173ffffffffffffffffffffffffffffffffffffffff161415610ce1576040517f08c379a0000000000000000000000000000000000000000000000000000000008152600401610cd89061333f565b60405180910390fd5b610cea81611636565b50565b610cf561103d565b73ffffffffffffffffffffffffffffffffffffffff168373ffffffffffffffffffffffffffffffffffffffff161480610d3b5750610d3a83610d3561103d565b610b34565b5b610d7a576040517f08c379a0000000000000000000000000000000000000000000000000000000008152600401610d71906131a3565b60405180910390fd5b610d85838383611b05565b505050565b60007f01ffc9a7000000000000000000000000000000000000000000000000000000007bffffffffffffffffffffffffffffffffffffffffffffffffffffffff1916827bffffffffffffffffffffffffffffffffffffffffffffffffffffffff1916149050919050565b610dfc61103d565b73ffffffffffffffffffffffffffffffffffffffff16610e1a610a43565b73ffffffffffffffffffffffffffffffffffffffff1614610e70576040517f08c379a0000000000000000000000000000000000000000000000000000000008152600401610e67906133ab565b60405180910390fd5b565b8060029080519060200190610e889291906123af565b5050565b600073ffffffffffffffffffffffffffffffffffffffff168473ffffffffffffffffffffffffffffffffffffffff161415610efc576040517f08c379a0000000000000000000000000000000000000000000000000000000008152600401610ef39061343d565b60405180910390fd5b6000610f0661103d565b90506000610f1385611d4c565b90506000610f2085611d4c565b9050610f3183600089858589611dc6565b8460008088815260200190815260200160002060008973ffffffffffffffffffffffffffffffffffffffff1673ffffffffffffffffffffffffffffffffffffffff1681526020019081526020016000206000828254610f9091906130b2565b925050819055508673ffffffffffffffffffffffffffffffffffffffff16600073ffffffffffffffffffffffffffffffffffffffff168473ffffffffffffffffffffffffffffffffffffffff167fc3d58168c5ae7397731d063d5bbf3d657854427343f4c083240f7aacaa2d0f62898960405161100e92919061345d565b60405180910390a461102583600089858589611ddc565b61103483600089898989611de4565b50505050505050565b600033905090565b8151835114611089576040517f08c379a0000000000000000000000000000000000000000000000000000000008152600401611080906134f8565b60405180910390fd5b600073ffffffffffffffffffffffffffffffffffffffff168473ffffffffffffffffffffffffffffffffffffffff1614156110f9576040517f08c379a00000000000000000000000000000000000000000000000000000000081526004016110f09061358a565b60405180910390fd5b600061110361103d565b9050611113818787878787611dc6565b60005b84518110156112c457600085828151811061113457611133613255565b5b60200260200101519050600085838151811061115357611152613255565b5b60200260200101519050600080600084815260200190815260200160002060008b73ffffffffffffffffffffffffffffffffffffffff1673ffffffffffffffffffffffffffffffffffffffff168152602001908152602001600020549050818110156111f4576040517f08c379a00000000000000000000000000000000000000000000000000000000081526004016111eb9061361c565b60405180910390fd5b81810360008085815260200190815260200160002060008c73ffffffffffffffffffffffffffffffffffffffff1673ffffffffffffffffffffffffffffffffffffffff168152602001908152602001600020819055508160008085815260200190815260200160002060008b73ffffffffffffffffffffffffffffffffffffffff1673ffffffffffffffffffffffffffffffffffffffff16815260200190815260200160002060008282546112a991906130b2565b92505081905550505050806112bd90613284565b9050611116565b508473ffffffffffffffffffffffffffffffffffffffff168673ffffffffffffffffffffffffffffffffffffffff168273ffffffffffffffffffffffffffffffffffffffff167f4a39dc06d4c0dbc64b70af90fd698a233a518aa5d07e595d983b8c0526c8f7fb878760405161133b92919061363c565b60405180910390a4611351818787878787611ddc565b61135f818787878787611fcb565b505050505050565b600073ffffffffffffffffffffffffffffffffffffffff168373ffffffffffffffffffffffffffffffffffffffff1614156113d7576040517f08c379a00000000000000000000000000000000000000000000000000000000081526004016113ce906136e5565b60405180910390fd5b805182511461141b576040517f08c379a0000000000000000000000000000000000000000000000000000000008152600401611412906134f8565b60405180910390fd5b600061142561103d565b905061144581856000868660405180602001604052806000815250611dc6565b60005b835181101561159257600084828151811061146657611465613255565b5b60200260200101519050600084838151811061148557611484613255565b5b60200260200101519050600080600084815260200190815260200160002060008973ffffffffffffffffffffffffffffffffffffffff1673ffffffffffffffffffffffffffffffffffffffff16815260200190815260200160002054905081811015611526576040517f08c379a000000000000000000000000000000000000000000000000000000000815260040161151d90613777565b60405180910390fd5b81810360008085815260200190815260200160002060008a73ffffffffffffffffffffffffffffffffffffffff1673ffffffffffffffffffffffffffffffffffffffff16815260200190815260200160002081905550505050808061158a90613284565b915050611448565b50600073ffffffffffffffffffffffffffffffffffffffff168473ffffffffffffffffffffffffffffffffffffffff168273ffffffffffffffffffffffffffffffffffffffff167f4a39dc06d4c0dbc64b70af90fd698a233a518aa5d07e595d983b8c0526c8f7fb868660405161160a92919061363c565b60405180910390a461163081856000868660405180602001604052806000815250611ddc565b50505050565b6000600360009054906101000a900473ffffffffffffffffffffffffffffffffffffffff16905081600360006101000a81548173ffffffffffffffffffffffffffffffffffffffff021916908373ffffffffffffffffffffffffffffffffffffffff1602179055508173ffffffffffffffffffffffffffffffffffffffff168173ffffffffffffffffffffffffffffffffffffffff167f8be0079c531659141344cd1fd0a4f28419497f9722a3daafe3b4186f6b6457e060405160405180910390a35050565b8173ffffffffffffffffffffffffffffffffffffffff168373ffffffffffffffffffffffffffffffffffffffff16141561176b576040517f08c379a000000000000000000000000000000000000000000000000000000000815260040161176290613809565b60405180910390fd5b80600160008573ffffffffffffffffffffffffffffffffffffffff1673ffffffffffffffffffffffffffffffffffffffff16815260200190815260200160002060008473ffffffffffffffffffffffffffffffffffffffff1673ffffffffffffffffffffffffffffffffffffffff16815260200190815260200160002060006101000a81548160ff0219169083151502179055508173ffffffffffffffffffffffffffffffffffffffff168373ffffffffffffffffffffffffffffffffffffffff167f17307eab39ab6107e8899845ad3d59bd9653f200f220920489ca2b5937696c318360405161185c9190612604565b60405180910390a3505050565b600073ffffffffffffffffffffffffffffffffffffffff168473ffffffffffffffffffffffffffffffffffffffff1614156118d9576040517f08c379a00000000000000000000000000000000000000000000000000000000081526004016118d09061358a565b60405180910390fd5b60006118e361103d565b905060006118f085611d4c565b905060006118fd85611d4c565b905061190d838989858589611dc6565b600080600088815260200190815260200160002060008a73ffffffffffffffffffffffffffffffffffffffff1673ffffffffffffffffffffffffffffffffffffffff168152602001908152602001600020549050858110156119a4576040517f08c379a000000000000000000000000000000000000000000000000000000000815260040161199b9061361c565b60405180910390fd5b85810360008089815260200190815260200160002060008b73ffffffffffffffffffffffffffffffffffffffff1673ffffffffffffffffffffffffffffffffffffffff168152602001908152602001600020819055508560008089815260200190815260200160002060008a73ffffffffffffffffffffffffffffffffffffffff1673ffffffffffffffffffffffffffffffffffffffff1681526020019081526020016000206000828254611a5991906130b2565b925050819055508773ffffffffffffffffffffffffffffffffffffffff168973ffffffffffffffffffffffffffffffffffffffff168573ffffffffffffffffffffffffffffffffffffffff167fc3d58168c5ae7397731d063d5bbf3d657854427343f4c083240f7aacaa2d0f628a8a604051611ad692919061345d565b60405180910390a4611aec848a8a86868a611ddc565b611afa848a8a8a8a8a611de4565b505050505050505050565b600073ffffffffffffffffffffffffffffffffffffffff168373ffffffffffffffffffffffffffffffffffffffff161415611b75576040517f08c379a0000000000000000000000000000000000000000000000000000000008152600401611b6c906136e5565b60405180910390fd5b6000611b7f61103d565b90506000611b8c84611d4c565b90506000611b9984611d4c565b9050611bb983876000858560405180602001604052806000815250611dc6565b600080600087815260200190815260200160002060008873ffffffffffffffffffffffffffffffffffffffff1673ffffffffffffffffffffffffffffffffffffffff16815260200190815260200160002054905084811015611c50576040517f08c379a0000000000000000000000000000000000000000000000000000000008152600401611c4790613777565b60405180910390fd5b84810360008088815260200190815260200160002060008973ffffffffffffffffffffffffffffffffffffffff1673ffffffffffffffffffffffffffffffffffffffff16815260200190815260200160002081905550600073ffffffffffffffffffffffffffffffffffffffff168773ffffffffffffffffffffffffffffffffffffffff168573ffffffffffffffffffffffffffffffffffffffff167fc3d58168c5ae7397731d063d5bbf3d657854427343f4c083240f7aacaa2d0f628989604051611d1d92919061345d565b60405180910390a4611d4384886000868660405180602001604052806000815250611ddc565b50505050505050565b60606000600167ffffffffffffffff811115611d6b57611d6a61263a565b5b604051908082528060200260200182016040528015611d995781602001602082028036833780820191505090505b5090508281600081518110611db157611db0613255565b5b60200260200101818152505080915050919050565b611dd48686868686866121b2565b505050505050565b505050505050565b611e038473ffffffffffffffffffffffffffffffffffffffff16612384565b15611fc3578373ffffffffffffffffffffffffffffffffffffffff1663f23a6e6187878686866040518663ffffffff1660e01b8152600401611e4995949392919061387e565b602060405180830381600087803b158015611e6357600080fd5b505af1925050508015611e9457506040513d601f19601f82011682018060405250810190611e9191906138ed565b60015b611f3a57611ea0613927565b806308c379a01415611efd5750611eb5613949565b80611ec05750611eff565b806040517f08c379a0000000000000000000000000000000000000000000000000000000008152600401611ef49190612836565b60405180910390fd5b505b6040517f08c379a0000000000000000000000000000000000000000000000000000000008152600401611f3190613a51565b60405180910390fd5b63f23a6e6160e01b7bffffffffffffffffffffffffffffffffffffffffffffffffffffffff1916817bffffffffffffffffffffffffffffffffffffffffffffffffffffffff191614611fc1576040517f08c379a0000000000000000000000000000000000000000000000000000000008152600401611fb890613ae3565b60405180910390fd5b505b505050505050565b611fea8473ffffffffffffffffffffffffffffffffffffffff16612384565b156121aa578373ffffffffffffffffffffffffffffffffffffffff1663bc197c8187878686866040518663ffffffff1660e01b8152600401612030959493929190613b03565b602060405180830381600087803b15801561204a57600080fd5b505af192505050801561207b57506040513d601f19601f8201168201806040525081019061207891906138ed565b60015b61212157612087613927565b806308c379a014156120e4575061209c613949565b806120a757506120e6565b806040517f08c379a00000000000000000000000000000000000000000000000000000000081526004016120db9190612836565b60405180910390fd5b505b6040517f08c379a000000000000000000000000000000000000000000000000000000000815260040161211890613a51565b60405180910390fd5b63bc197c8160e01b7bffffffffffffffffffffffffffffffffffffffffffffffffffffffff1916817bffffffffffffffffffffffffffffffffffffffffffffffffffffffff1916146121a8576040517f08c379a000000000000000000000000000000000000000000000000000000000815260040161219f90613ae3565b60405180910390fd5b505b505050505050565b6121c08686868686866123a7565b600073ffffffffffffffffffffffffffffffffffffffff168573ffffffffffffffffffffffffffffffffffffffff1614156122725760005b83518110156122705782818151811061221457612213613255565b5b60200260200101516004600086848151811061223357612232613255565b5b60200260200101518152602001908152602001600020600082825461225891906130b2565b925050819055508061226990613284565b90506121f8565b505b600073ffffffffffffffffffffffffffffffffffffffff168473ffffffffffffffffffffffffffffffffffffffff16141561237c5760005b835181101561237a5760008482815181106122c8576122c7613255565b5b6020026020010151905060008483815181106122e7576122e6613255565b5b602002602001015190506000600460008481526020019081526020016000205490508181101561234c576040517f08c379a000000000000000000000000000000000000000000000000000000000815260040161234390613bdd565b60405180910390fd5b81810360046000858152602001908152602001600020819055505050508061237390613284565b90506122aa565b505b505050505050565b6000808273ffffffffffffffffffffffffffffffffffffffff163b119050919050565b505050505050565b8280546123bb90613051565b90600052602060002090601f0160209004810192826123dd5760008555612424565b82601f106123f657805160ff1916838001178555612424565b82800160010185558215612424579182015b82811115612423578251825591602001919060010190612408565b5b5090506124319190612435565b5090565b5b8082111561244e576000816000905550600101612436565b5090565b6000604051905090565b600080fd5b600080fd5b600073ffffffffffffffffffffffffffffffffffffffff82169050919050565b600061249182612466565b9050919050565b6124a181612486565b81146124ac57600080fd5b50565b6000813590506124be81612498565b92915050565b6000819050919050565b6124d7816124c4565b81146124e257600080fd5b50565b6000813590506124f4816124ce565b92915050565b600080604083850312156125115761251061245c565b5b600061251f858286016124af565b9250506020612530858286016124e5565b9150509250929050565b612543816124c4565b82525050565b600060208201905061255e600083018461253a565b92915050565b60007fffffffff0000000000000000000000000000000000000000000000000000000082169050919050565b61259981612564565b81146125a457600080fd5b50565b6000813590506125b681612590565b92915050565b6000602082840312156125d2576125d161245c565b5b60006125e0848285016125a7565b91505092915050565b60008115159050919050565b6125fe816125e9565b82525050565b600060208201905061261960008301846125f5565b92915050565b600080fd5b600080fd5b6000601f19601f8301169050919050565b7f4e487b7100000000000000000000000000000000000000000000000000000000600052604160045260246000fd5b61267282612629565b810181811067ffffffffffffffff821117156126915761269061263a565b5b80604052505050565b60006126a4612452565b90506126b08282612669565b919050565b600067ffffffffffffffff8211156126d0576126cf61263a565b5b6126d982612629565b9050602081019050919050565b82818337600083830152505050565b6000612708612703846126b5565b61269a565b90508281526020810184848401111561272457612723612624565b5b61272f8482856126e6565b509392505050565b600082601f83011261274c5761274b61261f565b5b813561275c8482602086016126f5565b91505092915050565b60006020828403121561277b5761277a61245c565b5b600082013567ffffffffffffffff81111561279957612798612461565b5b6127a584828501612737565b91505092915050565b600081519050919050565b600082825260208201905092915050565b60005b838110156127e85780820151818401526020810190506127cd565b838111156127f7576000848401525b50505050565b6000612808826127ae565b61281281856127b9565b93506128228185602086016127ca565b61282b81612629565b840191505092915050565b6000602082019050818103600083015261285081846127fd565b905092915050565b60006020828403121561286e5761286d61245c565b5b600061287c848285016124e5565b91505092915050565b6000806040838503121561289c5761289b61245c565b5b60006128aa858286016124e5565b92505060206128bb858286016124e5565b9150509250929050565b6000602082840312156128db576128da61245c565b5b60006128e9848285016124af565b91505092915050565b600067ffffffffffffffff82111561290d5761290c61263a565b5b602082029050602081019050919050565b600080fd5b6000612936612931846128f2565b61269a565b905080838252602082019050602084028301858111156129595761295861291e565b5b835b81811015612982578061296e88826124e5565b84526020840193505060208101905061295b565b5050509392505050565b600082601f8301126129a1576129a061261f565b5b81356129b1848260208601612923565b91505092915050565b600067ffffffffffffffff8211156129d5576129d461263a565b5b6129de82612629565b9050602081019050919050565b60006129fe6129f9846129ba565b61269a565b905082815260208101848484011115612a1a57612a19612624565b5b612a258482856126e6565b509392505050565b600082601f830112612a4257612a4161261f565b5b8135612a528482602086016129eb565b91505092915050565b600080600080600060a08688031215612a7757612a7661245c565b5b6000612a85888289016124af565b9550506020612a96888289016124af565b945050604086013567ffffffffffffffff811115612ab757612ab6612461565b5b612ac38882890161298c565b935050606086013567ffffffffffffffff811115612ae457612ae3612461565b5b612af08882890161298c565b925050608086013567ffffffffffffffff811115612b1157612b10612461565b5b612b1d88828901612a2d565b9150509295509295909350565b600067ffffffffffffffff821115612b4557612b4461263a565b5b602082029050602081019050919050565b6000612b69612b6484612b2a565b61269a565b90508083825260208201905060208402830185811115612b8c57612b8b61291e565b5b835b81811015612bb55780612ba188826124af565b845260208401935050602081019050612b8e565b5050509392505050565b600082601f830112612bd457612bd361261f565b5b8135612be4848260208601612b56565b91505092915050565b60008060408385031215612c0457612c0361245c565b5b600083013567ffffffffffffffff811115612c2257612c21612461565b5b612c2e85828601612bbf565b925050602083013567ffffffffffffffff811115612c4f57612c4e612461565b5b612c5b8582860161298c565b9150509250929050565b600081519050919050565b600082825260208201905092915050565b6000819050602082019050919050565b612c9a816124c4565b82525050565b6000612cac8383612c91565b60208301905092915050565b6000602082019050919050565b6000612cd082612c65565b612cda8185612c70565b9350612ce583612c81565b8060005b83811015612d16578151612cfd8882612ca0565b9750612d0883612cb8565b925050600181019050612ce9565b5085935050505092915050565b60006020820190508181036000830152612d3d8184612cc5565b905092915050565b600080600060608486031215612d5e57612d5d61245c565b5b6000612d6c868287016124af565b935050602084013567ffffffffffffffff811115612d8d57612d8c612461565b5b612d998682870161298c565b925050604084013567ffffffffffffffff811115612dba57612db9612461565b5b612dc68682870161298c565b9150509250925092565b612dd981612486565b82525050565b6000602082019050612df46000830184612dd0565b92915050565b612e03816125e9565b8114612e0e57600080fd5b50565b600081359050612e2081612dfa565b92915050565b60008060408385031215612e3d57612e3c61245c565b5b6000612e4b858286016124af565b9250506020612e5c85828601612e11565b9150509250929050565b60008060408385031215612e7d57612e7c61245c565b5b6000612e8b858286016124af565b9250506020612e9c858286016124af565b9150509250929050565b600080600080600060a08688031215612ec257612ec161245c565b5b6000612ed0888289016124af565b9550506020612ee1888289016124af565b9450506040612ef2888289016124e5565b9350506060612f03888289016124e5565b925050608086013567ffffffffffffffff811115612f2457612f23612461565b5b612f3088828901612a2d565b9150509295509295909350565b600080600060608486031215612f5657612f5561245c565b5b6000612f64868287016124af565b9350506020612f75868287016124e5565b9250506040612f86868287016124e5565b9150509250925092565b7f455243313135353a2061646472657373207a65726f206973206e6f742061207660008201527f616c6964206f776e657200000000000000000000000000000000000000000000602082015250565b6000612fec602a836127b9565b9150612ff782612f90565b604082019050919050565b6000602082019050818103600083015261301b81612fdf565b9050919050565b7f4e487b7100000000000000000000000000000000000000000000000000000000600052602260045260246000fd5b6000600282049050600182168061306957607f821691505b6020821081141561307d5761307c613022565b5b50919050565b7f4e487b7100000000000000000000000000000000000000000000000000000000600052601160045260246000fd5b60006130bd826124c4565b91506130c8836124c4565b9250827fffffffffffffffffffffffffffffffffffffffffffffffffffffffffffffffff038211156130fd576130fc613083565b5b828201905092915050565b600060408201905061311d6000830185612dd0565b61312a602083018461253a565b9392505050565b7f455243313135353a2063616c6c6572206973206e6f7420746f6b656e206f776e60008201527f6572206f7220617070726f766564000000000000000000000000000000000000602082015250565b600061318d602e836127b9565b915061319882613131565b604082019050919050565b600060208201905081810360008301526131bc81613180565b9050919050565b7f455243313135353a206163636f756e747320616e6420696473206c656e67746860008201527f206d69736d617463680000000000000000000000000000000000000000000000602082015250565b600061321f6029836127b9565b915061322a826131c3565b604082019050919050565b6000602082019050818103600083015261324e81613212565b9050919050565b7f4e487b7100000000000000000000000000000000000000000000000000000000600052603260045260246000fd5b600061328f826124c4565b91507fffffffffffffffffffffffffffffffffffffffffffffffffffffffffffffffff8214156132c2576132c1613083565b5b600182019050919050565b7f4f776e61626c653a206e6577206f776e657220697320746865207a65726f206160008201527f6464726573730000000000000000000000000000000000000000000000000000602082015250565b60006133296026836127b9565b9150613334826132cd565b604082019050919050565b600060208201905081810360008301526133588161331c565b9050919050565b7f4f776e61626c653a2063616c6c6572206973206e6f7420746865206f776e6572600082015250565b60006133956020836127b9565b91506133a08261335f565b602082019050919050565b600060208201905081810360008301526133c481613388565b9050919050565b7f455243313135353a206d696e7420746f20746865207a65726f2061646472657360008201527f7300000000000000000000000000000000000000000000000000000000000000602082015250565b60006134276021836127b9565b9150613432826133cb565b604082019050919050565b600060208201905081810360008301526134568161341a565b9050919050565b6000604082019050613472600083018561253a565b61347f602083018461253a565b9392505050565b7f455243313135353a2069647320616e6420616d6f756e7473206c656e6774682060008201527f6d69736d61746368000000000000000000000000000000000000000000000000602082015250565b60006134e26028836127b9565b91506134ed82613486565b604082019050919050565b60006020820190508181036000830152613511816134d5565b9050919050565b7f455243313135353a207472616e7366657220746f20746865207a65726f20616460008201527f6472657373000000000000000000000000000000000000000000000000000000602082015250565b60006135746025836127b9565b915061357f82613518565b604082019050919050565b600060208201905081810360008301526135a381613567565b9050919050565b7f455243313135353a20696e73756666696369656e742062616c616e636520666f60008201527f72207472616e7366657200000000000000000000000000000000000000000000602082015250565b6000613606602a836127b9565b9150613611826135aa565b604082019050919050565b60006020820190508181036000830152613635816135f9565b9050919050565b600060408201905081810360008301526136568185612cc5565b9050818103602083015261366a8184612cc5565b90509392505050565b7f455243313135353a206275726e2066726f6d20746865207a65726f206164647260008201527f6573730000000000000000000000000000000000000000000000000000000000602082015250565b60006136cf6023836127b9565b91506136da82613673565b604082019050919050565b600060208201905081810360008301526136fe816136c2565b9050919050565b7f455243313135353a206275726e20616d6f756e7420657863656564732062616c60008201527f616e636500000000000000000000000000000000000000000000000000000000602082015250565b60006137616024836127b9565b915061376c82613705565b604082019050919050565b6000602082019050818103600083015261379081613754565b9050919050565b7f455243313135353a2073657474696e6720617070726f76616c2073746174757360008201527f20666f722073656c660000000000000000000000000000000000000000000000602082015250565b60006137f36029836127b9565b91506137fe82613797565b604082019050919050565b60006020820190508181036000830152613822816137e6565b9050919050565b600081519050919050565b600082825260208201905092915050565b600061385082613829565b61385a8185613834565b935061386a8185602086016127ca565b61387381612629565b840191505092915050565b600060a0820190506138936000830188612dd0565b6138a06020830187612dd0565b6138ad604083018661253a565b6138ba606083018561253a565b81810360808301526138cc8184613845565b90509695505050505050565b6000815190506138e781612590565b92915050565b6000602082840312156139035761390261245c565b5b6000613911848285016138d8565b91505092915050565b60008160e01c9050919050565b600060033d11156139465760046000803e61394360005161391a565b90505b90565b600060443d1015613959576139dc565b613961612452565b60043d036004823e80513d602482011167ffffffffffffffff821117156139895750506139dc565b808201805167ffffffffffffffff8111156139a757505050506139dc565b80602083010160043d0385018111156139c45750505050506139dc565b6139d382602001850186612669565b82955050505050505b90565b7f455243313135353a207472616e7366657220746f206e6f6e2d4552433131353560008201527f526563656976657220696d706c656d656e746572000000000000000000000000602082015250565b6000613a3b6034836127b9565b9150613a46826139df565b604082019050919050565b60006020820190508181036000830152613a6a81613a2e565b9050919050565b7f455243313135353a204552433131353552656365697665722072656a6563746560008201527f6420746f6b656e73000000000000000000000000000000000000000000000000602082015250565b6000613acd6028836127b9565b9150613ad882613a71565b604082019050919050565b60006020820190508181036000830152613afc81613ac0565b9050919050565b600060a082019050613b186000830188612dd0565b613b256020830187612dd0565b8181036040830152613b378186612cc5565b90508181036060830152613b4b8185612cc5565b90508181036080830152613b5f8184613845565b90509695505050505050565b7f455243313135353a206275726e20616d6f756e74206578636565647320746f7460008201527f616c537570706c79000000000000000000000000000000000000000000000000602082015250565b6000613bc76028836127b9565b9150613bd282613b6b565b604082019050919050565b60006020820190508181036000830152613bf681613bba565b905091905056fea2646970667358221220d44f7376c69f30ae5c65916301187a2ac379b8541cf11da2e9f3b07ba990204f64736f6c6343000809003368747470733a2f2f676174657761792e70696e6174612e636c6f75642f697066732f516d517273674d504a785a69687169635065424d436932667254346950577251433242336433386a675537386e59",
  "linkReferences": {},
  "deployedLinkReferences": {}
}