{
  "_format": "hh-sol-artifact-1",
  "contractName": "AndyChill",
  "sourceName": "contracts/AndyChill.sol",
  "abi": [
    {
      "inputs": [],
      "stateMutability": "nonpayable",
      "type": "constructor"
    },
    {
      "anonymous": false,
      "inputs": [
        {
          "indexed": true,
          "internalType": "address",
          "name": "account",
          "type": "address"
        },
        {
          "indexed": true,
          "internalType": "address",
          "name": "operator",
          "type": "address"
        },
        {
          "indexed": false,
          "internalType": "bool",
          "name": "approved",
          "type": "bool"
        }
      ],
      "name": "ApprovalForAll",
      "type": "event"
    },
    {
      "anonymous": false,
      "inputs": [
        {
          "indexed": true,
          "internalType": "address",
          "name": "previousOwner",
          "type": "address"
        },
        {
          "indexed": true,
          "internalType": "address",
          "name": "newOwner",
          "type": "address"
        }
      ],
      "name": "OwnershipTransferred",
      "type": "event"
    },
    {
      "anonymous": false,
      "inputs": [
        {
          "indexed": true,
          "internalType": "address",
          "name": "operator",
          "type": "address"
        },
        {
          "indexed": true,
          "internalType": "address",
          "name": "from",
          "type": "address"
        },
        {
          "indexed": true,
          "internalType": "address",
          "name": "to",
          "type": "address"
        },
        {
          "indexed": false,
          "internalType": "uint256[]",
          "name": "ids",
          "type": "uint256[]"
        },
        {
          "indexed": false,
          "internalType": "uint256[]",
          "name": "values",
          "type": "uint256[]"
        }
      ],
      "name": "TransferBatch",
      "type": "event"
    },
    {
      "anonymous": false,
      "inputs": [
        {
          "indexed": true,
          "internalType": "address",
          "name": "operator",
          "type": "address"
        },
        {
          "indexed": true,
          "internalType": "address",
          "name": "from",
          "type": "address"
        },
        {
          "indexed": true,
          "internalType": "address",
          "name": "to",
          "type": "address"
        },
        {
          "indexed": false,
          "internalType": "uint256",
          "name": "id",
          "type": "uint256"
        },
        {
          "indexed": false,
          "internalType": "uint256",
          "name": "value",
          "type": "uint256"
        }
      ],
      "name": "TransferSingle",
      "type": "event"
    },
    {
      "anonymous": false,
      "inputs": [
        {
          "indexed": false,
          "internalType": "string",
          "name": "value",
          "type": "string"
        },
        {
          "indexed": true,
          "internalType": "uint256",
          "name": "id",
          "type": "uint256"
        }
      ],
      "name": "URI",
      "type": "event"
    },
    {
      "inputs": [
        {
          "internalType": "address",
          "name": "account",
          "type": "address"
        },
        {
          "internalType": "uint256",
          "name": "id",
          "type": "uint256"
        }
      ],
      "name": "balanceOf",
      "outputs": [
        {
          "internalType": "uint256",
          "name": "",
          "type": "uint256"
        }
      ],
      "stateMutability": "view",
      "type": "function"
    },
    {
      "inputs": [
        {
          "internalType": "address[]",
          "name": "accounts",
          "type": "address[]"
        },
        {
          "internalType": "uint256[]",
          "name": "ids",
          "type": "uint256[]"
        }
      ],
      "name": "balanceOfBatch",
      "outputs": [
        {
          "internalType": "uint256[]",
          "name": "",
          "type": "uint256[]"
        }
      ],
      "stateMutability": "view",
      "type": "function"
    },
    {
      "inputs": [
        {
          "internalType": "address",
          "name": "",
          "type": "address"
        }
      ],
      "name": "balances",
      "outputs": [
        {
          "internalType": "uint256",
          "name": "",
          "type": "uint256"
        }
      ],
      "stateMutability": "view",
      "type": "function"
    },
    {
      "inputs": [
        {
          "internalType": "address",
          "name": "account",
          "type": "address"
        },
        {
          "internalType": "uint256",
          "name": "id",
          "type": "uint256"
        },
        {
          "internalType": "uint256",
          "name": "value",
          "type": "uint256"
        }
      ],
      "name": "burn",
      "outputs": [],
      "stateMutability": "nonpayable",
      "type": "function"
    },
    {
      "inputs": [
        {
          "internalType": "address",
          "name": "account",
          "type": "address"
        },
        {
          "internalType": "uint256[]",
          "name": "ids",
          "type": "uint256[]"
        },
        {
          "internalType": "uint256[]",
          "name": "values",
          "type": "uint256[]"
        }
      ],
      "name": "burnBatch",
      "outputs": [],
      "stateMutability": "nonpayable",
      "type": "function"
    },
    {
      "inputs": [
        {
          "internalType": "uint256",
          "name": "id",
          "type": "uint256"
        }
      ],
      "name": "exists",
      "outputs": [
        {
          "internalType": "bool",
          "name": "",
          "type": "bool"
        }
      ],
      "stateMutability": "view",
      "type": "function"
    },
    {
      "inputs": [
        {
          "internalType": "address",
          "name": "account",
          "type": "address"
        },
        {
          "internalType": "address",
          "name": "operator",
          "type": "address"
        }
      ],
      "name": "isApprovedForAll",
      "outputs": [
        {
          "internalType": "bool",
          "name": "",
          "type": "bool"
        }
      ],
      "stateMutability": "view",
      "type": "function"
    },
    {
      "inputs": [
        {
          "internalType": "uint256",
          "name": "id",
          "type": "uint256"
        },
        {
          "internalType": "uint256",
          "name": "amount",
          "type": "uint256"
        }
      ],
      "name": "mint",
      "outputs": [],
      "stateMutability": "payable",
      "type": "function"
    },
    {
      "inputs": [],
      "name": "owner",
      "outputs": [
        {
          "internalType": "address",
          "name": "",
          "type": "address"
        }
      ],
      "stateMutability": "view",
      "type": "function"
    },
    {
      "inputs": [],
      "name": "renounceOwnership",
      "outputs": [],
      "stateMutability": "nonpayable",
      "type": "function"
    },
    {
      "inputs": [
        {
          "internalType": "address",
          "name": "from",
          "type": "address"
        },
        {
          "internalType": "address",
          "name": "to",
          "type": "address"
        },
        {
          "internalType": "uint256[]",
          "name": "ids",
          "type": "uint256[]"
        },
        {
          "internalType": "uint256[]",
          "name": "amounts",
          "type": "uint256[]"
        },
        {
          "internalType": "bytes",
          "name": "data",
          "type": "bytes"
        }
      ],
      "name": "safeBatchTransferFrom",
      "outputs": [],
      "stateMutability": "nonpayable",
      "type": "function"
    },
    {
      "inputs": [
        {
          "internalType": "address",
          "name": "from",
          "type": "address"
        },
        {
          "internalType": "address",
          "name": "to",
          "type": "address"
        },
        {
          "internalType": "uint256",
          "name": "id",
          "type": "uint256"
        },
        {
          "internalType": "uint256",
          "name": "amount",
          "type": "uint256"
        },
        {
          "internalType": "bytes",
          "name": "data",
          "type": "bytes"
        }
      ],
      "name": "safeTransferFrom",
      "outputs": [],
      "stateMutability": "nonpayable",
      "type": "function"
    },
    {
      "inputs": [
        {
          "internalType": "address",
          "name": "operator",
          "type": "address"
        },
        {
          "internalType": "bool",
          "name": "approved",
          "type": "bool"
        }
      ],
      "name": "setApprovalForAll",
      "outputs": [],
      "stateMutability": "nonpayable",
      "type": "function"
    },
    {
      "inputs": [
        {
          "internalType": "string",
          "name": "newuri",
          "type": "string"
        }
      ],
      "name": "setURI",
      "outputs": [],
      "stateMutability": "nonpayable",
      "type": "function"
    },
    {
      "inputs": [
        {
          "internalType": "bytes4",
          "name": "interfaceId",
          "type": "bytes4"
        }
      ],
      "name": "supportsInterface",
      "outputs": [
        {
          "internalType": "bool",
          "name": "",
          "type": "bool"
        }
      ],
      "stateMutability": "view",
      "type": "function"
    },
    {
      "inputs": [],
      "name": "tokenID",
      "outputs": [
        {
          "internalType": "uint256",
          "name": "",
          "type": "uint256"
        }
      ],
      "stateMutability": "view",
      "type": "function"
    },
    {
      "inputs": [
        {
          "internalType": "uint256",
          "name": "id",
          "type": "uint256"
        }
      ],
      "name": "totalSupply",
      "outputs": [
        {
          "internalType": "uint256",
          "name": "",
          "type": "uint256"
        }
      ],
      "stateMutability": "view",
      "type": "function"
    },
    {
      "inputs": [
        {
          "internalType": "address",
          "name": "newOwner",
          "type": "address"
        }
      ],
      "name": "transferOwnership",
      "outputs": [],
      "stateMutability": "nonpayable",
      "type": "function"
    },
    {
      "inputs": [
        {
          "internalType": "uint256",
          "name": "",
          "type": "uint256"
        }
      ],
      "name": "uri",
      "outputs": [
        {
          "internalType": "string",
          "name": "",
          "type": "string"
        }
      ],
      "stateMutability": "view",
      "type": "function"
    }
  ],
  "bytecode": "0x608060405260016005553480156200001657600080fd5b5060405180608001604052806050815260200162003f1f6050913962000042816200006960201b60201c565b5062000063620000576200008560201b60201c565b6200008d60201b60201c565b62000268565b80600290805190602001906200008192919062000153565b5050565b600033905090565b6000600360009054906101000a900473ffffffffffffffffffffffffffffffffffffffff16905081600360006101000a81548173ffffffffffffffffffffffffffffffffffffffff021916908373ffffffffffffffffffffffffffffffffffffffff1602179055508173ffffffffffffffffffffffffffffffffffffffff168173ffffffffffffffffffffffffffffffffffffffff167f8be0079c531659141344cd1fd0a4f28419497f9722a3daafe3b4186f6b6457e060405160405180910390a35050565b828054620001619062000232565b90600052602060002090601f016020900481019282620001855760008555620001d1565b82601f10620001a057805160ff1916838001178555620001d1565b82800160010185558215620001d1579182015b82811115620001d0578251825591602001919060010190620001b3565b5b509050620001e09190620001e4565b5090565b5b80821115620001ff576000816000905550600101620001e5565b5090565b7f4e487b7100000000000000000000000000000000000000000000000000000000600052602260045260246000fd5b600060028204905060018216806200024b57607f821691505b6020821081141562000262576200026162000203565b5b50919050565b613ca780620002786000396000f3fe6080604052600436106101135760003560e01c80636b20c454116100a0578063bd85b03911610064578063bd85b039146103b3578063e985e9c5146103f0578063f242432a1461042d578063f2fde38b14610456578063f5298aca1461047f57610113565b80636b20c454146102f4578063715018a61461031d5780638da5cb5b14610334578063a22cb4651461035f578063a5c42ef11461038857610113565b80631b2ef1ca116100e75780631b2ef1ca146101f857806327e235e3146102145780632eb2c2d6146102515780634e1273f41461027a5780634f558e79146102b757610113565b8062fdd58e1461011857806301ffc9a71461015557806302fe5305146101925780630e89341c146101bb575b600080fd5b34801561012457600080fd5b5061013f600480360381019061013a91906124d1565b6104a8565b60405161014c9190612520565b60405180910390f35b34801561016157600080fd5b5061017c60048036038101906101779190612593565b610571565b60405161018991906125db565b60405180910390f35b34801561019e57600080fd5b506101b960048036038101906101b4919061273c565b610653565b005b3480156101c757600080fd5b506101e260048036038101906101dd9190612785565b610667565b6040516101ef919061283a565b60405180910390f35b610212600480360381019061020d919061285c565b6106fb565b005b34801561022057600080fd5b5061023b6004803603810190610236919061289c565b610811565b6040516102489190612520565b60405180910390f35b34801561025d57600080fd5b5061027860048036038101906102739190612a32565b610829565b005b34801561028657600080fd5b506102a1600480360381019061029c9190612bc4565b6108ca565b6040516102ae9190612cfa565b60405180910390f35b3480156102c357600080fd5b506102de60048036038101906102d99190612785565b6109e3565b6040516102eb91906125db565b60405180910390f35b34801561030057600080fd5b5061031b60048036038101906103169190612d1c565b6109f7565b005b34801561032957600080fd5b50610332610a94565b005b34801561034057600080fd5b50610349610aa8565b6040516103569190612db6565b60405180910390f35b34801561036b57600080fd5b5061038660048036038101906103819190612dfd565b610ad2565b005b34801561039457600080fd5b5061039d610ae8565b6040516103aa9190612520565b60405180910390f35b3480156103bf57600080fd5b506103da60048036038101906103d59190612785565b610aee565b6040516103e79190612520565b60405180910390f35b3480156103fc57600080fd5b5061041760048036038101906104129190612e3d565b610b0b565b60405161042491906125db565b60405180910390f35b34801561043957600080fd5b50610454600480360381019061044f9190612e7d565b610b9f565b005b34801561046257600080fd5b5061047d6004803603810190610478919061289c565b610c40565b005b34801561048b57600080fd5b506104a660048036038101906104a19190612f14565b610cc4565b005b60008073ffffffffffffffffffffffffffffffffffffffff168373ffffffffffffffffffffffffffffffffffffffff161415610519576040517f08c379a000000000000000000000000000000000000000000000000000000000815260040161051090612fd9565b60405180910390fd5b60008083815260200190815260200160002060008473ffffffffffffffffffffffffffffffffffffffff1673ffffffffffffffffffffffffffffffffffffffff16815260200190815260200160002054905092915050565b60007fd9b67a26000000000000000000000000000000000000000000000000000000007bffffffffffffffffffffffffffffffffffffffffffffffffffffffff1916827bffffffffffffffffffffffffffffffffffffffffffffffffffffffff1916148061063c57507f0e89341c000000000000000000000000000000000000000000000000000000007bffffffffffffffffffffffffffffffffffffffffffffffffffffffff1916827bffffffffffffffffffffffffffffffffffffffffffffffffffffffff1916145b8061064c575061064b82610d61565b5b9050919050565b61065b610dcb565b61066481610e49565b50565b60606002805461067690613028565b80601f01602080910402602001604051908101604052809291908181526020018280546106a290613028565b80156106ef5780601f106106c4576101008083540402835291602001916106ef565b820191906000526020600020905b8154815290600101906020018083116106d257829003601f168201915b50505050509050919050565b8066470de4df82000061070e9190613089565b34101561071a57600080fd5b6002600660003373ffffffffffffffffffffffffffffffffffffffff1673ffffffffffffffffffffffffffffffffffffffff168152602001908152602001600020541061079c576040517f08c379a00000000000000000000000000000000000000000000000000000000081526004016107939061312f565b60405180910390fd5b80600660003373ffffffffffffffffffffffffffffffffffffffff1673ffffffffffffffffffffffffffffffffffffffff16815260200190815260200160002060008282546107eb919061314f565b9250508190555061080d33838360405180602001604052806000815250610e63565b5050565b60066020528060005260406000206000915090505481565b610831611014565b73ffffffffffffffffffffffffffffffffffffffff168573ffffffffffffffffffffffffffffffffffffffff161480610877575061087685610871611014565b610b0b565b5b6108b6576040517f08c379a00000000000000000000000000000000000000000000000000000000081526004016108ad90613217565b60405180910390fd5b6108c3858585858561101c565b5050505050565b60608151835114610910576040517f08c379a0000000000000000000000000000000000000000000000000000000008152600401610907906132a9565b60405180910390fd5b6000835167ffffffffffffffff81111561092d5761092c612611565b5b60405190808252806020026020018201604052801561095b5781602001602082028036833780820191505090505b50905060005b84518110156109d8576109a88582815181106109805761097f6132c9565b5b602002602001015185838151811061099b5761099a6132c9565b5b60200260200101516104a8565b8282815181106109bb576109ba6132c9565b5b602002602001018181525050806109d1906132f8565b9050610961565b508091505092915050565b6000806109ef83610aee565b119050919050565b6109ff611014565b73ffffffffffffffffffffffffffffffffffffffff168373ffffffffffffffffffffffffffffffffffffffff161480610a455750610a4483610a3f611014565b610b0b565b5b610a84576040517f08c379a0000000000000000000000000000000000000000000000000000000008152600401610a7b90613217565b60405180910390fd5b610a8f83838361133e565b505050565b610a9c610dcb565b610aa6600061160d565b565b6000600360009054906101000a900473ffffffffffffffffffffffffffffffffffffffff16905090565b610ae4610add611014565b83836116d3565b5050565b60055481565b600060046000838152602001908152602001600020549050919050565b6000600160008473ffffffffffffffffffffffffffffffffffffffff1673ffffffffffffffffffffffffffffffffffffffff16815260200190815260200160002060008373ffffffffffffffffffffffffffffffffffffffff1673ffffffffffffffffffffffffffffffffffffffff16815260200190815260200160002060009054906101000a900460ff16905092915050565b610ba7611014565b73ffffffffffffffffffffffffffffffffffffffff168573ffffffffffffffffffffffffffffffffffffffff161480610bed5750610bec85610be7611014565b610b0b565b5b610c2c576040517f08c379a0000000000000000000000000000000000000000000000000000000008152600401610c2390613217565b60405180910390fd5b610c398585858585611840565b5050505050565b610c48610dcb565b600073ffffffffffffffffffffffffffffffffffffffff168173ffffffffffffffffffffffffffffffffffffffff161415610cb8576040517f08c379a0000000000000000000000000000000000000000000000000000000008152600401610caf906133b3565b60405180910390fd5b610cc18161160d565b50565b610ccc611014565b73ffffffffffffffffffffffffffffffffffffffff168373ffffffffffffffffffffffffffffffffffffffff161480610d125750610d1183610d0c611014565b610b0b565b5b610d51576040517f08c379a0000000000000000000000000000000000000000000000000000000008152600401610d4890613217565b60405180910390fd5b610d5c838383611adc565b505050565b60007f01ffc9a7000000000000000000000000000000000000000000000000000000007bffffffffffffffffffffffffffffffffffffffffffffffffffffffff1916827bffffffffffffffffffffffffffffffffffffffffffffffffffffffff1916149050919050565b610dd3611014565b73ffffffffffffffffffffffffffffffffffffffff16610df1610aa8565b73ffffffffffffffffffffffffffffffffffffffff1614610e47576040517f08c379a0000000000000000000000000000000000000000000000000000000008152600401610e3e9061341f565b60405180910390fd5b565b8060029080519060200190610e5f929190612386565b5050565b600073ffffffffffffffffffffffffffffffffffffffff168473ffffffffffffffffffffffffffffffffffffffff161415610ed3576040517f08c379a0000000000000000000000000000000000000000000000000000000008152600401610eca906134b1565b60405180910390fd5b6000610edd611014565b90506000610eea85611d23565b90506000610ef785611d23565b9050610f0883600089858589611d9d565b8460008088815260200190815260200160002060008973ffffffffffffffffffffffffffffffffffffffff1673ffffffffffffffffffffffffffffffffffffffff1681526020019081526020016000206000828254610f67919061314f565b925050819055508673ffffffffffffffffffffffffffffffffffffffff16600073ffffffffffffffffffffffffffffffffffffffff168473ffffffffffffffffffffffffffffffffffffffff167fc3d58168c5ae7397731d063d5bbf3d657854427343f4c083240f7aacaa2d0f628989604051610fe59291906134d1565b60405180910390a4610ffc83600089858589611db3565b61100b83600089898989611dbb565b50505050505050565b600033905090565b8151835114611060576040517f08c379a00000000000000000000000000000000000000000000000000000000081526004016110579061356c565b60405180910390fd5b600073ffffffffffffffffffffffffffffffffffffffff168473ffffffffffffffffffffffffffffffffffffffff1614156110d0576040517f08c379a00000000000000000000000000000000000000000000000000000000081526004016110c7906135fe565b60405180910390fd5b60006110da611014565b90506110ea818787878787611d9d565b60005b845181101561129b57600085828151811061110b5761110a6132c9565b5b60200260200101519050600085838151811061112a576111296132c9565b5b60200260200101519050600080600084815260200190815260200160002060008b73ffffffffffffffffffffffffffffffffffffffff1673ffffffffffffffffffffffffffffffffffffffff168152602001908152602001600020549050818110156111cb576040517f08c379a00000000000000000000000000000000000000000000000000000000081526004016111c290613690565b60405180910390fd5b81810360008085815260200190815260200160002060008c73ffffffffffffffffffffffffffffffffffffffff1673ffffffffffffffffffffffffffffffffffffffff168152602001908152602001600020819055508160008085815260200190815260200160002060008b73ffffffffffffffffffffffffffffffffffffffff1673ffffffffffffffffffffffffffffffffffffffff1681526020019081526020016000206000828254611280919061314f565b9250508190555050505080611294906132f8565b90506110ed565b508473ffffffffffffffffffffffffffffffffffffffff168673ffffffffffffffffffffffffffffffffffffffff168273ffffffffffffffffffffffffffffffffffffffff167f4a39dc06d4c0dbc64b70af90fd698a233a518aa5d07e595d983b8c0526c8f7fb87876040516113129291906136b0565b60405180910390a4611328818787878787611db3565b611336818787878787611fa2565b505050505050565b600073ffffffffffffffffffffffffffffffffffffffff168373ffffffffffffffffffffffffffffffffffffffff1614156113ae576040517f08c379a00000000000000000000000000000000000000000000000000000000081526004016113a590613759565b60405180910390fd5b80518251146113f2576040517f08c379a00000000000000000000000000000000000000000000000000000000081526004016113e99061356c565b60405180910390fd5b60006113fc611014565b905061141c81856000868660405180602001604052806000815250611d9d565b60005b835181101561156957600084828151811061143d5761143c6132c9565b5b60200260200101519050600084838151811061145c5761145b6132c9565b5b60200260200101519050600080600084815260200190815260200160002060008973ffffffffffffffffffffffffffffffffffffffff1673ffffffffffffffffffffffffffffffffffffffff168152602001908152602001600020549050818110156114fd576040517f08c379a00000000000000000000000000000000000000000000000000000000081526004016114f4906137eb565b60405180910390fd5b81810360008085815260200190815260200160002060008a73ffffffffffffffffffffffffffffffffffffffff1673ffffffffffffffffffffffffffffffffffffffff168152602001908152602001600020819055505050508080611561906132f8565b91505061141f565b50600073ffffffffffffffffffffffffffffffffffffffff168473ffffffffffffffffffffffffffffffffffffffff168273ffffffffffffffffffffffffffffffffffffffff167f4a39dc06d4c0dbc64b70af90fd698a233a518aa5d07e595d983b8c0526c8f7fb86866040516115e19291906136b0565b60405180910390a461160781856000868660405180602001604052806000815250611db3565b50505050565b6000600360009054906101000a900473ffffffffffffffffffffffffffffffffffffffff16905081600360006101000a81548173ffffffffffffffffffffffffffffffffffffffff021916908373ffffffffffffffffffffffffffffffffffffffff1602179055508173ffffffffffffffffffffffffffffffffffffffff168173ffffffffffffffffffffffffffffffffffffffff167f8be0079c531659141344cd1fd0a4f28419497f9722a3daafe3b4186f6b6457e060405160405180910390a35050565b8173ffffffffffffffffffffffffffffffffffffffff168373ffffffffffffffffffffffffffffffffffffffff161415611742576040517f08c379a00000000000000000000000000000000000000000000000000000000081526004016117399061387d565b60405180910390fd5b80600160008573ffffffffffffffffffffffffffffffffffffffff1673ffffffffffffffffffffffffffffffffffffffff16815260200190815260200160002060008473ffffffffffffffffffffffffffffffffffffffff1673ffffffffffffffffffffffffffffffffffffffff16815260200190815260200160002060006101000a81548160ff0219169083151502179055508173ffffffffffffffffffffffffffffffffffffffff168373ffffffffffffffffffffffffffffffffffffffff167f17307eab39ab6107e8899845ad3d59bd9653f200f220920489ca2b5937696c318360405161183391906125db565b60405180910390a3505050565b600073ffffffffffffffffffffffffffffffffffffffff168473ffffffffffffffffffffffffffffffffffffffff1614156118b0576040517f08c379a00000000000000000000000000000000000000000000000000000000081526004016118a7906135fe565b60405180910390fd5b60006118ba611014565b905060006118c785611d23565b905060006118d485611d23565b90506118e4838989858589611d9d565b600080600088815260200190815260200160002060008a73ffffffffffffffffffffffffffffffffffffffff1673ffffffffffffffffffffffffffffffffffffffff1681526020019081526020016000205490508581101561197b576040517f08c379a000000000000000000000000000000000000000000000000000000000815260040161197290613690565b60405180910390fd5b85810360008089815260200190815260200160002060008b73ffffffffffffffffffffffffffffffffffffffff1673ffffffffffffffffffffffffffffffffffffffff168152602001908152602001600020819055508560008089815260200190815260200160002060008a73ffffffffffffffffffffffffffffffffffffffff1673ffffffffffffffffffffffffffffffffffffffff1681526020019081526020016000206000828254611a30919061314f565b925050819055508773ffffffffffffffffffffffffffffffffffffffff168973ffffffffffffffffffffffffffffffffffffffff168573ffffffffffffffffffffffffffffffffffffffff167fc3d58168c5ae7397731d063d5bbf3d657854427343f4c083240f7aacaa2d0f628a8a604051611aad9291906134d1565b60405180910390a4611ac3848a8a86868a611db3565b611ad1848a8a8a8a8a611dbb565b505050505050505050565b600073ffffffffffffffffffffffffffffffffffffffff168373ffffffffffffffffffffffffffffffffffffffff161415611b4c576040517f08c379a0000000000000000000000000000000000000000000000000000000008152600401611b4390613759565b60405180910390fd5b6000611b56611014565b90506000611b6384611d23565b90506000611b7084611d23565b9050611b9083876000858560405180602001604052806000815250611d9d565b600080600087815260200190815260200160002060008873ffffffffffffffffffffffffffffffffffffffff1673ffffffffffffffffffffffffffffffffffffffff16815260200190815260200160002054905084811015611c27576040517f08c379a0000000000000000000000000000000000000000000000000000000008152600401611c1e906137eb565b60405180910390fd5b84810360008088815260200190815260200160002060008973ffffffffffffffffffffffffffffffffffffffff1673ffffffffffffffffffffffffffffffffffffffff16815260200190815260200160002081905550600073ffffffffffffffffffffffffffffffffffffffff168773ffffffffffffffffffffffffffffffffffffffff168573ffffffffffffffffffffffffffffffffffffffff167fc3d58168c5ae7397731d063d5bbf3d657854427343f4c083240f7aacaa2d0f628989604051611cf49291906134d1565b60405180910390a4611d1a84886000868660405180602001604052806000815250611db3565b50505050505050565b60606000600167ffffffffffffffff811115611d4257611d41612611565b5b604051908082528060200260200182016040528015611d705781602001602082028036833780820191505090505b5090508281600081518110611d8857611d876132c9565b5b60200260200101818152505080915050919050565b611dab868686868686612189565b505050505050565b505050505050565b611dda8473ffffffffffffffffffffffffffffffffffffffff1661235b565b15611f9a578373ffffffffffffffffffffffffffffffffffffffff1663f23a6e6187878686866040518663ffffffff1660e01b8152600401611e209594939291906138f2565b602060405180830381600087803b158015611e3a57600080fd5b505af1925050508015611e6b57506040513d601f19601f82011682018060405250810190611e689190613961565b60015b611f1157611e7761399b565b806308c379a01415611ed45750611e8c6139bd565b80611e975750611ed6565b806040517f08c379a0000000000000000000000000000000000000000000000000000000008152600401611ecb919061283a565b60405180910390fd5b505b6040517f08c379a0000000000000000000000000000000000000000000000000000000008152600401611f0890613ac5565b60405180910390fd5b63f23a6e6160e01b7bffffffffffffffffffffffffffffffffffffffffffffffffffffffff1916817bffffffffffffffffffffffffffffffffffffffffffffffffffffffff191614611f98576040517f08c379a0000000000000000000000000000000000000000000000000000000008152600401611f8f90613b57565b60405180910390fd5b505b505050505050565b611fc18473ffffffffffffffffffffffffffffffffffffffff1661235b565b15612181578373ffffffffffffffffffffffffffffffffffffffff1663bc197c8187878686866040518663ffffffff1660e01b8152600401612007959493929190613b77565b602060405180830381600087803b15801561202157600080fd5b505af192505050801561205257506040513d601f19601f8201168201806040525081019061204f9190613961565b60015b6120f85761205e61399b565b806308c379a014156120bb57506120736139bd565b8061207e57506120bd565b806040517f08c379a00000000000000000000000000000000000000000000000000000000081526004016120b2919061283a565b60405180910390fd5b505b6040517f08c379a00000000000000000000000000000000000000000000000000000000081526004016120ef90613ac5565b60405180910390fd5b63bc197c8160e01b7bffffffffffffffffffffffffffffffffffffffffffffffffffffffff1916817bffffffffffffffffffffffffffffffffffffffffffffffffffffffff19161461217f576040517f08c379a000000000000000000000000000000000000000000000000000000000815260040161217690613b57565b60405180910390fd5b505b505050505050565b61219786868686868661237e565b600073ffffffffffffffffffffffffffffffffffffffff168573ffffffffffffffffffffffffffffffffffffffff1614156122495760005b8351811015612247578281815181106121eb576121ea6132c9565b5b60200260200101516004600086848151811061220a576122096132c9565b5b60200260200101518152602001908152602001600020600082825461222f919061314f565b9250508190555080612240906132f8565b90506121cf565b505b600073ffffffffffffffffffffffffffffffffffffffff168473ffffffffffffffffffffffffffffffffffffffff1614156123535760005b835181101561235157600084828151811061229f5761229e6132c9565b5b6020026020010151905060008483815181106122be576122bd6132c9565b5b6020026020010151905060006004600084815260200190815260200160002054905081811015612323576040517f08c379a000000000000000000000000000000000000000000000000000000000815260040161231a90613c51565b60405180910390fd5b81810360046000858152602001908152602001600020819055505050508061234a906132f8565b9050612281565b505b505050505050565b6000808273ffffffffffffffffffffffffffffffffffffffff163b119050919050565b505050505050565b82805461239290613028565b90600052602060002090601f0160209004810192826123b457600085556123fb565b82601f106123cd57805160ff19168380011785556123fb565b828001600101855582156123fb579182015b828111156123fa5782518255916020019190600101906123df565b5b509050612408919061240c565b5090565b5b8082111561242557600081600090555060010161240d565b5090565b6000604051905090565b600080fd5b600080fd5b600073ffffffffffffffffffffffffffffffffffffffff82169050919050565b60006124688261243d565b9050919050565b6124788161245d565b811461248357600080fd5b50565b6000813590506124958161246f565b92915050565b6000819050919050565b6124ae8161249b565b81146124b957600080fd5b50565b6000813590506124cb816124a5565b92915050565b600080604083850312156124e8576124e7612433565b5b60006124f685828601612486565b9250506020612507858286016124bc565b9150509250929050565b61251a8161249b565b82525050565b60006020820190506125356000830184612511565b92915050565b60007fffffffff0000000000000000000000000000000000000000000000000000000082169050919050565b6125708161253b565b811461257b57600080fd5b50565b60008135905061258d81612567565b92915050565b6000602082840312156125a9576125a8612433565b5b60006125b78482850161257e565b91505092915050565b60008115159050919050565b6125d5816125c0565b82525050565b60006020820190506125f060008301846125cc565b92915050565b600080fd5b600080fd5b6000601f19601f8301169050919050565b7f4e487b7100000000000000000000000000000000000000000000000000000000600052604160045260246000fd5b61264982612600565b810181811067ffffffffffffffff8211171561266857612667612611565b5b80604052505050565b600061267b612429565b90506126878282612640565b919050565b600067ffffffffffffffff8211156126a7576126a6612611565b5b6126b082612600565b9050602081019050919050565b82818337600083830152505050565b60006126df6126da8461268c565b612671565b9050828152602081018484840111156126fb576126fa6125fb565b5b6127068482856126bd565b509392505050565b600082601f830112612723576127226125f6565b5b81356127338482602086016126cc565b91505092915050565b60006020828403121561275257612751612433565b5b600082013567ffffffffffffffff8111156127705761276f612438565b5b61277c8482850161270e565b91505092915050565b60006020828403121561279b5761279a612433565b5b60006127a9848285016124bc565b91505092915050565b600081519050919050565b600082825260208201905092915050565b60005b838110156127ec5780820151818401526020810190506127d1565b838111156127fb576000848401525b50505050565b600061280c826127b2565b61281681856127bd565b93506128268185602086016127ce565b61282f81612600565b840191505092915050565b600060208201905081810360008301526128548184612801565b905092915050565b6000806040838503121561287357612872612433565b5b6000612881858286016124bc565b9250506020612892858286016124bc565b9150509250929050565b6000602082840312156128b2576128b1612433565b5b60006128c084828501612486565b91505092915050565b600067ffffffffffffffff8211156128e4576128e3612611565b5b602082029050602081019050919050565b600080fd5b600061290d612908846128c9565b612671565b905080838252602082019050602084028301858111156129305761292f6128f5565b5b835b81811015612959578061294588826124bc565b845260208401935050602081019050612932565b5050509392505050565b600082601f830112612978576129776125f6565b5b81356129888482602086016128fa565b91505092915050565b600067ffffffffffffffff8211156129ac576129ab612611565b5b6129b582612600565b9050602081019050919050565b60006129d56129d084612991565b612671565b9050828152602081018484840111156129f1576129f06125fb565b5b6129fc8482856126bd565b509392505050565b600082601f830112612a1957612a186125f6565b5b8135612a298482602086016129c2565b91505092915050565b600080600080600060a08688031215612a4e57612a4d612433565b5b6000612a5c88828901612486565b9550506020612a6d88828901612486565b945050604086013567ffffffffffffffff811115612a8e57612a8d612438565b5b612a9a88828901612963565b935050606086013567ffffffffffffffff811115612abb57612aba612438565b5b612ac788828901612963565b925050608086013567ffffffffffffffff811115612ae857612ae7612438565b5b612af488828901612a04565b9150509295509295909350565b600067ffffffffffffffff821115612b1c57612b1b612611565b5b602082029050602081019050919050565b6000612b40612b3b84612b01565b612671565b90508083825260208201905060208402830185811115612b6357612b626128f5565b5b835b81811015612b8c5780612b788882612486565b845260208401935050602081019050612b65565b5050509392505050565b600082601f830112612bab57612baa6125f6565b5b8135612bbb848260208601612b2d565b91505092915050565b60008060408385031215612bdb57612bda612433565b5b600083013567ffffffffffffffff811115612bf957612bf8612438565b5b612c0585828601612b96565b925050602083013567ffffffffffffffff811115612c2657612c25612438565b5b612c3285828601612963565b9150509250929050565b600081519050919050565b600082825260208201905092915050565b6000819050602082019050919050565b612c718161249b565b82525050565b6000612c838383612c68565b60208301905092915050565b6000602082019050919050565b6000612ca782612c3c565b612cb18185612c47565b9350612cbc83612c58565b8060005b83811015612ced578151612cd48882612c77565b9750612cdf83612c8f565b925050600181019050612cc0565b5085935050505092915050565b60006020820190508181036000830152612d148184612c9c565b905092915050565b600080600060608486031215612d3557612d34612433565b5b6000612d4386828701612486565b935050602084013567ffffffffffffffff811115612d6457612d63612438565b5b612d7086828701612963565b925050604084013567ffffffffffffffff811115612d9157612d90612438565b5b612d9d86828701612963565b9150509250925092565b612db08161245d565b82525050565b6000602082019050612dcb6000830184612da7565b92915050565b612dda816125c0565b8114612de557600080fd5b50565b600081359050612df781612dd1565b92915050565b60008060408385031215612e1457612e13612433565b5b6000612e2285828601612486565b9250506020612e3385828601612de8565b9150509250929050565b60008060408385031215612e5457612e53612433565b5b6000612e6285828601612486565b9250506020612e7385828601612486565b9150509250929050565b600080600080600060a08688031215612e9957612e98612433565b5b6000612ea788828901612486565b9550506020612eb888828901612486565b9450506040612ec9888289016124bc565b9350506060612eda888289016124bc565b925050608086013567ffffffffffffffff811115612efb57612efa612438565b5b612f0788828901612a04565b9150509295509295909350565b600080600060608486031215612f2d57612f2c612433565b5b6000612f3b86828701612486565b9350506020612f4c868287016124bc565b9250506040612f5d868287016124bc565b9150509250925092565b7f455243313135353a2061646472657373207a65726f206973206e6f742061207660008201527f616c6964206f776e657200000000000000000000000000000000000000000000602082015250565b6000612fc3602a836127bd565b9150612fce82612f67565b604082019050919050565b60006020820190508181036000830152612ff281612fb6565b9050919050565b7f4e487b7100000000000000000000000000000000000000000000000000000000600052602260045260246000fd5b6000600282049050600182168061304057607f821691505b6020821081141561305457613053612ff9565b5b50919050565b7f4e487b7100000000000000000000000000000000000000000000000000000000600052601160045260246000fd5b60006130948261249b565b915061309f8361249b565b9250817fffffffffffffffffffffffffffffffffffffffffffffffffffffffffffffffff04831182151516156130d8576130d761305a565b5b828202905092915050565b7f4c696d6974203220546f6b656e73000000000000000000000000000000000000600082015250565b6000613119600e836127bd565b9150613124826130e3565b602082019050919050565b600060208201905081810360008301526131488161310c565b9050919050565b600061315a8261249b565b91506131658361249b565b9250827fffffffffffffffffffffffffffffffffffffffffffffffffffffffffffffffff0382111561319a5761319961305a565b5b828201905092915050565b7f455243313135353a2063616c6c6572206973206e6f7420746f6b656e206f776e60008201527f6572206f7220617070726f766564000000000000000000000000000000000000602082015250565b6000613201602e836127bd565b915061320c826131a5565b604082019050919050565b60006020820190508181036000830152613230816131f4565b9050919050565b7f455243313135353a206163636f756e747320616e6420696473206c656e67746860008201527f206d69736d617463680000000000000000000000000000000000000000000000602082015250565b60006132936029836127bd565b915061329e82613237565b604082019050919050565b600060208201905081810360008301526132c281613286565b9050919050565b7f4e487b7100000000000000000000000000000000000000000000000000000000600052603260045260246000fd5b60006133038261249b565b91507fffffffffffffffffffffffffffffffffffffffffffffffffffffffffffffffff8214156133365761333561305a565b5b600182019050919050565b7f4f776e61626c653a206e6577206f776e657220697320746865207a65726f206160008201527f6464726573730000000000000000000000000000000000000000000000000000602082015250565b600061339d6026836127bd565b91506133a882613341565b604082019050919050565b600060208201905081810360008301526133cc81613390565b9050919050565b7f4f776e61626c653a2063616c6c6572206973206e6f7420746865206f776e6572600082015250565b60006134096020836127bd565b9150613414826133d3565b602082019050919050565b60006020820190508181036000830152613438816133fc565b9050919050565b7f455243313135353a206d696e7420746f20746865207a65726f2061646472657360008201527f7300000000000000000000000000000000000000000000000000000000000000602082015250565b600061349b6021836127bd565b91506134a68261343f565b604082019050919050565b600060208201905081810360008301526134ca8161348e565b9050919050565b60006040820190506134e66000830185612511565b6134f36020830184612511565b9392505050565b7f455243313135353a2069647320616e6420616d6f756e7473206c656e6774682060008201527f6d69736d61746368000000000000000000000000000000000000000000000000602082015250565b60006135566028836127bd565b9150613561826134fa565b604082019050919050565b6000602082019050818103600083015261358581613549565b9050919050565b7f455243313135353a207472616e7366657220746f20746865207a65726f20616460008201527f6472657373000000000000000000000000000000000000000000000000000000602082015250565b60006135e86025836127bd565b91506135f38261358c565b604082019050919050565b60006020820190508181036000830152613617816135db565b9050919050565b7f455243313135353a20696e73756666696369656e742062616c616e636520666f60008201527f72207472616e7366657200000000000000000000000000000000000000000000602082015250565b600061367a602a836127bd565b91506136858261361e565b604082019050919050565b600060208201905081810360008301526136a98161366d565b9050919050565b600060408201905081810360008301526136ca8185612c9c565b905081810360208301526136de8184612c9c565b90509392505050565b7f455243313135353a206275726e2066726f6d20746865207a65726f206164647260008201527f6573730000000000000000000000000000000000000000000000000000000000602082015250565b60006137436023836127bd565b915061374e826136e7565b604082019050919050565b6000602082019050818103600083015261377281613736565b9050919050565b7f455243313135353a206275726e20616d6f756e7420657863656564732062616c60008201527f616e636500000000000000000000000000000000000000000000000000000000602082015250565b60006137d56024836127bd565b91506137e082613779565b604082019050919050565b60006020820190508181036000830152613804816137c8565b9050919050565b7f455243313135353a2073657474696e6720617070726f76616c2073746174757360008201527f20666f722073656c660000000000000000000000000000000000000000000000602082015250565b60006138676029836127bd565b91506138728261380b565b604082019050919050565b600060208201905081810360008301526138968161385a565b9050919050565b600081519050919050565b600082825260208201905092915050565b60006138c48261389d565b6138ce81856138a8565b93506138de8185602086016127ce565b6138e781612600565b840191505092915050565b600060a0820190506139076000830188612da7565b6139146020830187612da7565b6139216040830186612511565b61392e6060830185612511565b818103608083015261394081846138b9565b90509695505050505050565b60008151905061395b81612567565b92915050565b60006020828403121561397757613976612433565b5b60006139858482850161394c565b91505092915050565b60008160e01c9050919050565b600060033d11156139ba5760046000803e6139b760005161398e565b90505b90565b600060443d10156139cd57613a50565b6139d5612429565b60043d036004823e80513d602482011167ffffffffffffffff821117156139fd575050613a50565b808201805167ffffffffffffffff811115613a1b5750505050613a50565b80602083010160043d038501811115613a38575050505050613a50565b613a4782602001850186612640565b82955050505050505b90565b7f455243313135353a207472616e7366657220746f206e6f6e2d4552433131353560008201527f526563656976657220696d706c656d656e746572000000000000000000000000602082015250565b6000613aaf6034836127bd565b9150613aba82613a53565b604082019050919050565b60006020820190508181036000830152613ade81613aa2565b9050919050565b7f455243313135353a204552433131353552656365697665722072656a6563746560008201527f6420746f6b656e73000000000000000000000000000000000000000000000000602082015250565b6000613b416028836127bd565b9150613b4c82613ae5565b604082019050919050565b60006020820190508181036000830152613b7081613b34565b9050919050565b600060a082019050613b8c6000830188612da7565b613b996020830187612da7565b8181036040830152613bab8186612c9c565b90508181036060830152613bbf8185612c9c565b90508181036080830152613bd381846138b9565b90509695505050505050565b7f455243313135353a206275726e20616d6f756e74206578636565647320746f7460008201527f616c537570706c79000000000000000000000000000000000000000000000000602082015250565b6000613c3b6028836127bd565b9150613c4682613bdf565b604082019050919050565b60006020820190508181036000830152613c6a81613c2e565b905091905056fea2646970667358221220f6d5502b45687d972f4366e322bbfb27b0e38655a96bf8f0dae9a831f78da4e664736f6c6343000809003368747470733a2f2f676174657761792e70696e6174612e636c6f75642f697066732f516d56547859325874334b6a6e72766f444373587065783168446650784561705747446371686e53314a536a3832",
  "linkReferences": {},
  "deployedLinkReferences": {}
}