{
  "_format": "hh-sol-artifact-1",
  "contractName": "AndyChill",
  "sourceName": "contracts/AndyChill.sol",
  "abi": [
    {
      "inputs": [],
      "stateMutability": "nonpayable",
      "type": "constructor"
    },
    {
      "anonymous": false,
      "inputs": [
        {
          "indexed": true,
          "internalType": "address",
          "name": "account",
          "type": "address"
        },
        {
          "indexed": true,
          "internalType": "address",
          "name": "operator",
          "type": "address"
        },
        {
          "indexed": false,
          "internalType": "bool",
          "name": "approved",
          "type": "bool"
        }
      ],
      "name": "ApprovalForAll",
      "type": "event"
    },
    {
      "anonymous": false,
      "inputs": [
        {
          "indexed": true,
          "internalType": "address",
          "name": "previousOwner",
          "type": "address"
        },
        {
          "indexed": true,
          "internalType": "address",
          "name": "newOwner",
          "type": "address"
        }
      ],
      "name": "OwnershipTransferred",
      "type": "event"
    },
    {
      "anonymous": false,
      "inputs": [
        {
          "indexed": true,
          "internalType": "address",
          "name": "operator",
          "type": "address"
        },
        {
          "indexed": true,
          "internalType": "address",
          "name": "from",
          "type": "address"
        },
        {
          "indexed": true,
          "internalType": "address",
          "name": "to",
          "type": "address"
        },
        {
          "indexed": false,
          "internalType": "uint256[]",
          "name": "ids",
          "type": "uint256[]"
        },
        {
          "indexed": false,
          "internalType": "uint256[]",
          "name": "values",
          "type": "uint256[]"
        }
      ],
      "name": "TransferBatch",
      "type": "event"
    },
    {
      "anonymous": false,
      "inputs": [
        {
          "indexed": true,
          "internalType": "address",
          "name": "operator",
          "type": "address"
        },
        {
          "indexed": true,
          "internalType": "address",
          "name": "from",
          "type": "address"
        },
        {
          "indexed": true,
          "internalType": "address",
          "name": "to",
          "type": "address"
        },
        {
          "indexed": false,
          "internalType": "uint256",
          "name": "id",
          "type": "uint256"
        },
        {
          "indexed": false,
          "internalType": "uint256",
          "name": "value",
          "type": "uint256"
        }
      ],
      "name": "TransferSingle",
      "type": "event"
    },
    {
      "anonymous": false,
      "inputs": [
        {
          "indexed": false,
          "internalType": "string",
          "name": "value",
          "type": "string"
        },
        {
          "indexed": true,
          "internalType": "uint256",
          "name": "id",
          "type": "uint256"
        }
      ],
      "name": "URI",
      "type": "event"
    },
    {
      "inputs": [
        {
          "internalType": "address",
          "name": "account",
          "type": "address"
        },
        {
          "internalType": "uint256",
          "name": "id",
          "type": "uint256"
        }
      ],
      "name": "balanceOf",
      "outputs": [
        {
          "internalType": "uint256",
          "name": "",
          "type": "uint256"
        }
      ],
      "stateMutability": "view",
      "type": "function"
    },
    {
      "inputs": [
        {
          "internalType": "address[]",
          "name": "accounts",
          "type": "address[]"
        },
        {
          "internalType": "uint256[]",
          "name": "ids",
          "type": "uint256[]"
        }
      ],
      "name": "balanceOfBatch",
      "outputs": [
        {
          "internalType": "uint256[]",
          "name": "",
          "type": "uint256[]"
        }
      ],
      "stateMutability": "view",
      "type": "function"
    },
    {
      "inputs": [
        {
          "internalType": "address",
          "name": "",
          "type": "address"
        }
      ],
      "name": "balances",
      "outputs": [
        {
          "internalType": "uint256",
          "name": "",
          "type": "uint256"
        }
      ],
      "stateMutability": "view",
      "type": "function"
    },
    {
      "inputs": [
        {
          "internalType": "address",
          "name": "account",
          "type": "address"
        },
        {
          "internalType": "uint256",
          "name": "id",
          "type": "uint256"
        },
        {
          "internalType": "uint256",
          "name": "value",
          "type": "uint256"
        }
      ],
      "name": "burn",
      "outputs": [],
      "stateMutability": "nonpayable",
      "type": "function"
    },
    {
      "inputs": [
        {
          "internalType": "address",
          "name": "account",
          "type": "address"
        },
        {
          "internalType": "uint256[]",
          "name": "ids",
          "type": "uint256[]"
        },
        {
          "internalType": "uint256[]",
          "name": "values",
          "type": "uint256[]"
        }
      ],
      "name": "burnBatch",
      "outputs": [],
      "stateMutability": "nonpayable",
      "type": "function"
    },
    {
      "inputs": [
        {
          "internalType": "uint256",
          "name": "id",
          "type": "uint256"
        }
      ],
      "name": "exists",
      "outputs": [
        {
          "internalType": "bool",
          "name": "",
          "type": "bool"
        }
      ],
      "stateMutability": "view",
      "type": "function"
    },
    {
      "inputs": [
        {
          "internalType": "address",
          "name": "account",
          "type": "address"
        },
        {
          "internalType": "address",
          "name": "operator",
          "type": "address"
        }
      ],
      "name": "isApprovedForAll",
      "outputs": [
        {
          "internalType": "bool",
          "name": "",
          "type": "bool"
        }
      ],
      "stateMutability": "view",
      "type": "function"
    },
    {
      "inputs": [
        {
          "internalType": "uint256",
          "name": "id",
          "type": "uint256"
        },
        {
          "internalType": "uint256",
          "name": "amount",
          "type": "uint256"
        }
      ],
      "name": "mint",
      "outputs": [],
      "stateMutability": "payable",
      "type": "function"
    },
    {
      "inputs": [],
      "name": "owner",
      "outputs": [
        {
          "internalType": "address",
          "name": "",
          "type": "address"
        }
      ],
      "stateMutability": "view",
      "type": "function"
    },
    {
      "inputs": [],
      "name": "renounceOwnership",
      "outputs": [],
      "stateMutability": "nonpayable",
      "type": "function"
    },
    {
      "inputs": [
        {
          "internalType": "address",
          "name": "from",
          "type": "address"
        },
        {
          "internalType": "address",
          "name": "to",
          "type": "address"
        },
        {
          "internalType": "uint256[]",
          "name": "ids",
          "type": "uint256[]"
        },
        {
          "internalType": "uint256[]",
          "name": "amounts",
          "type": "uint256[]"
        },
        {
          "internalType": "bytes",
          "name": "data",
          "type": "bytes"
        }
      ],
      "name": "safeBatchTransferFrom",
      "outputs": [],
      "stateMutability": "nonpayable",
      "type": "function"
    },
    {
      "inputs": [
        {
          "internalType": "address",
          "name": "from",
          "type": "address"
        },
        {
          "internalType": "address",
          "name": "to",
          "type": "address"
        },
        {
          "internalType": "uint256",
          "name": "id",
          "type": "uint256"
        },
        {
          "internalType": "uint256",
          "name": "amount",
          "type": "uint256"
        },
        {
          "internalType": "bytes",
          "name": "data",
          "type": "bytes"
        }
      ],
      "name": "safeTransferFrom",
      "outputs": [],
      "stateMutability": "nonpayable",
      "type": "function"
    },
    {
      "inputs": [
        {
          "internalType": "address",
          "name": "operator",
          "type": "address"
        },
        {
          "internalType": "bool",
          "name": "approved",
          "type": "bool"
        }
      ],
      "name": "setApprovalForAll",
      "outputs": [],
      "stateMutability": "nonpayable",
      "type": "function"
    },
    {
      "inputs": [
        {
          "internalType": "string",
          "name": "newuri",
          "type": "string"
        }
      ],
      "name": "setURI",
      "outputs": [],
      "stateMutability": "nonpayable",
      "type": "function"
    },
    {
      "inputs": [
        {
          "internalType": "bytes4",
          "name": "interfaceId",
          "type": "bytes4"
        }
      ],
      "name": "supportsInterface",
      "outputs": [
        {
          "internalType": "bool",
          "name": "",
          "type": "bool"
        }
      ],
      "stateMutability": "view",
      "type": "function"
    },
    {
      "inputs": [],
      "name": "tokenID",
      "outputs": [
        {
          "internalType": "uint256",
          "name": "",
          "type": "uint256"
        }
      ],
      "stateMutability": "view",
      "type": "function"
    },
    {
      "inputs": [
        {
          "internalType": "uint256",
          "name": "id",
          "type": "uint256"
        }
      ],
      "name": "totalSupply",
      "outputs": [
        {
          "internalType": "uint256",
          "name": "",
          "type": "uint256"
        }
      ],
      "stateMutability": "view",
      "type": "function"
    },
    {
      "inputs": [
        {
          "internalType": "address",
          "name": "newOwner",
          "type": "address"
        }
      ],
      "name": "transferOwnership",
      "outputs": [],
      "stateMutability": "nonpayable",
      "type": "function"
    },
    {
      "inputs": [
        {
          "internalType": "uint256",
          "name": "",
          "type": "uint256"
        }
      ],
      "name": "uri",
      "outputs": [
        {
          "internalType": "string",
          "name": "",
          "type": "string"
        }
      ],
      "stateMutability": "view",
      "type": "function"
    }
  ],
  "bytecode": "0x608060405260016005553480156200001657600080fd5b506040518060600160405280602e815260200162004bf7602e913962000042816200008f60201b60201c565b506200006362000057620000ab60201b60201c565b620000b360201b60201c565b62000089336005546001604051806020016040528060008152506200017960201b60201c565b620010a7565b8060029080519060200190620000a79291906200083c565b5050565b600033905090565b6000600360009054906101000a900473ffffffffffffffffffffffffffffffffffffffff16905081600360006101000a81548173ffffffffffffffffffffffffffffffffffffffff021916908373ffffffffffffffffffffffffffffffffffffffff1602179055508173ffffffffffffffffffffffffffffffffffffffff168173ffffffffffffffffffffffffffffffffffffffff167f8be0079c531659141344cd1fd0a4f28419497f9722a3daafe3b4186f6b6457e060405160405180910390a35050565b600073ffffffffffffffffffffffffffffffffffffffff168473ffffffffffffffffffffffffffffffffffffffff161415620001ec576040517f08c379a0000000000000000000000000000000000000000000000000000000008152600401620001e39062000973565b60405180910390fd5b6000620001fe620000ab60201b60201c565b9050600062000213856200036160201b60201c565b9050600062000228856200036160201b60201c565b90506200024183600089858589620003e260201b60201c565b8460008088815260200190815260200160002060008973ffffffffffffffffffffffffffffffffffffffff1673ffffffffffffffffffffffffffffffffffffffff1681526020019081526020016000206000828254620002a29190620009ce565b925050819055508673ffffffffffffffffffffffffffffffffffffffff16600073ffffffffffffffffffffffffffffffffffffffff168473ffffffffffffffffffffffffffffffffffffffff167fc3d58168c5ae7397731d063d5bbf3d657854427343f4c083240f7aacaa2d0f6289896040516200032292919062000a3c565b60405180910390a462000341836000898585896200040560201b60201c565b62000358836000898989896200040d60201b60201c565b50505050505050565b60606000600167ffffffffffffffff81111562000383576200038262000a69565b5b604051908082528060200260200182016040528015620003b25781602001602082028036833780820191505090505b5090508281600081518110620003cd57620003cc62000a98565b5b60200260200101818152505080915050919050565b620003fd8686868686866200061760201b62000cc01760201c565b505050505050565b505050505050565b620004398473ffffffffffffffffffffffffffffffffffffffff166200081160201b62000e921760201c565b156200060f578373ffffffffffffffffffffffffffffffffffffffff1663f23a6e6187878686866040518663ffffffff1660e01b81526004016200048295949392919062000bb0565b602060405180830381600087803b1580156200049d57600080fd5b505af1925050508015620004d157506040513d601f19601f82011682018060405250810190620004ce919062000c80565b60015b6200058357620004e062000cbf565b806308c379a01415620005445750620004f862000d1a565b8062000505575062000546565b806040517f08c379a00000000000000000000000000000000000000000000000000000000081526004016200053b919062000e08565b60405180910390fd5b505b6040517f08c379a00000000000000000000000000000000000000000000000000000000081526004016200057a9062000ea2565b60405180910390fd5b63f23a6e6160e01b7bffffffffffffffffffffffffffffffffffffffffffffffffffffffff1916817bffffffffffffffffffffffffffffffffffffffffffffffffffffffff1916146200060d576040517f08c379a0000000000000000000000000000000000000000000000000000000008152600401620006049062000f3a565b60405180910390fd5b505b505050505050565b620006328686868686866200083460201b62000eb51760201c565b600073ffffffffffffffffffffffffffffffffffffffff168573ffffffffffffffffffffffffffffffffffffffff161415620006f15760005b8351811015620006ef578281815181106200068b576200068a62000a98565b5b602002602001015160046000868481518110620006ad57620006ac62000a98565b5b602002602001015181526020019081526020016000206000828254620006d49190620009ce565b9250508190555080620006e79062000f5c565b90506200066b565b505b600073ffffffffffffffffffffffffffffffffffffffff168473ffffffffffffffffffffffffffffffffffffffff161415620008095760005b8351811015620008075760008482815181106200074c576200074b62000a98565b5b6020026020010151905060008483815181106200076e576200076d62000a98565b5b6020026020010151905060006004600084815260200190815260200160002054905081811015620007d6576040517f08c379a0000000000000000000000000000000000000000000000000000000008152600401620007cd9062001020565b60405180910390fd5b818103600460008581526020019081526020016000208190555050505080620007ff9062000f5c565b90506200072a565b505b505050505050565b6000808273ffffffffffffffffffffffffffffffffffffffff163b119050919050565b505050505050565b8280546200084a9062001071565b90600052602060002090601f0160209004810192826200086e5760008555620008ba565b82601f106200088957805160ff1916838001178555620008ba565b82800160010185558215620008ba579182015b82811115620008b95782518255916020019190600101906200089c565b5b509050620008c99190620008cd565b5090565b5b80821115620008e8576000816000905550600101620008ce565b5090565b600082825260208201905092915050565b7f455243313135353a206d696e7420746f20746865207a65726f2061646472657360008201527f7300000000000000000000000000000000000000000000000000000000000000602082015250565b60006200095b602183620008ec565b91506200096882620008fd565b604082019050919050565b600060208201905081810360008301526200098e816200094c565b9050919050565b6000819050919050565b7f4e487b7100000000000000000000000000000000000000000000000000000000600052601160045260246000fd5b6000620009db8262000995565b9150620009e88362000995565b9250827fffffffffffffffffffffffffffffffffffffffffffffffffffffffffffffffff0382111562000a205762000a1f6200099f565b5b828201905092915050565b62000a368162000995565b82525050565b600060408201905062000a53600083018562000a2b565b62000a62602083018462000a2b565b9392505050565b7f4e487b7100000000000000000000000000000000000000000000000000000000600052604160045260246000fd5b7f4e487b7100000000000000000000000000000000000000000000000000000000600052603260045260246000fd5b600073ffffffffffffffffffffffffffffffffffffffff82169050919050565b600062000af48262000ac7565b9050919050565b62000b068162000ae7565b82525050565b600081519050919050565b600082825260208201905092915050565b60005b8381101562000b4857808201518184015260208101905062000b2b565b8381111562000b58576000848401525b50505050565b6000601f19601f8301169050919050565b600062000b7c8262000b0c565b62000b88818562000b17565b935062000b9a81856020860162000b28565b62000ba58162000b5e565b840191505092915050565b600060a08201905062000bc7600083018862000afb565b62000bd6602083018762000afb565b62000be5604083018662000a2b565b62000bf4606083018562000a2b565b818103608083015262000c08818462000b6f565b90509695505050505050565b6000604051905090565b600080fd5b60007fffffffff0000000000000000000000000000000000000000000000000000000082169050919050565b62000c5a8162000c23565b811462000c6657600080fd5b50565b60008151905062000c7a8162000c4f565b92915050565b60006020828403121562000c995762000c9862000c1e565b5b600062000ca98482850162000c69565b91505092915050565b60008160e01c9050919050565b600060033d111562000ce15760046000803e62000cde60005162000cb2565b90505b90565b62000cef8262000b5e565b810181811067ffffffffffffffff8211171562000d115762000d1062000a69565b5b80604052505050565b600060443d101562000d2c5762000db9565b62000d3662000c14565b60043d036004823e80513d602482011167ffffffffffffffff8211171562000d6057505062000db9565b808201805167ffffffffffffffff81111562000d80575050505062000db9565b80602083010160043d03850181111562000d9f57505050505062000db9565b62000db08260200185018662000ce4565b82955050505050505b90565b600081519050919050565b600062000dd48262000dbc565b62000de08185620008ec565b935062000df281856020860162000b28565b62000dfd8162000b5e565b840191505092915050565b6000602082019050818103600083015262000e24818462000dc7565b905092915050565b7f455243313135353a207472616e7366657220746f206e6f6e2d4552433131353560008201527f526563656976657220696d706c656d656e746572000000000000000000000000602082015250565b600062000e8a603483620008ec565b915062000e978262000e2c565b604082019050919050565b6000602082019050818103600083015262000ebd8162000e7b565b9050919050565b7f455243313135353a204552433131353552656365697665722072656a6563746560008201527f6420746f6b656e73000000000000000000000000000000000000000000000000602082015250565b600062000f22602883620008ec565b915062000f2f8262000ec4565b604082019050919050565b6000602082019050818103600083015262000f558162000f13565b9050919050565b600062000f698262000995565b91507fffffffffffffffffffffffffffffffffffffffffffffffffffffffffffffffff82141562000f9f5762000f9e6200099f565b5b600182019050919050565b7f455243313135353a206275726e20616d6f756e74206578636565647320746f7460008201527f616c537570706c79000000000000000000000000000000000000000000000000602082015250565b600062001008602883620008ec565b9150620010158262000faa565b604082019050919050565b600060208201905081810360008301526200103b8162000ff9565b9050919050565b7f4e487b7100000000000000000000000000000000000000000000000000000000600052602260045260246000fd5b600060028204905060018216806200108a57607f821691505b60208210811415620010a157620010a062001042565b5b50919050565b613b4080620010b76000396000f3fe6080604052600436106101135760003560e01c80636b20c454116100a0578063bd85b03911610064578063bd85b039146103b3578063e985e9c5146103f0578063f242432a1461042d578063f2fde38b14610456578063f5298aca1461047f57610113565b80636b20c454146102f4578063715018a61461031d5780638da5cb5b14610334578063a22cb4651461035f578063a5c42ef11461038857610113565b80631b2ef1ca116100e75780631b2ef1ca146101f857806327e235e3146102145780632eb2c2d6146102515780634e1273f41461027a5780634f558e79146102b757610113565b8062fdd58e1461011857806301ffc9a71461015557806302fe5305146101925780630e89341c146101bb575b600080fd5b34801561012457600080fd5b5061013f600480360381019061013a9190612430565b6104a8565b60405161014c919061247f565b60405180910390f35b34801561016157600080fd5b5061017c600480360381019061017791906124f2565b610571565b604051610189919061253a565b60405180910390f35b34801561019e57600080fd5b506101b960048036038101906101b4919061269b565b610653565b005b3480156101c757600080fd5b506101e260048036038101906101dd91906126e4565b610667565b6040516101ef9190612799565b60405180910390f35b610212600480360381019061020d91906127bb565b6106fb565b005b34801561022057600080fd5b5061023b600480360381019061023691906127fb565b610770565b604051610248919061247f565b60405180910390f35b34801561025d57600080fd5b5061027860048036038101906102739190612991565b610788565b005b34801561028657600080fd5b506102a1600480360381019061029c9190612b23565b610829565b6040516102ae9190612c59565b60405180910390f35b3480156102c357600080fd5b506102de60048036038101906102d991906126e4565b610942565b6040516102eb919061253a565b60405180910390f35b34801561030057600080fd5b5061031b60048036038101906103169190612c7b565b610956565b005b34801561032957600080fd5b506103326109f3565b005b34801561034057600080fd5b50610349610a07565b6040516103569190612d15565b60405180910390f35b34801561036b57600080fd5b5061038660048036038101906103819190612d5c565b610a31565b005b34801561039457600080fd5b5061039d610a47565b6040516103aa919061247f565b60405180910390f35b3480156103bf57600080fd5b506103da60048036038101906103d591906126e4565b610a4d565b6040516103e7919061247f565b60405180910390f35b3480156103fc57600080fd5b5061041760048036038101906104129190612d9c565b610a6a565b604051610424919061253a565b60405180910390f35b34801561043957600080fd5b50610454600480360381019061044f9190612ddc565b610afe565b005b34801561046257600080fd5b5061047d600480360381019061047891906127fb565b610b9f565b005b34801561048b57600080fd5b506104a660048036038101906104a19190612e73565b610c23565b005b60008073ffffffffffffffffffffffffffffffffffffffff168373ffffffffffffffffffffffffffffffffffffffff161415610519576040517f08c379a000000000000000000000000000000000000000000000000000000000815260040161051090612f38565b60405180910390fd5b60008083815260200190815260200160002060008473ffffffffffffffffffffffffffffffffffffffff1673ffffffffffffffffffffffffffffffffffffffff16815260200190815260200160002054905092915050565b60007fd9b67a26000000000000000000000000000000000000000000000000000000007bffffffffffffffffffffffffffffffffffffffffffffffffffffffff1916827bffffffffffffffffffffffffffffffffffffffffffffffffffffffff1916148061063c57507f0e89341c000000000000000000000000000000000000000000000000000000007bffffffffffffffffffffffffffffffffffffffffffffffffffffffff1916827bffffffffffffffffffffffffffffffffffffffffffffffffffffffff1916145b8061064c575061064b82610ebd565b5b9050919050565b61065b610f27565b61066481610fa5565b50565b60606002805461067690612f87565b80601f01602080910402602001604051908101604052809291908181526020018280546106a290612f87565b80156106ef5780601f106106c4576101008083540402835291602001916106ef565b820191906000526020600020905b8154815290600101906020018083116106d257829003601f168201915b50505050509050919050565b80600660003373ffffffffffffffffffffffffffffffffffffffff1673ffffffffffffffffffffffffffffffffffffffff168152602001908152602001600020600082825461074a9190612fe8565b9250508190555061076c33838360405180602001604052806000815250610fbf565b5050565b60066020528060005260406000206000915090505481565b610790611170565b73ffffffffffffffffffffffffffffffffffffffff168573ffffffffffffffffffffffffffffffffffffffff1614806107d657506107d5856107d0611170565b610a6a565b5b610815576040517f08c379a000000000000000000000000000000000000000000000000000000000815260040161080c906130b0565b60405180910390fd5b6108228585858585611178565b5050505050565b6060815183511461086f576040517f08c379a000000000000000000000000000000000000000000000000000000000815260040161086690613142565b60405180910390fd5b6000835167ffffffffffffffff81111561088c5761088b612570565b5b6040519080825280602002602001820160405280156108ba5781602001602082028036833780820191505090505b50905060005b8451811015610937576109078582815181106108df576108de613162565b5b60200260200101518583815181106108fa576108f9613162565b5b60200260200101516104a8565b82828151811061091a57610919613162565b5b6020026020010181815250508061093090613191565b90506108c0565b508091505092915050565b60008061094e83610a4d565b119050919050565b61095e611170565b73ffffffffffffffffffffffffffffffffffffffff168373ffffffffffffffffffffffffffffffffffffffff1614806109a457506109a38361099e611170565b610a6a565b5b6109e3576040517f08c379a00000000000000000000000000000000000000000000000000000000081526004016109da906130b0565b60405180910390fd5b6109ee83838361149a565b505050565b6109fb610f27565b610a056000611769565b565b6000600360009054906101000a900473ffffffffffffffffffffffffffffffffffffffff16905090565b610a43610a3c611170565b838361182f565b5050565b60055481565b600060046000838152602001908152602001600020549050919050565b6000600160008473ffffffffffffffffffffffffffffffffffffffff1673ffffffffffffffffffffffffffffffffffffffff16815260200190815260200160002060008373ffffffffffffffffffffffffffffffffffffffff1673ffffffffffffffffffffffffffffffffffffffff16815260200190815260200160002060009054906101000a900460ff16905092915050565b610b06611170565b73ffffffffffffffffffffffffffffffffffffffff168573ffffffffffffffffffffffffffffffffffffffff161480610b4c5750610b4b85610b46611170565b610a6a565b5b610b8b576040517f08c379a0000000000000000000000000000000000000000000000000000000008152600401610b82906130b0565b60405180910390fd5b610b98858585858561199c565b5050505050565b610ba7610f27565b600073ffffffffffffffffffffffffffffffffffffffff168173ffffffffffffffffffffffffffffffffffffffff161415610c17576040517f08c379a0000000000000000000000000000000000000000000000000000000008152600401610c0e9061324c565b60405180910390fd5b610c2081611769565b50565b610c2b611170565b73ffffffffffffffffffffffffffffffffffffffff168373ffffffffffffffffffffffffffffffffffffffff161480610c715750610c7083610c6b611170565b610a6a565b5b610cb0576040517f08c379a0000000000000000000000000000000000000000000000000000000008152600401610ca7906130b0565b60405180910390fd5b610cbb838383611c38565b505050565b610cce868686868686610eb5565b600073ffffffffffffffffffffffffffffffffffffffff168573ffffffffffffffffffffffffffffffffffffffff161415610d805760005b8351811015610d7e57828181518110610d2257610d21613162565b5b602002602001015160046000868481518110610d4157610d40613162565b5b602002602001015181526020019081526020016000206000828254610d669190612fe8565b9250508190555080610d7790613191565b9050610d06565b505b600073ffffffffffffffffffffffffffffffffffffffff168473ffffffffffffffffffffffffffffffffffffffff161415610e8a5760005b8351811015610e88576000848281518110610dd657610dd5613162565b5b602002602001015190506000848381518110610df557610df4613162565b5b6020026020010151905060006004600084815260200190815260200160002054905081811015610e5a576040517f08c379a0000000000000000000000000000000000000000000000000000000008152600401610e51906132de565b60405180910390fd5b818103600460008581526020019081526020016000208190555050505080610e8190613191565b9050610db8565b505b505050505050565b6000808273ffffffffffffffffffffffffffffffffffffffff163b119050919050565b505050505050565b60007f01ffc9a7000000000000000000000000000000000000000000000000000000007bffffffffffffffffffffffffffffffffffffffffffffffffffffffff1916827bffffffffffffffffffffffffffffffffffffffffffffffffffffffff1916149050919050565b610f2f611170565b73ffffffffffffffffffffffffffffffffffffffff16610f4d610a07565b73ffffffffffffffffffffffffffffffffffffffff1614610fa3576040517f08c379a0000000000000000000000000000000000000000000000000000000008152600401610f9a9061334a565b60405180910390fd5b565b8060029080519060200190610fbb9291906122e5565b5050565b600073ffffffffffffffffffffffffffffffffffffffff168473ffffffffffffffffffffffffffffffffffffffff16141561102f576040517f08c379a0000000000000000000000000000000000000000000000000000000008152600401611026906133dc565b60405180910390fd5b6000611039611170565b9050600061104685611e7f565b9050600061105385611e7f565b905061106483600089858589611ef9565b8460008088815260200190815260200160002060008973ffffffffffffffffffffffffffffffffffffffff1673ffffffffffffffffffffffffffffffffffffffff16815260200190815260200160002060008282546110c39190612fe8565b925050819055508673ffffffffffffffffffffffffffffffffffffffff16600073ffffffffffffffffffffffffffffffffffffffff168473ffffffffffffffffffffffffffffffffffffffff167fc3d58168c5ae7397731d063d5bbf3d657854427343f4c083240f7aacaa2d0f6289896040516111419291906133fc565b60405180910390a461115883600089858589611f0f565b61116783600089898989611f17565b50505050505050565b600033905090565b81518351146111bc576040517f08c379a00000000000000000000000000000000000000000000000000000000081526004016111b390613497565b60405180910390fd5b600073ffffffffffffffffffffffffffffffffffffffff168473ffffffffffffffffffffffffffffffffffffffff16141561122c576040517f08c379a000000000000000000000000000000000000000000000000000000000815260040161122390613529565b60405180910390fd5b6000611236611170565b9050611246818787878787611ef9565b60005b84518110156113f757600085828151811061126757611266613162565b5b60200260200101519050600085838151811061128657611285613162565b5b60200260200101519050600080600084815260200190815260200160002060008b73ffffffffffffffffffffffffffffffffffffffff1673ffffffffffffffffffffffffffffffffffffffff16815260200190815260200160002054905081811015611327576040517f08c379a000000000000000000000000000000000000000000000000000000000815260040161131e906135bb565b60405180910390fd5b81810360008085815260200190815260200160002060008c73ffffffffffffffffffffffffffffffffffffffff1673ffffffffffffffffffffffffffffffffffffffff168152602001908152602001600020819055508160008085815260200190815260200160002060008b73ffffffffffffffffffffffffffffffffffffffff1673ffffffffffffffffffffffffffffffffffffffff16815260200190815260200160002060008282546113dc9190612fe8565b92505081905550505050806113f090613191565b9050611249565b508473ffffffffffffffffffffffffffffffffffffffff168673ffffffffffffffffffffffffffffffffffffffff168273ffffffffffffffffffffffffffffffffffffffff167f4a39dc06d4c0dbc64b70af90fd698a233a518aa5d07e595d983b8c0526c8f7fb878760405161146e9291906135db565b60405180910390a4611484818787878787611f0f565b6114928187878787876120fe565b505050505050565b600073ffffffffffffffffffffffffffffffffffffffff168373ffffffffffffffffffffffffffffffffffffffff16141561150a576040517f08c379a000000000000000000000000000000000000000000000000000000000815260040161150190613684565b60405180910390fd5b805182511461154e576040517f08c379a000000000000000000000000000000000000000000000000000000000815260040161154590613497565b60405180910390fd5b6000611558611170565b905061157881856000868660405180602001604052806000815250611ef9565b60005b83518110156116c557600084828151811061159957611598613162565b5b6020026020010151905060008483815181106115b8576115b7613162565b5b60200260200101519050600080600084815260200190815260200160002060008973ffffffffffffffffffffffffffffffffffffffff1673ffffffffffffffffffffffffffffffffffffffff16815260200190815260200160002054905081811015611659576040517f08c379a000000000000000000000000000000000000000000000000000000000815260040161165090613716565b60405180910390fd5b81810360008085815260200190815260200160002060008a73ffffffffffffffffffffffffffffffffffffffff1673ffffffffffffffffffffffffffffffffffffffff1681526020019081526020016000208190555050505080806116bd90613191565b91505061157b565b50600073ffffffffffffffffffffffffffffffffffffffff168473ffffffffffffffffffffffffffffffffffffffff168273ffffffffffffffffffffffffffffffffffffffff167f4a39dc06d4c0dbc64b70af90fd698a233a518aa5d07e595d983b8c0526c8f7fb868660405161173d9291906135db565b60405180910390a461176381856000868660405180602001604052806000815250611f0f565b50505050565b6000600360009054906101000a900473ffffffffffffffffffffffffffffffffffffffff16905081600360006101000a81548173ffffffffffffffffffffffffffffffffffffffff021916908373ffffffffffffffffffffffffffffffffffffffff1602179055508173ffffffffffffffffffffffffffffffffffffffff168173ffffffffffffffffffffffffffffffffffffffff167f8be0079c531659141344cd1fd0a4f28419497f9722a3daafe3b4186f6b6457e060405160405180910390a35050565b8173ffffffffffffffffffffffffffffffffffffffff168373ffffffffffffffffffffffffffffffffffffffff16141561189e576040517f08c379a0000000000000000000000000000000000000000000000000000000008152600401611895906137a8565b60405180910390fd5b80600160008573ffffffffffffffffffffffffffffffffffffffff1673ffffffffffffffffffffffffffffffffffffffff16815260200190815260200160002060008473ffffffffffffffffffffffffffffffffffffffff1673ffffffffffffffffffffffffffffffffffffffff16815260200190815260200160002060006101000a81548160ff0219169083151502179055508173ffffffffffffffffffffffffffffffffffffffff168373ffffffffffffffffffffffffffffffffffffffff167f17307eab39ab6107e8899845ad3d59bd9653f200f220920489ca2b5937696c318360405161198f919061253a565b60405180910390a3505050565b600073ffffffffffffffffffffffffffffffffffffffff168473ffffffffffffffffffffffffffffffffffffffff161415611a0c576040517f08c379a0000000000000000000000000000000000000000000000000000000008152600401611a0390613529565b60405180910390fd5b6000611a16611170565b90506000611a2385611e7f565b90506000611a3085611e7f565b9050611a40838989858589611ef9565b600080600088815260200190815260200160002060008a73ffffffffffffffffffffffffffffffffffffffff1673ffffffffffffffffffffffffffffffffffffffff16815260200190815260200160002054905085811015611ad7576040517f08c379a0000000000000000000000000000000000000000000000000000000008152600401611ace906135bb565b60405180910390fd5b85810360008089815260200190815260200160002060008b73ffffffffffffffffffffffffffffffffffffffff1673ffffffffffffffffffffffffffffffffffffffff168152602001908152602001600020819055508560008089815260200190815260200160002060008a73ffffffffffffffffffffffffffffffffffffffff1673ffffffffffffffffffffffffffffffffffffffff1681526020019081526020016000206000828254611b8c9190612fe8565b925050819055508773ffffffffffffffffffffffffffffffffffffffff168973ffffffffffffffffffffffffffffffffffffffff168573ffffffffffffffffffffffffffffffffffffffff167fc3d58168c5ae7397731d063d5bbf3d657854427343f4c083240f7aacaa2d0f628a8a604051611c099291906133fc565b60405180910390a4611c1f848a8a86868a611f0f565b611c2d848a8a8a8a8a611f17565b505050505050505050565b600073ffffffffffffffffffffffffffffffffffffffff168373ffffffffffffffffffffffffffffffffffffffff161415611ca8576040517f08c379a0000000000000000000000000000000000000000000000000000000008152600401611c9f90613684565b60405180910390fd5b6000611cb2611170565b90506000611cbf84611e7f565b90506000611ccc84611e7f565b9050611cec83876000858560405180602001604052806000815250611ef9565b600080600087815260200190815260200160002060008873ffffffffffffffffffffffffffffffffffffffff1673ffffffffffffffffffffffffffffffffffffffff16815260200190815260200160002054905084811015611d83576040517f08c379a0000000000000000000000000000000000000000000000000000000008152600401611d7a90613716565b60405180910390fd5b84810360008088815260200190815260200160002060008973ffffffffffffffffffffffffffffffffffffffff1673ffffffffffffffffffffffffffffffffffffffff16815260200190815260200160002081905550600073ffffffffffffffffffffffffffffffffffffffff168773ffffffffffffffffffffffffffffffffffffffff168573ffffffffffffffffffffffffffffffffffffffff167fc3d58168c5ae7397731d063d5bbf3d657854427343f4c083240f7aacaa2d0f628989604051611e509291906133fc565b60405180910390a4611e7684886000868660405180602001604052806000815250611f0f565b50505050505050565b60606000600167ffffffffffffffff811115611e9e57611e9d612570565b5b604051908082528060200260200182016040528015611ecc5781602001602082028036833780820191505090505b5090508281600081518110611ee457611ee3613162565b5b60200260200101818152505080915050919050565b611f07868686868686610cc0565b505050505050565b505050505050565b611f368473ffffffffffffffffffffffffffffffffffffffff16610e92565b156120f6578373ffffffffffffffffffffffffffffffffffffffff1663f23a6e6187878686866040518663ffffffff1660e01b8152600401611f7c95949392919061381d565b602060405180830381600087803b158015611f9657600080fd5b505af1925050508015611fc757506040513d601f19601f82011682018060405250810190611fc4919061388c565b60015b61206d57611fd36138c6565b806308c379a014156120305750611fe86138e8565b80611ff35750612032565b806040517f08c379a00000000000000000000000000000000000000000000000000000000081526004016120279190612799565b60405180910390fd5b505b6040517f08c379a0000000000000000000000000000000000000000000000000000000008152600401612064906139f0565b60405180910390fd5b63f23a6e6160e01b7bffffffffffffffffffffffffffffffffffffffffffffffffffffffff1916817bffffffffffffffffffffffffffffffffffffffffffffffffffffffff1916146120f4576040517f08c379a00000000000000000000000000000000000000000000000000000000081526004016120eb90613a82565b60405180910390fd5b505b505050505050565b61211d8473ffffffffffffffffffffffffffffffffffffffff16610e92565b156122dd578373ffffffffffffffffffffffffffffffffffffffff1663bc197c8187878686866040518663ffffffff1660e01b8152600401612163959493929190613aa2565b602060405180830381600087803b15801561217d57600080fd5b505af19250505080156121ae57506040513d601f19601f820116820180604052508101906121ab919061388c565b60015b612254576121ba6138c6565b806308c379a0141561221757506121cf6138e8565b806121da5750612219565b806040517f08c379a000000000000000000000000000000000000000000000000000000000815260040161220e9190612799565b60405180910390fd5b505b6040517f08c379a000000000000000000000000000000000000000000000000000000000815260040161224b906139f0565b60405180910390fd5b63bc197c8160e01b7bffffffffffffffffffffffffffffffffffffffffffffffffffffffff1916817bffffffffffffffffffffffffffffffffffffffffffffffffffffffff1916146122db576040517f08c379a00000000000000000000000000000000000000000000000000000000081526004016122d290613a82565b60405180910390fd5b505b505050505050565b8280546122f190612f87565b90600052602060002090601f016020900481019282612313576000855561235a565b82601f1061232c57805160ff191683800117855561235a565b8280016001018555821561235a579182015b8281111561235957825182559160200191906001019061233e565b5b509050612367919061236b565b5090565b5b8082111561238457600081600090555060010161236c565b5090565b6000604051905090565b600080fd5b600080fd5b600073ffffffffffffffffffffffffffffffffffffffff82169050919050565b60006123c78261239c565b9050919050565b6123d7816123bc565b81146123e257600080fd5b50565b6000813590506123f4816123ce565b92915050565b6000819050919050565b61240d816123fa565b811461241857600080fd5b50565b60008135905061242a81612404565b92915050565b6000806040838503121561244757612446612392565b5b6000612455858286016123e5565b92505060206124668582860161241b565b9150509250929050565b612479816123fa565b82525050565b60006020820190506124946000830184612470565b92915050565b60007fffffffff0000000000000000000000000000000000000000000000000000000082169050919050565b6124cf8161249a565b81146124da57600080fd5b50565b6000813590506124ec816124c6565b92915050565b60006020828403121561250857612507612392565b5b6000612516848285016124dd565b91505092915050565b60008115159050919050565b6125348161251f565b82525050565b600060208201905061254f600083018461252b565b92915050565b600080fd5b600080fd5b6000601f19601f8301169050919050565b7f4e487b7100000000000000000000000000000000000000000000000000000000600052604160045260246000fd5b6125a88261255f565b810181811067ffffffffffffffff821117156125c7576125c6612570565b5b80604052505050565b60006125da612388565b90506125e6828261259f565b919050565b600067ffffffffffffffff82111561260657612605612570565b5b61260f8261255f565b9050602081019050919050565b82818337600083830152505050565b600061263e612639846125eb565b6125d0565b90508281526020810184848401111561265a5761265961255a565b5b61266584828561261c565b509392505050565b600082601f83011261268257612681612555565b5b813561269284826020860161262b565b91505092915050565b6000602082840312156126b1576126b0612392565b5b600082013567ffffffffffffffff8111156126cf576126ce612397565b5b6126db8482850161266d565b91505092915050565b6000602082840312156126fa576126f9612392565b5b60006127088482850161241b565b91505092915050565b600081519050919050565b600082825260208201905092915050565b60005b8381101561274b578082015181840152602081019050612730565b8381111561275a576000848401525b50505050565b600061276b82612711565b612775818561271c565b935061278581856020860161272d565b61278e8161255f565b840191505092915050565b600060208201905081810360008301526127b38184612760565b905092915050565b600080604083850312156127d2576127d1612392565b5b60006127e08582860161241b565b92505060206127f18582860161241b565b9150509250929050565b60006020828403121561281157612810612392565b5b600061281f848285016123e5565b91505092915050565b600067ffffffffffffffff82111561284357612842612570565b5b602082029050602081019050919050565b600080fd5b600061286c61286784612828565b6125d0565b9050808382526020820190506020840283018581111561288f5761288e612854565b5b835b818110156128b857806128a4888261241b565b845260208401935050602081019050612891565b5050509392505050565b600082601f8301126128d7576128d6612555565b5b81356128e7848260208601612859565b91505092915050565b600067ffffffffffffffff82111561290b5761290a612570565b5b6129148261255f565b9050602081019050919050565b600061293461292f846128f0565b6125d0565b9050828152602081018484840111156129505761294f61255a565b5b61295b84828561261c565b509392505050565b600082601f83011261297857612977612555565b5b8135612988848260208601612921565b91505092915050565b600080600080600060a086880312156129ad576129ac612392565b5b60006129bb888289016123e5565b95505060206129cc888289016123e5565b945050604086013567ffffffffffffffff8111156129ed576129ec612397565b5b6129f9888289016128c2565b935050606086013567ffffffffffffffff811115612a1a57612a19612397565b5b612a26888289016128c2565b925050608086013567ffffffffffffffff811115612a4757612a46612397565b5b612a5388828901612963565b9150509295509295909350565b600067ffffffffffffffff821115612a7b57612a7a612570565b5b602082029050602081019050919050565b6000612a9f612a9a84612a60565b6125d0565b90508083825260208201905060208402830185811115612ac257612ac1612854565b5b835b81811015612aeb5780612ad788826123e5565b845260208401935050602081019050612ac4565b5050509392505050565b600082601f830112612b0a57612b09612555565b5b8135612b1a848260208601612a8c565b91505092915050565b60008060408385031215612b3a57612b39612392565b5b600083013567ffffffffffffffff811115612b5857612b57612397565b5b612b6485828601612af5565b925050602083013567ffffffffffffffff811115612b8557612b84612397565b5b612b91858286016128c2565b9150509250929050565b600081519050919050565b600082825260208201905092915050565b6000819050602082019050919050565b612bd0816123fa565b82525050565b6000612be28383612bc7565b60208301905092915050565b6000602082019050919050565b6000612c0682612b9b565b612c108185612ba6565b9350612c1b83612bb7565b8060005b83811015612c4c578151612c338882612bd6565b9750612c3e83612bee565b925050600181019050612c1f565b5085935050505092915050565b60006020820190508181036000830152612c738184612bfb565b905092915050565b600080600060608486031215612c9457612c93612392565b5b6000612ca2868287016123e5565b935050602084013567ffffffffffffffff811115612cc357612cc2612397565b5b612ccf868287016128c2565b925050604084013567ffffffffffffffff811115612cf057612cef612397565b5b612cfc868287016128c2565b9150509250925092565b612d0f816123bc565b82525050565b6000602082019050612d2a6000830184612d06565b92915050565b612d398161251f565b8114612d4457600080fd5b50565b600081359050612d5681612d30565b92915050565b60008060408385031215612d7357612d72612392565b5b6000612d81858286016123e5565b9250506020612d9285828601612d47565b9150509250929050565b60008060408385031215612db357612db2612392565b5b6000612dc1858286016123e5565b9250506020612dd2858286016123e5565b9150509250929050565b600080600080600060a08688031215612df857612df7612392565b5b6000612e06888289016123e5565b9550506020612e17888289016123e5565b9450506040612e288882890161241b565b9350506060612e398882890161241b565b925050608086013567ffffffffffffffff811115612e5a57612e59612397565b5b612e6688828901612963565b9150509295509295909350565b600080600060608486031215612e8c57612e8b612392565b5b6000612e9a868287016123e5565b9350506020612eab8682870161241b565b9250506040612ebc8682870161241b565b9150509250925092565b7f455243313135353a2061646472657373207a65726f206973206e6f742061207660008201527f616c6964206f776e657200000000000000000000000000000000000000000000602082015250565b6000612f22602a8361271c565b9150612f2d82612ec6565b604082019050919050565b60006020820190508181036000830152612f5181612f15565b9050919050565b7f4e487b7100000000000000000000000000000000000000000000000000000000600052602260045260246000fd5b60006002820490506001821680612f9f57607f821691505b60208210811415612fb357612fb2612f58565b5b50919050565b7f4e487b7100000000000000000000000000000000000000000000000000000000600052601160045260246000fd5b6000612ff3826123fa565b9150612ffe836123fa565b9250827fffffffffffffffffffffffffffffffffffffffffffffffffffffffffffffffff0382111561303357613032612fb9565b5b828201905092915050565b7f455243313135353a2063616c6c6572206973206e6f7420746f6b656e206f776e60008201527f6572206f7220617070726f766564000000000000000000000000000000000000602082015250565b600061309a602e8361271c565b91506130a58261303e565b604082019050919050565b600060208201905081810360008301526130c98161308d565b9050919050565b7f455243313135353a206163636f756e747320616e6420696473206c656e67746860008201527f206d69736d617463680000000000000000000000000000000000000000000000602082015250565b600061312c60298361271c565b9150613137826130d0565b604082019050919050565b6000602082019050818103600083015261315b8161311f565b9050919050565b7f4e487b7100000000000000000000000000000000000000000000000000000000600052603260045260246000fd5b600061319c826123fa565b91507fffffffffffffffffffffffffffffffffffffffffffffffffffffffffffffffff8214156131cf576131ce612fb9565b5b600182019050919050565b7f4f776e61626c653a206e6577206f776e657220697320746865207a65726f206160008201527f6464726573730000000000000000000000000000000000000000000000000000602082015250565b600061323660268361271c565b9150613241826131da565b604082019050919050565b6000602082019050818103600083015261326581613229565b9050919050565b7f455243313135353a206275726e20616d6f756e74206578636565647320746f7460008201527f616c537570706c79000000000000000000000000000000000000000000000000602082015250565b60006132c860288361271c565b91506132d38261326c565b604082019050919050565b600060208201905081810360008301526132f7816132bb565b9050919050565b7f4f776e61626c653a2063616c6c6572206973206e6f7420746865206f776e6572600082015250565b600061333460208361271c565b915061333f826132fe565b602082019050919050565b6000602082019050818103600083015261336381613327565b9050919050565b7f455243313135353a206d696e7420746f20746865207a65726f2061646472657360008201527f7300000000000000000000000000000000000000000000000000000000000000602082015250565b60006133c660218361271c565b91506133d18261336a565b604082019050919050565b600060208201905081810360008301526133f5816133b9565b9050919050565b60006040820190506134116000830185612470565b61341e6020830184612470565b9392505050565b7f455243313135353a2069647320616e6420616d6f756e7473206c656e6774682060008201527f6d69736d61746368000000000000000000000000000000000000000000000000602082015250565b600061348160288361271c565b915061348c82613425565b604082019050919050565b600060208201905081810360008301526134b081613474565b9050919050565b7f455243313135353a207472616e7366657220746f20746865207a65726f20616460008201527f6472657373000000000000000000000000000000000000000000000000000000602082015250565b600061351360258361271c565b915061351e826134b7565b604082019050919050565b6000602082019050818103600083015261354281613506565b9050919050565b7f455243313135353a20696e73756666696369656e742062616c616e636520666f60008201527f72207472616e7366657200000000000000000000000000000000000000000000602082015250565b60006135a5602a8361271c565b91506135b082613549565b604082019050919050565b600060208201905081810360008301526135d481613598565b9050919050565b600060408201905081810360008301526135f58185612bfb565b905081810360208301526136098184612bfb565b90509392505050565b7f455243313135353a206275726e2066726f6d20746865207a65726f206164647260008201527f6573730000000000000000000000000000000000000000000000000000000000602082015250565b600061366e60238361271c565b915061367982613612565b604082019050919050565b6000602082019050818103600083015261369d81613661565b9050919050565b7f455243313135353a206275726e20616d6f756e7420657863656564732062616c60008201527f616e636500000000000000000000000000000000000000000000000000000000602082015250565b600061370060248361271c565b915061370b826136a4565b604082019050919050565b6000602082019050818103600083015261372f816136f3565b9050919050565b7f455243313135353a2073657474696e6720617070726f76616c2073746174757360008201527f20666f722073656c660000000000000000000000000000000000000000000000602082015250565b600061379260298361271c565b915061379d82613736565b604082019050919050565b600060208201905081810360008301526137c181613785565b9050919050565b600081519050919050565b600082825260208201905092915050565b60006137ef826137c8565b6137f981856137d3565b935061380981856020860161272d565b6138128161255f565b840191505092915050565b600060a0820190506138326000830188612d06565b61383f6020830187612d06565b61384c6040830186612470565b6138596060830185612470565b818103608083015261386b81846137e4565b90509695505050505050565b600081519050613886816124c6565b92915050565b6000602082840312156138a2576138a1612392565b5b60006138b084828501613877565b91505092915050565b60008160e01c9050919050565b600060033d11156138e55760046000803e6138e26000516138b9565b90505b90565b600060443d10156138f85761397b565b613900612388565b60043d036004823e80513d602482011167ffffffffffffffff8211171561392857505061397b565b808201805167ffffffffffffffff811115613946575050505061397b565b80602083010160043d03850181111561396357505050505061397b565b6139728260200185018661259f565b82955050505050505b90565b7f455243313135353a207472616e7366657220746f206e6f6e2d4552433131353560008201527f526563656976657220696d706c656d656e746572000000000000000000000000602082015250565b60006139da60348361271c565b91506139e58261397e565b604082019050919050565b60006020820190508181036000830152613a09816139cd565b9050919050565b7f455243313135353a204552433131353552656365697665722072656a6563746560008201527f6420746f6b656e73000000000000000000000000000000000000000000000000602082015250565b6000613a6c60288361271c565b9150613a7782613a10565b604082019050919050565b60006020820190508181036000830152613a9b81613a5f565b9050919050565b600060a082019050613ab76000830188612d06565b613ac46020830187612d06565b8181036040830152613ad68186612bfb565b90508181036060830152613aea8185612bfb565b90508181036080830152613afe81846137e4565b9050969550505050505056fea26469706673582212204fc150a9a2a307bd732adcd3e91095eeb9258d8ea2be7cc5819eff0cd91ec35864736f6c63430008090033516d56547859325874334b6a6e72766f444373587065783168446650784561705747446371686e53314a536a3832",
  "linkReferences": {},
  "deployedLinkReferences": {}
}