{
  "_format": "hh-sol-artifact-1",
  "contractName": "AndyChill",
  "sourceName": "contracts/AndyChill.sol",
  "abi": [
    {
      "inputs": [],
      "stateMutability": "nonpayable",
      "type": "constructor"
    },
    {
      "anonymous": false,
      "inputs": [
        {
          "indexed": true,
          "internalType": "address",
          "name": "account",
          "type": "address"
        },
        {
          "indexed": true,
          "internalType": "address",
          "name": "operator",
          "type": "address"
        },
        {
          "indexed": false,
          "internalType": "bool",
          "name": "approved",
          "type": "bool"
        }
      ],
      "name": "ApprovalForAll",
      "type": "event"
    },
    {
      "anonymous": false,
      "inputs": [
        {
          "indexed": false,
          "internalType": "address",
          "name": "_reciver",
          "type": "address"
        },
        {
          "indexed": false,
          "internalType": "uint256",
          "name": "_amounts",
          "type": "uint256"
        }
      ],
      "name": "MintComplete",
      "type": "event"
    },
    {
      "anonymous": false,
      "inputs": [
        {
          "indexed": true,
          "internalType": "address",
          "name": "previousOwner",
          "type": "address"
        },
        {
          "indexed": true,
          "internalType": "address",
          "name": "newOwner",
          "type": "address"
        }
      ],
      "name": "OwnershipTransferred",
      "type": "event"
    },
    {
      "anonymous": false,
      "inputs": [
        {
          "indexed": true,
          "internalType": "address",
          "name": "operator",
          "type": "address"
        },
        {
          "indexed": true,
          "internalType": "address",
          "name": "from",
          "type": "address"
        },
        {
          "indexed": true,
          "internalType": "address",
          "name": "to",
          "type": "address"
        },
        {
          "indexed": false,
          "internalType": "uint256[]",
          "name": "ids",
          "type": "uint256[]"
        },
        {
          "indexed": false,
          "internalType": "uint256[]",
          "name": "values",
          "type": "uint256[]"
        }
      ],
      "name": "TransferBatch",
      "type": "event"
    },
    {
      "anonymous": false,
      "inputs": [
        {
          "indexed": true,
          "internalType": "address",
          "name": "operator",
          "type": "address"
        },
        {
          "indexed": true,
          "internalType": "address",
          "name": "from",
          "type": "address"
        },
        {
          "indexed": true,
          "internalType": "address",
          "name": "to",
          "type": "address"
        },
        {
          "indexed": false,
          "internalType": "uint256",
          "name": "id",
          "type": "uint256"
        },
        {
          "indexed": false,
          "internalType": "uint256",
          "name": "value",
          "type": "uint256"
        }
      ],
      "name": "TransferSingle",
      "type": "event"
    },
    {
      "anonymous": false,
      "inputs": [
        {
          "indexed": false,
          "internalType": "string",
          "name": "value",
          "type": "string"
        },
        {
          "indexed": true,
          "internalType": "uint256",
          "name": "id",
          "type": "uint256"
        }
      ],
      "name": "URI",
      "type": "event"
    },
    {
      "inputs": [
        {
          "internalType": "address",
          "name": "account",
          "type": "address"
        },
        {
          "internalType": "uint256",
          "name": "id",
          "type": "uint256"
        }
      ],
      "name": "balanceOf",
      "outputs": [
        {
          "internalType": "uint256",
          "name": "",
          "type": "uint256"
        }
      ],
      "stateMutability": "view",
      "type": "function"
    },
    {
      "inputs": [
        {
          "internalType": "address[]",
          "name": "accounts",
          "type": "address[]"
        },
        {
          "internalType": "uint256[]",
          "name": "ids",
          "type": "uint256[]"
        }
      ],
      "name": "balanceOfBatch",
      "outputs": [
        {
          "internalType": "uint256[]",
          "name": "",
          "type": "uint256[]"
        }
      ],
      "stateMutability": "view",
      "type": "function"
    },
    {
      "inputs": [
        {
          "internalType": "address",
          "name": "",
          "type": "address"
        }
      ],
      "name": "balances",
      "outputs": [
        {
          "internalType": "uint256",
          "name": "",
          "type": "uint256"
        }
      ],
      "stateMutability": "view",
      "type": "function"
    },
    {
      "inputs": [
        {
          "internalType": "address",
          "name": "account",
          "type": "address"
        },
        {
          "internalType": "uint256",
          "name": "id",
          "type": "uint256"
        },
        {
          "internalType": "uint256",
          "name": "value",
          "type": "uint256"
        }
      ],
      "name": "burn",
      "outputs": [],
      "stateMutability": "nonpayable",
      "type": "function"
    },
    {
      "inputs": [
        {
          "internalType": "address",
          "name": "account",
          "type": "address"
        },
        {
          "internalType": "uint256[]",
          "name": "ids",
          "type": "uint256[]"
        },
        {
          "internalType": "uint256[]",
          "name": "values",
          "type": "uint256[]"
        }
      ],
      "name": "burnBatch",
      "outputs": [],
      "stateMutability": "nonpayable",
      "type": "function"
    },
    {
      "inputs": [
        {
          "internalType": "uint256",
          "name": "id",
          "type": "uint256"
        }
      ],
      "name": "exists",
      "outputs": [
        {
          "internalType": "bool",
          "name": "",
          "type": "bool"
        }
      ],
      "stateMutability": "view",
      "type": "function"
    },
    {
      "inputs": [
        {
          "internalType": "address",
          "name": "account",
          "type": "address"
        },
        {
          "internalType": "address",
          "name": "operator",
          "type": "address"
        }
      ],
      "name": "isApprovedForAll",
      "outputs": [
        {
          "internalType": "bool",
          "name": "",
          "type": "bool"
        }
      ],
      "stateMutability": "view",
      "type": "function"
    },
    {
      "inputs": [
        {
          "internalType": "uint256",
          "name": "_id",
          "type": "uint256"
        },
        {
          "internalType": "uint256",
          "name": "_amount",
          "type": "uint256"
        }
      ],
      "name": "mint",
      "outputs": [],
      "stateMutability": "nonpayable",
      "type": "function"
    },
    {
      "inputs": [],
      "name": "name",
      "outputs": [
        {
          "internalType": "string",
          "name": "",
          "type": "string"
        }
      ],
      "stateMutability": "view",
      "type": "function"
    },
    {
      "inputs": [],
      "name": "owner",
      "outputs": [
        {
          "internalType": "address",
          "name": "",
          "type": "address"
        }
      ],
      "stateMutability": "view",
      "type": "function"
    },
    {
      "inputs": [],
      "name": "renounceOwnership",
      "outputs": [],
      "stateMutability": "nonpayable",
      "type": "function"
    },
    {
      "inputs": [
        {
          "internalType": "address",
          "name": "from",
          "type": "address"
        },
        {
          "internalType": "address",
          "name": "to",
          "type": "address"
        },
        {
          "internalType": "uint256[]",
          "name": "ids",
          "type": "uint256[]"
        },
        {
          "internalType": "uint256[]",
          "name": "amounts",
          "type": "uint256[]"
        },
        {
          "internalType": "bytes",
          "name": "data",
          "type": "bytes"
        }
      ],
      "name": "safeBatchTransferFrom",
      "outputs": [],
      "stateMutability": "nonpayable",
      "type": "function"
    },
    {
      "inputs": [
        {
          "internalType": "address",
          "name": "from",
          "type": "address"
        },
        {
          "internalType": "address",
          "name": "to",
          "type": "address"
        },
        {
          "internalType": "uint256",
          "name": "id",
          "type": "uint256"
        },
        {
          "internalType": "uint256",
          "name": "amount",
          "type": "uint256"
        },
        {
          "internalType": "bytes",
          "name": "data",
          "type": "bytes"
        }
      ],
      "name": "safeTransferFrom",
      "outputs": [],
      "stateMutability": "nonpayable",
      "type": "function"
    },
    {
      "inputs": [
        {
          "internalType": "uint256",
          "name": "_id",
          "type": "uint256"
        },
        {
          "internalType": "uint256",
          "name": "_amount",
          "type": "uint256"
        },
        {
          "internalType": "address",
          "name": "reciver",
          "type": "address"
        }
      ],
      "name": "sendToFriend",
      "outputs": [],
      "stateMutability": "nonpayable",
      "type": "function"
    },
    {
      "inputs": [
        {
          "internalType": "address",
          "name": "operator",
          "type": "address"
        },
        {
          "internalType": "bool",
          "name": "approved",
          "type": "bool"
        }
      ],
      "name": "setApprovalForAll",
      "outputs": [],
      "stateMutability": "nonpayable",
      "type": "function"
    },
    {
      "inputs": [
        {
          "internalType": "string",
          "name": "_newuri",
          "type": "string"
        }
      ],
      "name": "setURI",
      "outputs": [],
      "stateMutability": "nonpayable",
      "type": "function"
    },
    {
      "inputs": [
        {
          "internalType": "bytes4",
          "name": "interfaceId",
          "type": "bytes4"
        }
      ],
      "name": "supportsInterface",
      "outputs": [
        {
          "internalType": "bool",
          "name": "",
          "type": "bool"
        }
      ],
      "stateMutability": "view",
      "type": "function"
    },
    {
      "inputs": [],
      "name": "symbol",
      "outputs": [
        {
          "internalType": "string",
          "name": "",
          "type": "string"
        }
      ],
      "stateMutability": "view",
      "type": "function"
    },
    {
      "inputs": [
        {
          "internalType": "uint256",
          "name": "id",
          "type": "uint256"
        }
      ],
      "name": "totalSupply",
      "outputs": [
        {
          "internalType": "uint256",
          "name": "",
          "type": "uint256"
        }
      ],
      "stateMutability": "view",
      "type": "function"
    },
    {
      "inputs": [
        {
          "internalType": "address",
          "name": "newOwner",
          "type": "address"
        }
      ],
      "name": "transferOwnership",
      "outputs": [],
      "stateMutability": "nonpayable",
      "type": "function"
    },
    {
      "inputs": [
        {
          "internalType": "uint256",
          "name": "",
          "type": "uint256"
        }
      ],
      "name": "uri",
      "outputs": [
        {
          "internalType": "string",
          "name": "",
          "type": "string"
        }
      ],
      "stateMutability": "view",
      "type": "function"
    }
  ],
  "bytecode": "0x60806040526040518060400160405280600a81526020017f416e6479204368696c6c000000000000000000000000000000000000000000008152506006908051906020019062000051929190620001ea565b506040518060400160405280600581526020017f4368696c6c000000000000000000000000000000000000000000000000000000815250600790805190602001906200009f929190620001ea565b50348015620000ad57600080fd5b506040518060800160405280605081526020016200412a60509139620000d9816200010060201b60201c565b50620000fa620000ee6200011c60201b60201c565b6200012460201b60201c565b620002ff565b806002908051906020019062000118929190620001ea565b5050565b600033905090565b6000600360009054906101000a900473ffffffffffffffffffffffffffffffffffffffff16905081600360006101000a81548173ffffffffffffffffffffffffffffffffffffffff021916908373ffffffffffffffffffffffffffffffffffffffff1602179055508173ffffffffffffffffffffffffffffffffffffffff168173ffffffffffffffffffffffffffffffffffffffff167f8be0079c531659141344cd1fd0a4f28419497f9722a3daafe3b4186f6b6457e060405160405180910390a35050565b828054620001f890620002c9565b90600052602060002090601f0160209004810192826200021c576000855562000268565b82601f106200023757805160ff191683800117855562000268565b8280016001018555821562000268579182015b82811115620002675782518255916020019190600101906200024a565b5b5090506200027791906200027b565b5090565b5b80821115620002965760008160009055506001016200027c565b5090565b7f4e487b7100000000000000000000000000000000000000000000000000000000600052602260045260246000fd5b60006002820490506001821680620002e257607f821691505b60208210811415620002f957620002f86200029a565b5b50919050565b613e1b806200030f6000396000f3fe608060405234801561001057600080fd5b50600436106101365760003560e01c80636b20c454116100b8578063a43d35ef1161007c578063a43d35ef1461034b578063bd85b03914610367578063e985e9c514610397578063f242432a146103c7578063f2fde38b146103e3578063f5298aca146103ff57610136565b80636b20c454146102cd578063715018a6146102e95780638da5cb5b146102f357806395d89b4114610311578063a22cb4651461032f57610136565b80631b2ef1ca116100ff5780631b2ef1ca1461020557806327e235e3146102215780632eb2c2d6146102515780634e1273f41461026d5780634f558e791461029d57610136565b8062fdd58e1461013b57806301ffc9a71461016b57806302fe53051461019b57806306fdde03146101b75780630e89341c146101d5575b600080fd5b61015560048036038101906101509190612623565b61041b565b6040516101629190612672565b60405180910390f35b610185600480360381019061018091906126e5565b6104e4565b604051610192919061272d565b60405180910390f35b6101b560048036038101906101b0919061288e565b6105c6565b005b6101bf6105da565b6040516101cc919061295f565b60405180910390f35b6101ef60048036038101906101ea9190612981565b610668565b6040516101fc919061295f565b60405180910390f35b61021f600480360381019061021a91906129ae565b6106fc565b005b61023b600480360381019061023691906129ee565b6107aa565b6040516102489190612672565b60405180910390f35b61026b60048036038101906102669190612b84565b6107c2565b005b61028760048036038101906102829190612d16565b610863565b6040516102949190612e4c565b60405180910390f35b6102b760048036038101906102b29190612981565b61097c565b6040516102c4919061272d565b60405180910390f35b6102e760048036038101906102e29190612e6e565b610990565b005b6102f1610a2d565b005b6102fb610a41565b6040516103089190612f08565b60405180910390f35b610319610a6b565b604051610326919061295f565b60405180910390f35b61034960048036038101906103449190612f4f565b610af9565b005b61036560048036038101906103609190612f8f565b610b0f565b005b610381600480360381019061037c9190612981565b610c40565b60405161038e9190612672565b60405180910390f35b6103b160048036038101906103ac9190612fe2565b610c5d565b6040516103be919061272d565b60405180910390f35b6103e160048036038101906103dc9190613022565b610cf1565b005b6103fd60048036038101906103f891906129ee565b610d92565b005b610419600480360381019061041491906130b9565b610e16565b005b60008073ffffffffffffffffffffffffffffffffffffffff168373ffffffffffffffffffffffffffffffffffffffff16141561048c576040517f08c379a00000000000000000000000000000000000000000000000000000000081526004016104839061317e565b60405180910390fd5b60008083815260200190815260200160002060008473ffffffffffffffffffffffffffffffffffffffff1673ffffffffffffffffffffffffffffffffffffffff16815260200190815260200160002054905092915050565b60007fd9b67a26000000000000000000000000000000000000000000000000000000007bffffffffffffffffffffffffffffffffffffffffffffffffffffffff1916827bffffffffffffffffffffffffffffffffffffffffffffffffffffffff191614806105af57507f0e89341c000000000000000000000000000000000000000000000000000000007bffffffffffffffffffffffffffffffffffffffffffffffffffffffff1916827bffffffffffffffffffffffffffffffffffffffffffffffffffffffff1916145b806105bf57506105be82610eb3565b5b9050919050565b6105ce610f1d565b6105d781610f9b565b50565b600680546105e7906131cd565b80601f0160208091040260200160405190810160405280929190818152602001828054610613906131cd565b80156106605780601f1061063557610100808354040283529160200191610660565b820191906000526020600020905b81548152906001019060200180831161064357829003601f168201915b505050505081565b606060028054610677906131cd565b80601f01602080910402602001604051908101604052809291908181526020018280546106a3906131cd565b80156106f05780601f106106c5576101008083540402835291602001916106f0565b820191906000526020600020905b8154815290600101906020018083116106d357829003601f168201915b50505050509050919050565b80600560003373ffffffffffffffffffffffffffffffffffffffff1673ffffffffffffffffffffffffffffffffffffffff168152602001908152602001600020600082825461074b919061322e565b9250508190555061076d33838360405180602001604052806000815250610fb5565b7fd2c37266a89416ebf9f94f9664a865774a6f20d0133db56f05e857348dd44ed5338260405161079e929190613284565b60405180910390a15050565b60056020528060005260406000206000915090505481565b6107ca611166565b73ffffffffffffffffffffffffffffffffffffffff168573ffffffffffffffffffffffffffffffffffffffff161480610810575061080f8561080a611166565b610c5d565b5b61084f576040517f08c379a00000000000000000000000000000000000000000000000000000000081526004016108469061331f565b60405180910390fd5b61085c858585858561116e565b5050505050565b606081518351146108a9576040517f08c379a00000000000000000000000000000000000000000000000000000000081526004016108a0906133b1565b60405180910390fd5b6000835167ffffffffffffffff8111156108c6576108c5612763565b5b6040519080825280602002602001820160405280156108f45781602001602082028036833780820191505090505b50905060005b845181101561097157610941858281518110610919576109186133d1565b5b6020026020010151858381518110610934576109336133d1565b5b602002602001015161041b565b828281518110610954576109536133d1565b5b6020026020010181815250508061096a90613400565b90506108fa565b508091505092915050565b60008061098883610c40565b119050919050565b610998611166565b73ffffffffffffffffffffffffffffffffffffffff168373ffffffffffffffffffffffffffffffffffffffff1614806109de57506109dd836109d8611166565b610c5d565b5b610a1d576040517f08c379a0000000000000000000000000000000000000000000000000000000008152600401610a149061331f565b60405180910390fd5b610a28838383611490565b505050565b610a35610f1d565b610a3f600061175f565b565b6000600360009054906101000a900473ffffffffffffffffffffffffffffffffffffffff16905090565b60078054610a78906131cd565b80601f0160208091040260200160405190810160405280929190818152602001828054610aa4906131cd565b8015610af15780601f10610ac657610100808354040283529160200191610af1565b820191906000526020600020905b815481529060010190602001808311610ad457829003601f168201915b505050505081565b610b0b610b04611166565b8383611825565b5050565b6002600560008373ffffffffffffffffffffffffffffffffffffffff1673ffffffffffffffffffffffffffffffffffffffff1681526020019081526020016000205410610b91576040517f08c379a0000000000000000000000000000000000000000000000000000000008152600401610b8890613495565b60405180910390fd5b81600560008373ffffffffffffffffffffffffffffffffffffffff1673ffffffffffffffffffffffffffffffffffffffff1681526020019081526020016000206000828254610be0919061322e565b92505081905550610c0281848460405180602001604052806000815250610fb5565b7fd2c37266a89416ebf9f94f9664a865774a6f20d0133db56f05e857348dd44ed58183604051610c33929190613284565b60405180910390a1505050565b600060046000838152602001908152602001600020549050919050565b6000600160008473ffffffffffffffffffffffffffffffffffffffff1673ffffffffffffffffffffffffffffffffffffffff16815260200190815260200160002060008373ffffffffffffffffffffffffffffffffffffffff1673ffffffffffffffffffffffffffffffffffffffff16815260200190815260200160002060009054906101000a900460ff16905092915050565b610cf9611166565b73ffffffffffffffffffffffffffffffffffffffff168573ffffffffffffffffffffffffffffffffffffffff161480610d3f5750610d3e85610d39611166565b610c5d565b5b610d7e576040517f08c379a0000000000000000000000000000000000000000000000000000000008152600401610d759061331f565b60405180910390fd5b610d8b8585858585611992565b5050505050565b610d9a610f1d565b600073ffffffffffffffffffffffffffffffffffffffff168173ffffffffffffffffffffffffffffffffffffffff161415610e0a576040517f08c379a0000000000000000000000000000000000000000000000000000000008152600401610e0190613527565b60405180910390fd5b610e138161175f565b50565b610e1e611166565b73ffffffffffffffffffffffffffffffffffffffff168373ffffffffffffffffffffffffffffffffffffffff161480610e645750610e6383610e5e611166565b610c5d565b5b610ea3576040517f08c379a0000000000000000000000000000000000000000000000000000000008152600401610e9a9061331f565b60405180910390fd5b610eae838383611c2e565b505050565b60007f01ffc9a7000000000000000000000000000000000000000000000000000000007bffffffffffffffffffffffffffffffffffffffffffffffffffffffff1916827bffffffffffffffffffffffffffffffffffffffffffffffffffffffff1916149050919050565b610f25611166565b73ffffffffffffffffffffffffffffffffffffffff16610f43610a41565b73ffffffffffffffffffffffffffffffffffffffff1614610f99576040517f08c379a0000000000000000000000000000000000000000000000000000000008152600401610f9090613593565b60405180910390fd5b565b8060029080519060200190610fb19291906124d8565b5050565b600073ffffffffffffffffffffffffffffffffffffffff168473ffffffffffffffffffffffffffffffffffffffff161415611025576040517f08c379a000000000000000000000000000000000000000000000000000000000815260040161101c90613625565b60405180910390fd5b600061102f611166565b9050600061103c85611e75565b9050600061104985611e75565b905061105a83600089858589611eef565b8460008088815260200190815260200160002060008973ffffffffffffffffffffffffffffffffffffffff1673ffffffffffffffffffffffffffffffffffffffff16815260200190815260200160002060008282546110b9919061322e565b925050819055508673ffffffffffffffffffffffffffffffffffffffff16600073ffffffffffffffffffffffffffffffffffffffff168473ffffffffffffffffffffffffffffffffffffffff167fc3d58168c5ae7397731d063d5bbf3d657854427343f4c083240f7aacaa2d0f628989604051611137929190613645565b60405180910390a461114e83600089858589611f05565b61115d83600089898989611f0d565b50505050505050565b600033905090565b81518351146111b2576040517f08c379a00000000000000000000000000000000000000000000000000000000081526004016111a9906136e0565b60405180910390fd5b600073ffffffffffffffffffffffffffffffffffffffff168473ffffffffffffffffffffffffffffffffffffffff161415611222576040517f08c379a000000000000000000000000000000000000000000000000000000000815260040161121990613772565b60405180910390fd5b600061122c611166565b905061123c818787878787611eef565b60005b84518110156113ed57600085828151811061125d5761125c6133d1565b5b60200260200101519050600085838151811061127c5761127b6133d1565b5b60200260200101519050600080600084815260200190815260200160002060008b73ffffffffffffffffffffffffffffffffffffffff1673ffffffffffffffffffffffffffffffffffffffff1681526020019081526020016000205490508181101561131d576040517f08c379a000000000000000000000000000000000000000000000000000000000815260040161131490613804565b60405180910390fd5b81810360008085815260200190815260200160002060008c73ffffffffffffffffffffffffffffffffffffffff1673ffffffffffffffffffffffffffffffffffffffff168152602001908152602001600020819055508160008085815260200190815260200160002060008b73ffffffffffffffffffffffffffffffffffffffff1673ffffffffffffffffffffffffffffffffffffffff16815260200190815260200160002060008282546113d2919061322e565b92505081905550505050806113e690613400565b905061123f565b508473ffffffffffffffffffffffffffffffffffffffff168673ffffffffffffffffffffffffffffffffffffffff168273ffffffffffffffffffffffffffffffffffffffff167f4a39dc06d4c0dbc64b70af90fd698a233a518aa5d07e595d983b8c0526c8f7fb8787604051611464929190613824565b60405180910390a461147a818787878787611f05565b6114888187878787876120f4565b505050505050565b600073ffffffffffffffffffffffffffffffffffffffff168373ffffffffffffffffffffffffffffffffffffffff161415611500576040517f08c379a00000000000000000000000000000000000000000000000000000000081526004016114f7906138cd565b60405180910390fd5b8051825114611544576040517f08c379a000000000000000000000000000000000000000000000000000000000815260040161153b906136e0565b60405180910390fd5b600061154e611166565b905061156e81856000868660405180602001604052806000815250611eef565b60005b83518110156116bb57600084828151811061158f5761158e6133d1565b5b6020026020010151905060008483815181106115ae576115ad6133d1565b5b60200260200101519050600080600084815260200190815260200160002060008973ffffffffffffffffffffffffffffffffffffffff1673ffffffffffffffffffffffffffffffffffffffff1681526020019081526020016000205490508181101561164f576040517f08c379a00000000000000000000000000000000000000000000000000000000081526004016116469061395f565b60405180910390fd5b81810360008085815260200190815260200160002060008a73ffffffffffffffffffffffffffffffffffffffff1673ffffffffffffffffffffffffffffffffffffffff1681526020019081526020016000208190555050505080806116b390613400565b915050611571565b50600073ffffffffffffffffffffffffffffffffffffffff168473ffffffffffffffffffffffffffffffffffffffff168273ffffffffffffffffffffffffffffffffffffffff167f4a39dc06d4c0dbc64b70af90fd698a233a518aa5d07e595d983b8c0526c8f7fb8686604051611733929190613824565b60405180910390a461175981856000868660405180602001604052806000815250611f05565b50505050565b6000600360009054906101000a900473ffffffffffffffffffffffffffffffffffffffff16905081600360006101000a81548173ffffffffffffffffffffffffffffffffffffffff021916908373ffffffffffffffffffffffffffffffffffffffff1602179055508173ffffffffffffffffffffffffffffffffffffffff168173ffffffffffffffffffffffffffffffffffffffff167f8be0079c531659141344cd1fd0a4f28419497f9722a3daafe3b4186f6b6457e060405160405180910390a35050565b8173ffffffffffffffffffffffffffffffffffffffff168373ffffffffffffffffffffffffffffffffffffffff161415611894576040517f08c379a000000000000000000000000000000000000000000000000000000000815260040161188b906139f1565b60405180910390fd5b80600160008573ffffffffffffffffffffffffffffffffffffffff1673ffffffffffffffffffffffffffffffffffffffff16815260200190815260200160002060008473ffffffffffffffffffffffffffffffffffffffff1673ffffffffffffffffffffffffffffffffffffffff16815260200190815260200160002060006101000a81548160ff0219169083151502179055508173ffffffffffffffffffffffffffffffffffffffff168373ffffffffffffffffffffffffffffffffffffffff167f17307eab39ab6107e8899845ad3d59bd9653f200f220920489ca2b5937696c3183604051611985919061272d565b60405180910390a3505050565b600073ffffffffffffffffffffffffffffffffffffffff168473ffffffffffffffffffffffffffffffffffffffff161415611a02576040517f08c379a00000000000000000000000000000000000000000000000000000000081526004016119f990613772565b60405180910390fd5b6000611a0c611166565b90506000611a1985611e75565b90506000611a2685611e75565b9050611a36838989858589611eef565b600080600088815260200190815260200160002060008a73ffffffffffffffffffffffffffffffffffffffff1673ffffffffffffffffffffffffffffffffffffffff16815260200190815260200160002054905085811015611acd576040517f08c379a0000000000000000000000000000000000000000000000000000000008152600401611ac490613804565b60405180910390fd5b85810360008089815260200190815260200160002060008b73ffffffffffffffffffffffffffffffffffffffff1673ffffffffffffffffffffffffffffffffffffffff168152602001908152602001600020819055508560008089815260200190815260200160002060008a73ffffffffffffffffffffffffffffffffffffffff1673ffffffffffffffffffffffffffffffffffffffff1681526020019081526020016000206000828254611b82919061322e565b925050819055508773ffffffffffffffffffffffffffffffffffffffff168973ffffffffffffffffffffffffffffffffffffffff168573ffffffffffffffffffffffffffffffffffffffff167fc3d58168c5ae7397731d063d5bbf3d657854427343f4c083240f7aacaa2d0f628a8a604051611bff929190613645565b60405180910390a4611c15848a8a86868a611f05565b611c23848a8a8a8a8a611f0d565b505050505050505050565b600073ffffffffffffffffffffffffffffffffffffffff168373ffffffffffffffffffffffffffffffffffffffff161415611c9e576040517f08c379a0000000000000000000000000000000000000000000000000000000008152600401611c95906138cd565b60405180910390fd5b6000611ca8611166565b90506000611cb584611e75565b90506000611cc284611e75565b9050611ce283876000858560405180602001604052806000815250611eef565b600080600087815260200190815260200160002060008873ffffffffffffffffffffffffffffffffffffffff1673ffffffffffffffffffffffffffffffffffffffff16815260200190815260200160002054905084811015611d79576040517f08c379a0000000000000000000000000000000000000000000000000000000008152600401611d709061395f565b60405180910390fd5b84810360008088815260200190815260200160002060008973ffffffffffffffffffffffffffffffffffffffff1673ffffffffffffffffffffffffffffffffffffffff16815260200190815260200160002081905550600073ffffffffffffffffffffffffffffffffffffffff168773ffffffffffffffffffffffffffffffffffffffff168573ffffffffffffffffffffffffffffffffffffffff167fc3d58168c5ae7397731d063d5bbf3d657854427343f4c083240f7aacaa2d0f628989604051611e46929190613645565b60405180910390a4611e6c84886000868660405180602001604052806000815250611f05565b50505050505050565b60606000600167ffffffffffffffff811115611e9457611e93612763565b5b604051908082528060200260200182016040528015611ec25781602001602082028036833780820191505090505b5090508281600081518110611eda57611ed96133d1565b5b60200260200101818152505080915050919050565b611efd8686868686866122db565b505050505050565b505050505050565b611f2c8473ffffffffffffffffffffffffffffffffffffffff166124ad565b156120ec578373ffffffffffffffffffffffffffffffffffffffff1663f23a6e6187878686866040518663ffffffff1660e01b8152600401611f72959493929190613a66565b602060405180830381600087803b158015611f8c57600080fd5b505af1925050508015611fbd57506040513d601f19601f82011682018060405250810190611fba9190613ad5565b60015b61206357611fc9613b0f565b806308c379a014156120265750611fde613b31565b80611fe95750612028565b806040517f08c379a000000000000000000000000000000000000000000000000000000000815260040161201d919061295f565b60405180910390fd5b505b6040517f08c379a000000000000000000000000000000000000000000000000000000000815260040161205a90613c39565b60405180910390fd5b63f23a6e6160e01b7bffffffffffffffffffffffffffffffffffffffffffffffffffffffff1916817bffffffffffffffffffffffffffffffffffffffffffffffffffffffff1916146120ea576040517f08c379a00000000000000000000000000000000000000000000000000000000081526004016120e190613ccb565b60405180910390fd5b505b505050505050565b6121138473ffffffffffffffffffffffffffffffffffffffff166124ad565b156122d3578373ffffffffffffffffffffffffffffffffffffffff1663bc197c8187878686866040518663ffffffff1660e01b8152600401612159959493929190613ceb565b602060405180830381600087803b15801561217357600080fd5b505af19250505080156121a457506040513d601f19601f820116820180604052508101906121a19190613ad5565b60015b61224a576121b0613b0f565b806308c379a0141561220d57506121c5613b31565b806121d0575061220f565b806040517f08c379a0000000000000000000000000000000000000000000000000000000008152600401612204919061295f565b60405180910390fd5b505b6040517f08c379a000000000000000000000000000000000000000000000000000000000815260040161224190613c39565b60405180910390fd5b63bc197c8160e01b7bffffffffffffffffffffffffffffffffffffffffffffffffffffffff1916817bffffffffffffffffffffffffffffffffffffffffffffffffffffffff1916146122d1576040517f08c379a00000000000000000000000000000000000000000000000000000000081526004016122c890613ccb565b60405180910390fd5b505b505050505050565b6122e98686868686866124d0565b600073ffffffffffffffffffffffffffffffffffffffff168573ffffffffffffffffffffffffffffffffffffffff16141561239b5760005b83518110156123995782818151811061233d5761233c6133d1565b5b60200260200101516004600086848151811061235c5761235b6133d1565b5b602002602001015181526020019081526020016000206000828254612381919061322e565b925050819055508061239290613400565b9050612321565b505b600073ffffffffffffffffffffffffffffffffffffffff168473ffffffffffffffffffffffffffffffffffffffff1614156124a55760005b83518110156124a35760008482815181106123f1576123f06133d1565b5b6020026020010151905060008483815181106124105761240f6133d1565b5b6020026020010151905060006004600084815260200190815260200160002054905081811015612475576040517f08c379a000000000000000000000000000000000000000000000000000000000815260040161246c90613dc5565b60405180910390fd5b81810360046000858152602001908152602001600020819055505050508061249c90613400565b90506123d3565b505b505050505050565b6000808273ffffffffffffffffffffffffffffffffffffffff163b119050919050565b505050505050565b8280546124e4906131cd565b90600052602060002090601f016020900481019282612506576000855561254d565b82601f1061251f57805160ff191683800117855561254d565b8280016001018555821561254d579182015b8281111561254c578251825591602001919060010190612531565b5b50905061255a919061255e565b5090565b5b8082111561257757600081600090555060010161255f565b5090565b6000604051905090565b600080fd5b600080fd5b600073ffffffffffffffffffffffffffffffffffffffff82169050919050565b60006125ba8261258f565b9050919050565b6125ca816125af565b81146125d557600080fd5b50565b6000813590506125e7816125c1565b92915050565b6000819050919050565b612600816125ed565b811461260b57600080fd5b50565b60008135905061261d816125f7565b92915050565b6000806040838503121561263a57612639612585565b5b6000612648858286016125d8565b92505060206126598582860161260e565b9150509250929050565b61266c816125ed565b82525050565b60006020820190506126876000830184612663565b92915050565b60007fffffffff0000000000000000000000000000000000000000000000000000000082169050919050565b6126c28161268d565b81146126cd57600080fd5b50565b6000813590506126df816126b9565b92915050565b6000602082840312156126fb576126fa612585565b5b6000612709848285016126d0565b91505092915050565b60008115159050919050565b61272781612712565b82525050565b6000602082019050612742600083018461271e565b92915050565b600080fd5b600080fd5b6000601f19601f8301169050919050565b7f4e487b7100000000000000000000000000000000000000000000000000000000600052604160045260246000fd5b61279b82612752565b810181811067ffffffffffffffff821117156127ba576127b9612763565b5b80604052505050565b60006127cd61257b565b90506127d98282612792565b919050565b600067ffffffffffffffff8211156127f9576127f8612763565b5b61280282612752565b9050602081019050919050565b82818337600083830152505050565b600061283161282c846127de565b6127c3565b90508281526020810184848401111561284d5761284c61274d565b5b61285884828561280f565b509392505050565b600082601f83011261287557612874612748565b5b813561288584826020860161281e565b91505092915050565b6000602082840312156128a4576128a3612585565b5b600082013567ffffffffffffffff8111156128c2576128c161258a565b5b6128ce84828501612860565b91505092915050565b600081519050919050565b600082825260208201905092915050565b60005b838110156129115780820151818401526020810190506128f6565b83811115612920576000848401525b50505050565b6000612931826128d7565b61293b81856128e2565b935061294b8185602086016128f3565b61295481612752565b840191505092915050565b600060208201905081810360008301526129798184612926565b905092915050565b60006020828403121561299757612996612585565b5b60006129a58482850161260e565b91505092915050565b600080604083850312156129c5576129c4612585565b5b60006129d38582860161260e565b92505060206129e48582860161260e565b9150509250929050565b600060208284031215612a0457612a03612585565b5b6000612a12848285016125d8565b91505092915050565b600067ffffffffffffffff821115612a3657612a35612763565b5b602082029050602081019050919050565b600080fd5b6000612a5f612a5a84612a1b565b6127c3565b90508083825260208201905060208402830185811115612a8257612a81612a47565b5b835b81811015612aab5780612a97888261260e565b845260208401935050602081019050612a84565b5050509392505050565b600082601f830112612aca57612ac9612748565b5b8135612ada848260208601612a4c565b91505092915050565b600067ffffffffffffffff821115612afe57612afd612763565b5b612b0782612752565b9050602081019050919050565b6000612b27612b2284612ae3565b6127c3565b905082815260208101848484011115612b4357612b4261274d565b5b612b4e84828561280f565b509392505050565b600082601f830112612b6b57612b6a612748565b5b8135612b7b848260208601612b14565b91505092915050565b600080600080600060a08688031215612ba057612b9f612585565b5b6000612bae888289016125d8565b9550506020612bbf888289016125d8565b945050604086013567ffffffffffffffff811115612be057612bdf61258a565b5b612bec88828901612ab5565b935050606086013567ffffffffffffffff811115612c0d57612c0c61258a565b5b612c1988828901612ab5565b925050608086013567ffffffffffffffff811115612c3a57612c3961258a565b5b612c4688828901612b56565b9150509295509295909350565b600067ffffffffffffffff821115612c6e57612c6d612763565b5b602082029050602081019050919050565b6000612c92612c8d84612c53565b6127c3565b90508083825260208201905060208402830185811115612cb557612cb4612a47565b5b835b81811015612cde5780612cca88826125d8565b845260208401935050602081019050612cb7565b5050509392505050565b600082601f830112612cfd57612cfc612748565b5b8135612d0d848260208601612c7f565b91505092915050565b60008060408385031215612d2d57612d2c612585565b5b600083013567ffffffffffffffff811115612d4b57612d4a61258a565b5b612d5785828601612ce8565b925050602083013567ffffffffffffffff811115612d7857612d7761258a565b5b612d8485828601612ab5565b9150509250929050565b600081519050919050565b600082825260208201905092915050565b6000819050602082019050919050565b612dc3816125ed565b82525050565b6000612dd58383612dba565b60208301905092915050565b6000602082019050919050565b6000612df982612d8e565b612e038185612d99565b9350612e0e83612daa565b8060005b83811015612e3f578151612e268882612dc9565b9750612e3183612de1565b925050600181019050612e12565b5085935050505092915050565b60006020820190508181036000830152612e668184612dee565b905092915050565b600080600060608486031215612e8757612e86612585565b5b6000612e95868287016125d8565b935050602084013567ffffffffffffffff811115612eb657612eb561258a565b5b612ec286828701612ab5565b925050604084013567ffffffffffffffff811115612ee357612ee261258a565b5b612eef86828701612ab5565b9150509250925092565b612f02816125af565b82525050565b6000602082019050612f1d6000830184612ef9565b92915050565b612f2c81612712565b8114612f3757600080fd5b50565b600081359050612f4981612f23565b92915050565b60008060408385031215612f6657612f65612585565b5b6000612f74858286016125d8565b9250506020612f8585828601612f3a565b9150509250929050565b600080600060608486031215612fa857612fa7612585565b5b6000612fb68682870161260e565b9350506020612fc78682870161260e565b9250506040612fd8868287016125d8565b9150509250925092565b60008060408385031215612ff957612ff8612585565b5b6000613007858286016125d8565b9250506020613018858286016125d8565b9150509250929050565b600080600080600060a0868803121561303e5761303d612585565b5b600061304c888289016125d8565b955050602061305d888289016125d8565b945050604061306e8882890161260e565b935050606061307f8882890161260e565b925050608086013567ffffffffffffffff8111156130a05761309f61258a565b5b6130ac88828901612b56565b9150509295509295909350565b6000806000606084860312156130d2576130d1612585565b5b60006130e0868287016125d8565b93505060206130f18682870161260e565b92505060406131028682870161260e565b9150509250925092565b7f455243313135353a2061646472657373207a65726f206973206e6f742061207660008201527f616c6964206f776e657200000000000000000000000000000000000000000000602082015250565b6000613168602a836128e2565b91506131738261310c565b604082019050919050565b600060208201905081810360008301526131978161315b565b9050919050565b7f4e487b7100000000000000000000000000000000000000000000000000000000600052602260045260246000fd5b600060028204905060018216806131e557607f821691505b602082108114156131f9576131f861319e565b5b50919050565b7f4e487b7100000000000000000000000000000000000000000000000000000000600052601160045260246000fd5b6000613239826125ed565b9150613244836125ed565b9250827fffffffffffffffffffffffffffffffffffffffffffffffffffffffffffffffff03821115613279576132786131ff565b5b828201905092915050565b60006040820190506132996000830185612ef9565b6132a66020830184612663565b9392505050565b7f455243313135353a2063616c6c6572206973206e6f7420746f6b656e206f776e60008201527f6572206f7220617070726f766564000000000000000000000000000000000000602082015250565b6000613309602e836128e2565b9150613314826132ad565b604082019050919050565b60006020820190508181036000830152613338816132fc565b9050919050565b7f455243313135353a206163636f756e747320616e6420696473206c656e67746860008201527f206d69736d617463680000000000000000000000000000000000000000000000602082015250565b600061339b6029836128e2565b91506133a68261333f565b604082019050919050565b600060208201905081810360008301526133ca8161338e565b9050919050565b7f4e487b7100000000000000000000000000000000000000000000000000000000600052603260045260246000fd5b600061340b826125ed565b91507fffffffffffffffffffffffffffffffffffffffffffffffffffffffffffffffff82141561343e5761343d6131ff565b5b600182019050919050565b7f5468657920616c72656164792068617665203221200000000000000000000000600082015250565b600061347f6015836128e2565b915061348a82613449565b602082019050919050565b600060208201905081810360008301526134ae81613472565b9050919050565b7f4f776e61626c653a206e6577206f776e657220697320746865207a65726f206160008201527f6464726573730000000000000000000000000000000000000000000000000000602082015250565b60006135116026836128e2565b915061351c826134b5565b604082019050919050565b6000602082019050818103600083015261354081613504565b9050919050565b7f4f776e61626c653a2063616c6c6572206973206e6f7420746865206f776e6572600082015250565b600061357d6020836128e2565b915061358882613547565b602082019050919050565b600060208201905081810360008301526135ac81613570565b9050919050565b7f455243313135353a206d696e7420746f20746865207a65726f2061646472657360008201527f7300000000000000000000000000000000000000000000000000000000000000602082015250565b600061360f6021836128e2565b915061361a826135b3565b604082019050919050565b6000602082019050818103600083015261363e81613602565b9050919050565b600060408201905061365a6000830185612663565b6136676020830184612663565b9392505050565b7f455243313135353a2069647320616e6420616d6f756e7473206c656e6774682060008201527f6d69736d61746368000000000000000000000000000000000000000000000000602082015250565b60006136ca6028836128e2565b91506136d58261366e565b604082019050919050565b600060208201905081810360008301526136f9816136bd565b9050919050565b7f455243313135353a207472616e7366657220746f20746865207a65726f20616460008201527f6472657373000000000000000000000000000000000000000000000000000000602082015250565b600061375c6025836128e2565b915061376782613700565b604082019050919050565b6000602082019050818103600083015261378b8161374f565b9050919050565b7f455243313135353a20696e73756666696369656e742062616c616e636520666f60008201527f72207472616e7366657200000000000000000000000000000000000000000000602082015250565b60006137ee602a836128e2565b91506137f982613792565b604082019050919050565b6000602082019050818103600083015261381d816137e1565b9050919050565b6000604082019050818103600083015261383e8185612dee565b905081810360208301526138528184612dee565b90509392505050565b7f455243313135353a206275726e2066726f6d20746865207a65726f206164647260008201527f6573730000000000000000000000000000000000000000000000000000000000602082015250565b60006138b76023836128e2565b91506138c28261385b565b604082019050919050565b600060208201905081810360008301526138e6816138aa565b9050919050565b7f455243313135353a206275726e20616d6f756e7420657863656564732062616c60008201527f616e636500000000000000000000000000000000000000000000000000000000602082015250565b60006139496024836128e2565b9150613954826138ed565b604082019050919050565b600060208201905081810360008301526139788161393c565b9050919050565b7f455243313135353a2073657474696e6720617070726f76616c2073746174757360008201527f20666f722073656c660000000000000000000000000000000000000000000000602082015250565b60006139db6029836128e2565b91506139e68261397f565b604082019050919050565b60006020820190508181036000830152613a0a816139ce565b9050919050565b600081519050919050565b600082825260208201905092915050565b6000613a3882613a11565b613a428185613a1c565b9350613a528185602086016128f3565b613a5b81612752565b840191505092915050565b600060a082019050613a7b6000830188612ef9565b613a886020830187612ef9565b613a956040830186612663565b613aa26060830185612663565b8181036080830152613ab48184613a2d565b90509695505050505050565b600081519050613acf816126b9565b92915050565b600060208284031215613aeb57613aea612585565b5b6000613af984828501613ac0565b91505092915050565b60008160e01c9050919050565b600060033d1115613b2e5760046000803e613b2b600051613b02565b90505b90565b600060443d1015613b4157613bc4565b613b4961257b565b60043d036004823e80513d602482011167ffffffffffffffff82111715613b71575050613bc4565b808201805167ffffffffffffffff811115613b8f5750505050613bc4565b80602083010160043d038501811115613bac575050505050613bc4565b613bbb82602001850186612792565b82955050505050505b90565b7f455243313135353a207472616e7366657220746f206e6f6e2d4552433131353560008201527f526563656976657220696d706c656d656e746572000000000000000000000000602082015250565b6000613c236034836128e2565b9150613c2e82613bc7565b604082019050919050565b60006020820190508181036000830152613c5281613c16565b9050919050565b7f455243313135353a204552433131353552656365697665722072656a6563746560008201527f6420746f6b656e73000000000000000000000000000000000000000000000000602082015250565b6000613cb56028836128e2565b9150613cc082613c59565b604082019050919050565b60006020820190508181036000830152613ce481613ca8565b9050919050565b600060a082019050613d006000830188612ef9565b613d0d6020830187612ef9565b8181036040830152613d1f8186612dee565b90508181036060830152613d338185612dee565b90508181036080830152613d478184613a2d565b90509695505050505050565b7f455243313135353a206275726e20616d6f756e74206578636565647320746f7460008201527f616c537570706c79000000000000000000000000000000000000000000000000602082015250565b6000613daf6028836128e2565b9150613dba82613d53565b604082019050919050565b60006020820190508181036000830152613dde81613da2565b905091905056fea26469706673582212207d08a131057095e5262679d0798b7ec334e48637e6dbdd36a37e4baa05dff2ec64736f6c6343000809003368747470733a2f2f676174657761792e70696e6174612e636c6f75642f697066732f516d517273674d504a785a69687169635065424d436932667254346950577251433242336433386a675537386e59",
  "linkReferences": {},
  "deployedLinkReferences": {}
}